{
  "contractName": "Bears",
  "abi": [
    {
      "inputs": [],
      "stateMutability": "nonpayable",
      "type": "constructor"
    },
    {
      "anonymous": false,
      "inputs": [
        {
          "indexed": true,
          "internalType": "address",
          "name": "owner",
          "type": "address"
        },
        {
          "indexed": true,
          "internalType": "address",
          "name": "approved",
          "type": "address"
        },
        {
          "indexed": true,
          "internalType": "uint256",
          "name": "tokenId",
          "type": "uint256"
        }
      ],
      "name": "Approval",
      "type": "event"
    },
    {
      "anonymous": false,
      "inputs": [
        {
          "indexed": true,
          "internalType": "address",
          "name": "owner",
          "type": "address"
        },
        {
          "indexed": true,
          "internalType": "address",
          "name": "operator",
          "type": "address"
        },
        {
          "indexed": false,
          "internalType": "bool",
          "name": "approved",
          "type": "bool"
        }
      ],
      "name": "ApprovalForAll",
      "type": "event"
    },
    {
      "anonymous": false,
      "inputs": [
        {
          "indexed": true,
          "internalType": "address",
          "name": "from",
          "type": "address"
        },
        {
          "indexed": true,
          "internalType": "address",
          "name": "to",
          "type": "address"
        },
        {
          "indexed": true,
          "internalType": "uint256",
          "name": "tokenId",
          "type": "uint256"
        }
      ],
      "name": "Transfer",
      "type": "event"
    },
    {
      "inputs": [
        {
          "internalType": "address",
          "name": "to",
          "type": "address"
        },
        {
          "internalType": "uint256",
          "name": "tokenId",
          "type": "uint256"
        }
      ],
      "name": "approve",
      "outputs": [],
      "stateMutability": "nonpayable",
      "type": "function"
    },
    {
      "inputs": [
        {
          "internalType": "address",
          "name": "owner",
          "type": "address"
        }
      ],
      "name": "balanceOf",
      "outputs": [
        {
          "internalType": "uint256",
          "name": "",
          "type": "uint256"
        }
      ],
      "stateMutability": "view",
      "type": "function"
    },
    {
      "inputs": [
        {
          "internalType": "uint256",
          "name": "tokenId",
          "type": "uint256"
        }
      ],
      "name": "getApproved",
      "outputs": [
        {
          "internalType": "address",
          "name": "",
          "type": "address"
        }
      ],
      "stateMutability": "view",
      "type": "function"
    },
    {
      "inputs": [
        {
          "internalType": "address",
          "name": "owner",
          "type": "address"
        },
        {
          "internalType": "address",
          "name": "operator",
          "type": "address"
        }
      ],
      "name": "isApprovedForAll",
      "outputs": [
        {
          "internalType": "bool",
          "name": "",
          "type": "bool"
        }
      ],
      "stateMutability": "view",
      "type": "function"
    },
    {
      "inputs": [],
      "name": "name",
      "outputs": [
        {
          "internalType": "string",
          "name": "",
          "type": "string"
        }
      ],
      "stateMutability": "view",
      "type": "function"
    },
    {
      "inputs": [
        {
          "internalType": "uint256",
          "name": "tokenId",
          "type": "uint256"
        }
      ],
      "name": "ownerOf",
      "outputs": [
        {
          "internalType": "address",
          "name": "",
          "type": "address"
        }
      ],
      "stateMutability": "view",
      "type": "function"
    },
    {
      "inputs": [
        {
          "internalType": "address",
          "name": "from",
          "type": "address"
        },
        {
          "internalType": "address",
          "name": "to",
          "type": "address"
        },
        {
          "internalType": "uint256",
          "name": "tokenId",
          "type": "uint256"
        }
      ],
      "name": "safeTransferFrom",
      "outputs": [],
      "stateMutability": "nonpayable",
      "type": "function"
    },
    {
      "inputs": [
        {
          "internalType": "address",
          "name": "from",
          "type": "address"
        },
        {
          "internalType": "address",
          "name": "to",
          "type": "address"
        },
        {
          "internalType": "uint256",
          "name": "tokenId",
          "type": "uint256"
        },
        {
          "internalType": "bytes",
          "name": "data",
          "type": "bytes"
        }
      ],
      "name": "safeTransferFrom",
      "outputs": [],
      "stateMutability": "nonpayable",
      "type": "function"
    },
    {
      "inputs": [
        {
          "internalType": "address",
          "name": "operator",
          "type": "address"
        },
        {
          "internalType": "bool",
          "name": "approved",
          "type": "bool"
        }
      ],
      "name": "setApprovalForAll",
      "outputs": [],
      "stateMutability": "nonpayable",
      "type": "function"
    },
    {
      "inputs": [
        {
          "internalType": "bytes4",
          "name": "interfaceId",
          "type": "bytes4"
        }
      ],
      "name": "supportsInterface",
      "outputs": [
        {
          "internalType": "bool",
          "name": "",
          "type": "bool"
        }
      ],
      "stateMutability": "view",
      "type": "function"
    },
    {
      "inputs": [],
      "name": "symbol",
      "outputs": [
        {
          "internalType": "string",
          "name": "",
          "type": "string"
        }
      ],
      "stateMutability": "view",
      "type": "function"
    },
    {
      "inputs": [
        {
          "internalType": "address",
          "name": "from",
          "type": "address"
        },
        {
          "internalType": "address",
          "name": "to",
          "type": "address"
        },
        {
          "internalType": "uint256",
          "name": "tokenId",
          "type": "uint256"
        }
      ],
      "name": "transferFrom",
      "outputs": [],
      "stateMutability": "nonpayable",
      "type": "function"
    },
    {
      "inputs": [
        {
          "internalType": "address",
          "name": "to",
          "type": "address"
        },
        {
          "internalType": "uint256",
          "name": "tokenId",
          "type": "uint256"
        }
      ],
      "name": "mint",
      "outputs": [],
      "stateMutability": "nonpayable",
      "type": "function"
    },
    {
      "inputs": [
        {
          "internalType": "uint256",
          "name": "tokenId",
          "type": "uint256"
        }
      ],
      "name": "tokenURI",
      "outputs": [
        {
          "internalType": "string",
          "name": "",
          "type": "string"
        }
      ],
      "stateMutability": "view",
      "type": "function"
    }
  ],
  "bytecode": "0x60806040526040518060800160405280605081526020016200280d605091396006908051906020019062000035929190620000ea565b503480156200004357600080fd5b506040518060400160405280600781526020017f4d79546f6b656e000000000000000000000000000000000000000000000000008152506040518060400160405280600381526020017f4d544b00000000000000000000000000000000000000000000000000000000008152508160009080519060200190620000c8929190620000ea565b508060019080519060200190620000e1929190620000ea565b505050620001ff565b828054620000f8906200019a565b90600052602060002090601f0160209004810192826200011c576000855562000168565b82601f106200013757805160ff191683800117855562000168565b8280016001018555821562000168579182015b82811115620001675782518255916020019190600101906200014a565b5b5090506200017791906200017b565b5090565b5b80821115620001965760008160009055506001016200017c565b5090565b60006002820490506001821680620001b357607f821691505b60208210811415620001ca57620001c9620001d0565b5b50919050565b7f4e487b7100000000000000000000000000000000000000000000000000000000600052602260045260246000fd5b6125fe806200020f6000396000f3fe608060405234801561001057600080fd5b50600436106100ea5760003560e01c80636352211e1161008c578063a22cb46511610066578063a22cb4651461025b578063b88d4fde14610277578063c87b56dd14610293578063e985e9c5146102c3576100ea565b80636352211e146101dd57806370a082311461020d57806395d89b411461023d576100ea565b8063095ea7b3116100c8578063095ea7b31461016d57806323b872dd1461018957806340c10f19146101a557806342842e0e146101c1576100ea565b806301ffc9a7146100ef57806306fdde031461011f578063081812fc1461013d575b600080fd5b610109600480360381019061010491906119a3565b6102f3565b6040516101169190611dd6565b60405180910390f35b6101276103d5565b6040516101349190611df1565b60405180910390f35b610157600480360381019061015291906119fd565b610467565b6040516101649190611d6f565b60405180910390f35b61018760048036038101906101829190611963565b6104ad565b005b6101a3600480360381019061019e919061184d565b6105c5565b005b6101bf60048036038101906101ba9190611963565b610625565b005b6101db60048036038101906101d6919061184d565b610633565b005b6101f760048036038101906101f291906119fd565b610653565b6040516102049190611d6f565b60405180910390f35b610227600480360381019061022291906117e0565b6106da565b6040516102349190611f93565b60405180910390f35b610245610792565b6040516102529190611df1565b60405180910390f35b61027560048036038101906102709190611923565b610824565b005b610291600480360381019061028c91906118a0565b61083a565b005b6102ad60048036038101906102a891906119fd565b61089c565b6040516102ba9190611df1565b60405180910390f35b6102dd60048036038101906102d8919061180d565b610918565b6040516102ea9190611dd6565b60405180910390f35b60007f80ac58cd000000000000000000000000000000000000000000000000000000007bffffffffffffffffffffffffffffffffffffffffffffffffffffffff1916827bffffffffffffffffffffffffffffffffffffffffffffffffffffffff191614806103be57507f5b5e139f000000000000000000000000000000000000000000000000000000007bffffffffffffffffffffffffffffffffffffffffffffffffffffffff1916827bffffffffffffffffffffffffffffffffffffffffffffffffffffffff1916145b806103ce57506103cd826109ac565b5b9050919050565b6060600080546103e490612112565b80601f016020809104026020016040519081016040528092919081815260200182805461041090612112565b801561045d5780601f106104325761010080835404028352916020019161045d565b820191906000526020600020905b81548152906001019060200180831161044057829003601f168201915b5050505050905090565b600061047282610a16565b6004600083815260200190815260200160002060009054906101000a900473ffffffffffffffffffffffffffffffffffffffff169050919050565b60006104b882610653565b90508073ffffffffffffffffffffffffffffffffffffffff168373ffffffffffffffffffffffffffffffffffffffff161415610529576040517f08c379a000000000000000000000000000000000000000000000000000000000815260040161052090611f53565b60405180910390fd5b8073ffffffffffffffffffffffffffffffffffffffff16610548610a61565b73ffffffffffffffffffffffffffffffffffffffff161480610577575061057681610571610a61565b610918565b5b6105b6576040517f08c379a00000000000000000000000000000000000000000000000000000000081526004016105ad90611f73565b60405180910390fd5b6105c08383610a69565b505050565b6105d66105d0610a61565b82610b22565b610615576040517f08c379a000000000000000000000000000000000000000000000000000000000815260040161060c90611e13565b60405180910390fd5b610620838383610bb7565b505050565b61062f8282610eb1565b5050565b61064e8383836040518060200160405280600081525061083a565b505050565b60008061065f836110cf565b9050600073ffffffffffffffffffffffffffffffffffffffff168173ffffffffffffffffffffffffffffffffffffffff1614156106d1576040517f08c379a00000000000000000000000000000000000000000000000000000000081526004016106c890611f33565b60405180910390fd5b80915050919050565b60008073ffffffffffffffffffffffffffffffffffffffff168273ffffffffffffffffffffffffffffffffffffffff16141561074b576040517f08c379a000000000000000000000000000000000000000000000000000000000815260040161074290611ed3565b60405180910390fd5b600360008373ffffffffffffffffffffffffffffffffffffffff1673ffffffffffffffffffffffffffffffffffffffff168152602001908152602001600020549050919050565b6060600180546107a190612112565b80601f01602080910402602001604051908101604052809291908181526020018280546107cd90612112565b801561081a5780601f106107ef5761010080835404028352916020019161081a565b820191906000526020600020905b8154815290600101906020018083116107fd57829003601f168201915b5050505050905090565b61083661082f610a61565b838361110c565b5050565b61084b610845610a61565b83610b22565b61088a576040517f08c379a000000000000000000000000000000000000000000000000000000000815260040161088190611e13565b60405180910390fd5b61089684848484611279565b50505050565b60606108a7826112d5565b6108e6576040517f08c379a00000000000000000000000000000000000000000000000000000000081526004016108dd90611f13565b60405180910390fd5b60066108f183611316565b604051602001610902929190611d40565b6040516020818303038152906040529050919050565b6000600560008473ffffffffffffffffffffffffffffffffffffffff1673ffffffffffffffffffffffffffffffffffffffff16815260200190815260200160002060008373ffffffffffffffffffffffffffffffffffffffff1673ffffffffffffffffffffffffffffffffffffffff16815260200190815260200160002060009054906101000a900460ff16905092915050565b60007f01ffc9a7000000000000000000000000000000000000000000000000000000007bffffffffffffffffffffffffffffffffffffffffffffffffffffffff1916827bffffffffffffffffffffffffffffffffffffffffffffffffffffffff1916149050919050565b610a1f816112d5565b610a5e576040517f08c379a0000000000000000000000000000000000000000000000000000000008152600401610a5590611f33565b60405180910390fd5b50565b600033905090565b816004600083815260200190815260200160002060006101000a81548173ffffffffffffffffffffffffffffffffffffffff021916908373ffffffffffffffffffffffffffffffffffffffff160217905550808273ffffffffffffffffffffffffffffffffffffffff16610adc83610653565b73ffffffffffffffffffffffffffffffffffffffff167f8c5be1e5ebec7d5bd14f71427d1e84f3dd0314c0f7b2291e5b200ac8c7c3b92560405160405180910390a45050565b600080610b2e83610653565b90508073ffffffffffffffffffffffffffffffffffffffff168473ffffffffffffffffffffffffffffffffffffffff161480610b705750610b6f8185610918565b5b80610bae57508373ffffffffffffffffffffffffffffffffffffffff16610b9684610467565b73ffffffffffffffffffffffffffffffffffffffff16145b91505092915050565b8273ffffffffffffffffffffffffffffffffffffffff16610bd782610653565b73ffffffffffffffffffffffffffffffffffffffff1614610c2d576040517f08c379a0000000000000000000000000000000000000000000000000000000008152600401610c2490611e53565b60405180910390fd5b600073ffffffffffffffffffffffffffffffffffffffff168273ffffffffffffffffffffffffffffffffffffffff161415610c9d576040517f08c379a0000000000000000000000000000000000000000000000000000000008152600401610c9490611e93565b60405180910390fd5b610caa83838360016113ee565b8273ffffffffffffffffffffffffffffffffffffffff16610cca82610653565b73ffffffffffffffffffffffffffffffffffffffff1614610d20576040517f08c379a0000000000000000000000000000000000000000000000000000000008152600401610d1790611e53565b60405180910390fd5b6004600082815260200190815260200160002060006101000a81549073ffffffffffffffffffffffffffffffffffffffff02191690556001600360008573ffffffffffffffffffffffffffffffffffffffff1673ffffffffffffffffffffffffffffffffffffffff168152602001908152602001600020600082825403925050819055506001600360008473ffffffffffffffffffffffffffffffffffffffff1673ffffffffffffffffffffffffffffffffffffffff16815260200190815260200160002060008282540192505081905550816002600083815260200190815260200160002060006101000a81548173ffffffffffffffffffffffffffffffffffffffff021916908373ffffffffffffffffffffffffffffffffffffffff160217905550808273ffffffffffffffffffffffffffffffffffffffff168473ffffffffffffffffffffffffffffffffffffffff167fddf252ad1be2c89b69c2b068fc378daa952ba7f163c4a11628f55a4df523b3ef60405160405180910390a4610eac83838360016113f4565b505050565b600073ffffffffffffffffffffffffffffffffffffffff168273ffffffffffffffffffffffffffffffffffffffff161415610f21576040517f08c379a0000000000000000000000000000000000000000000000000000000008152600401610f1890611ef3565b60405180910390fd5b610f2a816112d5565b15610f6a576040517f08c379a0000000000000000000000000000000000000000000000000000000008152600401610f6190611e73565b60405180910390fd5b610f786000838360016113ee565b610f81816112d5565b15610fc1576040517f08c379a0000000000000000000000000000000000000000000000000000000008152600401610fb890611e73565b60405180910390fd5b6001600360008473ffffffffffffffffffffffffffffffffffffffff1673ffffffffffffffffffffffffffffffffffffffff16815260200190815260200160002060008282540192505081905550816002600083815260200190815260200160002060006101000a81548173ffffffffffffffffffffffffffffffffffffffff021916908373ffffffffffffffffffffffffffffffffffffffff160217905550808273ffffffffffffffffffffffffffffffffffffffff16600073ffffffffffffffffffffffffffffffffffffffff167fddf252ad1be2c89b69c2b068fc378daa952ba7f163c4a11628f55a4df523b3ef60405160405180910390a46110cb6000838360016113f4565b5050565b60006002600083815260200190815260200160002060009054906101000a900473ffffffffffffffffffffffffffffffffffffffff169050919050565b8173ffffffffffffffffffffffffffffffffffffffff168373ffffffffffffffffffffffffffffffffffffffff16141561117b576040517f08c379a000000000000000000000000000000000000000000000000000000000815260040161117290611eb3565b60405180910390fd5b80600560008573ffffffffffffffffffffffffffffffffffffffff1673ffffffffffffffffffffffffffffffffffffffff16815260200190815260200160002060008473ffffffffffffffffffffffffffffffffffffffff1673ffffffffffffffffffffffffffffffffffffffff16815260200190815260200160002060006101000a81548160ff0219169083151502179055508173ffffffffffffffffffffffffffffffffffffffff168373ffffffffffffffffffffffffffffffffffffffff167f17307eab39ab6107e8899845ad3d59bd9653f200f220920489ca2b5937696c318360405161126c9190611dd6565b60405180910390a3505050565b611284848484610bb7565b611290848484846113fa565b6112cf576040517f08c379a00000000000000000000000000000000000000000000000000000000081526004016112c690611e33565b60405180910390fd5b50505050565b60008073ffffffffffffffffffffffffffffffffffffffff166112f7836110cf565b73ffffffffffffffffffffffffffffffffffffffff1614159050919050565b60606000600161132584611591565b01905060008167ffffffffffffffff811115611344576113436121d3565b5b6040519080825280601f01601f1916602001820160405280156113765781602001600182028036833780820191505090505b509050600082602001820190505b6001156113e3578080600190039150507f3031323334353637383961626364656600000000000000000000000000000000600a86061a8153600a85816113cd576113cc612175565b5b04945060008514156113de576113e3565b611384565b819350505050919050565b50505050565b50505050565b600061141b8473ffffffffffffffffffffffffffffffffffffffff166116e4565b15611584578373ffffffffffffffffffffffffffffffffffffffff1663150b7a02611444610a61565b8786866040518563ffffffff1660e01b81526004016114669493929190611d8a565b602060405180830381600087803b15801561148057600080fd5b505af19250505080156114b157506040513d601f19601f820116820180604052508101906114ae91906119d0565b60015b611534573d80600081146114e1576040519150601f19603f3d011682016040523d82523d6000602084013e6114e6565b606091505b5060008151141561152c576040517f08c379a000000000000000000000000000000000000000000000000000000000815260040161152390611e33565b60405180910390fd5b805181602001fd5b63150b7a0260e01b7bffffffffffffffffffffffffffffffffffffffffffffffffffffffff1916817bffffffffffffffffffffffffffffffffffffffffffffffffffffffff191614915050611589565b600190505b949350505050565b600080600090507a184f03e93ff9f4daa797ed6e38ed64bf6a1f01000000000000000083106115ef577a184f03e93ff9f4daa797ed6e38ed64bf6a1f01000000000000000083816115e5576115e4612175565b5b0492506040810190505b6d04ee2d6d415b85acef8100000000831061162c576d04ee2d6d415b85acef8100000000838161162257611621612175565b5b0492506020810190505b662386f26fc10000831061165b57662386f26fc10000838161165157611650612175565b5b0492506010810190505b6305f5e1008310611684576305f5e100838161167a57611679612175565b5b0492506008810190505b61271083106116a957612710838161169f5761169e612175565b5b0492506004810190505b606483106116cc57606483816116c2576116c1612175565b5b0492506002810190505b600a83106116db576001810190505b80915050919050565b6000808273ffffffffffffffffffffffffffffffffffffffff163b119050919050565b600061171a61171584611fd3565b611fae565b90508281526020810184848401111561173657611735612207565b5b6117418482856120d0565b509392505050565b6000813590506117588161256c565b92915050565b60008135905061176d81612583565b92915050565b6000813590506117828161259a565b92915050565b6000815190506117978161259a565b92915050565b600082601f8301126117b2576117b1612202565b5b81356117c2848260208601611707565b91505092915050565b6000813590506117da816125b1565b92915050565b6000602082840312156117f6576117f5612211565b5b600061180484828501611749565b91505092915050565b6000806040838503121561182457611823612211565b5b600061183285828601611749565b925050602061184385828601611749565b9150509250929050565b60008060006060848603121561186657611865612211565b5b600061187486828701611749565b935050602061188586828701611749565b9250506040611896868287016117cb565b9150509250925092565b600080600080608085870312156118ba576118b9612211565b5b60006118c887828801611749565b94505060206118d987828801611749565b93505060406118ea878288016117cb565b925050606085013567ffffffffffffffff81111561190b5761190a61220c565b5b6119178782880161179d565b91505092959194509250565b6000806040838503121561193a57611939612211565b5b600061194885828601611749565b92505060206119598582860161175e565b9150509250929050565b6000806040838503121561197a57611979612211565b5b600061198885828601611749565b9250506020611999858286016117cb565b9150509250929050565b6000602082840312156119b9576119b8612211565b5b60006119c784828501611773565b91505092915050565b6000602082840312156119e6576119e5612211565b5b60006119f484828501611788565b91505092915050565b600060208284031215611a1357611a12612211565b5b6000611a21848285016117cb565b91505092915050565b611a338161205c565b82525050565b611a428161206e565b82525050565b6000611a5382612019565b611a5d818561202f565b9350611a6d8185602086016120df565b611a7681612216565b840191505092915050565b6000611a8c82612024565b611a968185612040565b9350611aa68185602086016120df565b611aaf81612216565b840191505092915050565b6000611ac582612024565b611acf8185612051565b9350611adf8185602086016120df565b80840191505092915050565b60008154611af881612112565b611b028186612051565b94506001821660008114611b1d5760018114611b2e57611b61565b60ff19831686528186019350611b61565b611b3785612004565b60005b83811015611b5957815481890152600182019150602081019050611b3a565b838801955050505b50505092915050565b6000611b77602d83612040565b9150611b8282612227565b604082019050919050565b6000611b9a603283612040565b9150611ba582612276565b604082019050919050565b6000611bbd602583612040565b9150611bc8826122c5565b604082019050919050565b6000611be0601c83612040565b9150611beb82612314565b602082019050919050565b6000611c03602483612040565b9150611c0e8261233d565b604082019050919050565b6000611c26601983612040565b9150611c318261238c565b602082019050919050565b6000611c49602983612040565b9150611c54826123b5565b604082019050919050565b6000611c6c602083612040565b9150611c7782612404565b602082019050919050565b6000611c8f600583612051565b9150611c9a8261242d565b600582019050919050565b6000611cb2602f83612040565b9150611cbd82612456565b604082019050919050565b6000611cd5601883612040565b9150611ce0826124a5565b602082019050919050565b6000611cf8602183612040565b9150611d03826124ce565b604082019050919050565b6000611d1b603d83612040565b9150611d268261251d565b604082019050919050565b611d3a816120c6565b82525050565b6000611d4c8285611aeb565b9150611d588284611aba565b9150611d6382611c82565b91508190509392505050565b6000602082019050611d846000830184611a2a565b92915050565b6000608082019050611d9f6000830187611a2a565b611dac6020830186611a2a565b611db96040830185611d31565b8181036060830152611dcb8184611a48565b905095945050505050565b6000602082019050611deb6000830184611a39565b92915050565b60006020820190508181036000830152611e0b8184611a81565b905092915050565b60006020820190508181036000830152611e2c81611b6a565b9050919050565b60006020820190508181036000830152611e4c81611b8d565b9050919050565b60006020820190508181036000830152611e6c81611bb0565b9050919050565b60006020820190508181036000830152611e8c81611bd3565b9050919050565b60006020820190508181036000830152611eac81611bf6565b9050919050565b60006020820190508181036000830152611ecc81611c19565b9050919050565b60006020820190508181036000830152611eec81611c3c565b9050919050565b60006020820190508181036000830152611f0c81611c5f565b9050919050565b60006020820190508181036000830152611f2c81611ca5565b9050919050565b60006020820190508181036000830152611f4c81611cc8565b9050919050565b60006020820190508181036000830152611f6c81611ceb565b9050919050565b60006020820190508181036000830152611f8c81611d0e565b9050919050565b6000602082019050611fa86000830184611d31565b92915050565b6000611fb8611fc9565b9050611fc48282612144565b919050565b6000604051905090565b600067ffffffffffffffff821115611fee57611fed6121d3565b5b611ff782612216565b9050602081019050919050565b60008190508160005260206000209050919050565b600081519050919050565b600081519050919050565b600082825260208201905092915050565b600082825260208201905092915050565b600081905092915050565b6000612067826120a6565b9050919050565b60008115159050919050565b60007fffffffff0000000000000000000000000000000000000000000000000000000082169050919050565b600073ffffffffffffffffffffffffffffffffffffffff82169050919050565b6000819050919050565b82818337600083830152505050565b60005b838110156120fd5780820151818401526020810190506120e2565b8381111561210c576000848401525b50505050565b6000600282049050600182168061212a57607f821691505b6020821081141561213e5761213d6121a4565b5b50919050565b61214d82612216565b810181811067ffffffffffffffff8211171561216c5761216b6121d3565b5b80604052505050565b7f4e487b7100000000000000000000000000000000000000000000000000000000600052601260045260246000fd5b7f4e487b7100000000000000000000000000000000000000000000000000000000600052602260045260246000fd5b7f4e487b7100000000000000000000000000000000000000000000000000000000600052604160045260246000fd5b600080fd5b600080fd5b600080fd5b600080fd5b6000601f19601f8301169050919050565b7f4552433732313a2063616c6c6572206973206e6f7420746f6b656e206f776e6560008201527f72206f7220617070726f76656400000000000000000000000000000000000000602082015250565b7f4552433732313a207472616e7366657220746f206e6f6e20455243373231526560008201527f63656976657220696d706c656d656e7465720000000000000000000000000000602082015250565b7f4552433732313a207472616e736665722066726f6d20696e636f72726563742060008201527f6f776e6572000000000000000000000000000000000000000000000000000000602082015250565b7f4552433732313a20746f6b656e20616c7265616479206d696e74656400000000600082015250565b7f4552433732313a207472616e7366657220746f20746865207a65726f2061646460008201527f7265737300000000000000000000000000000000000000000000000000000000602082015250565b7f4552433732313a20617070726f766520746f2063616c6c657200000000000000600082015250565b7f4552433732313a2061646472657373207a65726f206973206e6f74206120766160008201527f6c6964206f776e65720000000000000000000000000000000000000000000000602082015250565b7f4552433732313a206d696e7420746f20746865207a65726f2061646472657373600082015250565b7f2e6a736f6e000000000000000000000000000000000000000000000000000000600082015250565b7f4552433732314d657461646174613a2055524920717565727920666f72206e6f60008201527f6e6578697374656e7420746f6b656e0000000000000000000000000000000000602082015250565b7f4552433732313a20696e76616c696420746f6b656e2049440000000000000000600082015250565b7f4552433732313a20617070726f76616c20746f2063757272656e74206f776e6560008201527f7200000000000000000000000000000000000000000000000000000000000000602082015250565b7f4552433732313a20617070726f76652063616c6c6572206973206e6f7420746f60008201527f6b656e206f776e6572206f7220617070726f76656420666f7220616c6c000000602082015250565b6125758161205c565b811461258057600080fd5b50565b61258c8161206e565b811461259757600080fd5b50565b6125a38161207a565b81146125ae57600080fd5b50565b6125ba816120c6565b81146125c557600080fd5b5056fea2646970667358221220aec5f57b52c35e833be1900e3d21eba8d3859c0db676504a38cfcfe5c74aa2c264736f6c6343000807003368747470733a2f2f6f6279632e6d7970696e6174612e636c6f75642f697066732f516d64446a74536b6f3352584e6a4a67476d7075636436505533523845395656775869715539633458705474474b2f",
  "immutableReferences": {},
  "source": "// SPDX-License-Identifier: MIT\r\npragma solidity ^0.8.0;\r\nimport \"@openzeppelin/contracts/token/ERC721/ERC721.sol\";\r\nimport \"@openzeppelin/contracts/utils/Strings.sol\";\r\n\r\ncontract Bears is ERC721 {\r\n    string _baseURIextended=\"https://obyc.mypinata.cloud/ipfs/QmdDjtSko3RXNjJgGmpucd6PU3R8E9VVwXiqU9c4XpTtGK/\";\r\n\r\n    constructor() ERC721(\"MyToken\",\"MTK\"){}\r\n    function mint(address to ,uint tokenId)public {\r\n        _mint(to,tokenId);\r\n\r\n    }\r\n    function _baseURI() internal view virtual override returns (string memory) {\r\n        return _baseURIextended;\r\n    }\r\n    \r\n    function tokenURI(uint256 tokenId) public view virtual override returns (string memory) {\r\n        require(_exists(tokenId), \"ERC721Metadata: URI query for nonexistent token\");        \r\n        // If there is a baseURI but no tokenURI, concatenate the tokenID to the baseURI.\r\n        return string(abi.encodePacked(_baseURIextended, Strings.toString(tokenId),\".json\" ) );\r\n    }\r\n\r\n    \r\n}\r\n\r\n// 0xE42C65A2C2A29F002aD4d4aE900f287B322897e9\r\n// \r\n",
  "sourcePath": "E:\\Umar Khatab\\Projects\\connective_nft_ice\\backend\\contracts\\Bears.sol",
  "compiler": {
    "name": "solc",
    "version": "0.8.7+commit.e28d00a7.Emscripten.clang"
  },
  "schemaVersion": "3.4.12",
  "updatedAt": "2023-03-27T12:21:24.416Z",
  "networkType": "ethereum",
  "devdoc": {
    "kind": "dev",
    "methods": {
      "approve(address,uint256)": {
        "details": "See {IERC721-approve}."
      },
      "balanceOf(address)": {
        "details": "See {IERC721-balanceOf}."
      },
      "getApproved(uint256)": {
        "details": "See {IERC721-getApproved}."
      },
      "isApprovedForAll(address,address)": {
        "details": "See {IERC721-isApprovedForAll}."
      },
      "name()": {
        "details": "See {IERC721Metadata-name}."
      },
      "ownerOf(uint256)": {
        "details": "See {IERC721-ownerOf}."
      },
      "safeTransferFrom(address,address,uint256)": {
        "details": "See {IERC721-safeTransferFrom}."
      },
      "safeTransferFrom(address,address,uint256,bytes)": {
        "details": "See {IERC721-safeTransferFrom}."
      },
      "setApprovalForAll(address,bool)": {
        "details": "See {IERC721-setApprovalForAll}."
      },
      "supportsInterface(bytes4)": {
        "details": "See {IERC165-supportsInterface}."
      },
      "symbol()": {
        "details": "See {IERC721Metadata-symbol}."
      },
      "tokenURI(uint256)": {
        "details": "See {IERC721Metadata-tokenURI}."
      },
      "transferFrom(address,address,uint256)": {
        "details": "See {IERC721-transferFrom}."
      }
    },
    "version": 1
  },
  "userdoc": {
    "kind": "user",
    "methods": {},
    "version": 1
  }
}