{
  "contractName": "Bearies",
  "abi": [
    {
      "inputs": [
        {
          "internalType": "address",
          "name": "Admin",
          "type": "address"
        },
        {
          "internalType": "address",
          "name": "_platformAddress",
          "type": "address"
        },
        {
          "internalType": "address",
          "name": "_nftContractAddress",
          "type": "address"
        },
        {
          "internalType": "uint256",
          "name": "_tokensPerNFT",
          "type": "uint256"
        }
      ],
      "stateMutability": "nonpayable",
      "type": "constructor"
    },
    {
      "anonymous": false,
      "inputs": [
        {
          "indexed": true,
          "internalType": "address",
          "name": "owner",
          "type": "address"
        },
        {
          "indexed": true,
          "internalType": "address",
          "name": "spender",
          "type": "address"
        },
        {
          "indexed": false,
          "internalType": "uint256",
          "name": "value",
          "type": "uint256"
        }
      ],
      "name": "Approval",
      "type": "event"
    },
    {
      "anonymous": false,
      "inputs": [
        {
          "indexed": false,
          "internalType": "address",
          "name": "contractAddress",
          "type": "address"
        },
        {
          "indexed": false,
          "internalType": "uint256",
          "name": "tokenId",
          "type": "uint256"
        },
        {
          "indexed": false,
          "internalType": "uint256",
          "name": "timestamp",
          "type": "uint256"
        }
      ],
      "name": "Claim",
      "type": "event"
    },
    {
      "anonymous": false,
      "inputs": [
        {
          "indexed": true,
          "internalType": "address",
          "name": "from",
          "type": "address"
        },
        {
          "indexed": true,
          "internalType": "address",
          "name": "to",
          "type": "address"
        },
        {
          "indexed": false,
          "internalType": "uint256",
          "name": "value",
          "type": "uint256"
        }
      ],
      "name": "Transfer",
      "type": "event"
    },
    {
      "inputs": [],
      "name": "DAILY_REWARD_DURATION",
      "outputs": [
        {
          "internalType": "uint256",
          "name": "",
          "type": "uint256"
        }
      ],
      "stateMutability": "view",
      "type": "function"
    },
    {
      "inputs": [
        {
          "internalType": "address",
          "name": "owner",
          "type": "address"
        },
        {
          "internalType": "address",
          "name": "spender",
          "type": "address"
        }
      ],
      "name": "allowance",
      "outputs": [
        {
          "internalType": "uint256",
          "name": "",
          "type": "uint256"
        }
      ],
      "stateMutability": "view",
      "type": "function"
    },
    {
      "inputs": [
        {
          "internalType": "address",
          "name": "spender",
          "type": "address"
        },
        {
          "internalType": "uint256",
          "name": "amount",
          "type": "uint256"
        }
      ],
      "name": "approve",
      "outputs": [
        {
          "internalType": "bool",
          "name": "",
          "type": "bool"
        }
      ],
      "stateMutability": "nonpayable",
      "type": "function"
    },
    {
      "inputs": [
        {
          "internalType": "address",
          "name": "account",
          "type": "address"
        }
      ],
      "name": "balanceOf",
      "outputs": [
        {
          "internalType": "uint256",
          "name": "",
          "type": "uint256"
        }
      ],
      "stateMutability": "view",
      "type": "function"
    },
    {
      "inputs": [],
      "name": "decimals",
      "outputs": [
        {
          "internalType": "uint8",
          "name": "",
          "type": "uint8"
        }
      ],
      "stateMutability": "view",
      "type": "function"
    },
    {
      "inputs": [
        {
          "internalType": "address",
          "name": "spender",
          "type": "address"
        },
        {
          "internalType": "uint256",
          "name": "subtractedValue",
          "type": "uint256"
        }
      ],
      "name": "decreaseAllowance",
      "outputs": [
        {
          "internalType": "bool",
          "name": "",
          "type": "bool"
        }
      ],
      "stateMutability": "nonpayable",
      "type": "function"
    },
    {
      "inputs": [
        {
          "internalType": "address",
          "name": "spender",
          "type": "address"
        },
        {
          "internalType": "uint256",
          "name": "addedValue",
          "type": "uint256"
        }
      ],
      "name": "increaseAllowance",
      "outputs": [
        {
          "internalType": "bool",
          "name": "",
          "type": "bool"
        }
      ],
      "stateMutability": "nonpayable",
      "type": "function"
    },
    {
      "inputs": [
        {
          "internalType": "uint256",
          "name": "",
          "type": "uint256"
        }
      ],
      "name": "lastClaim",
      "outputs": [
        {
          "internalType": "uint256",
          "name": "",
          "type": "uint256"
        }
      ],
      "stateMutability": "view",
      "type": "function"
    },
    {
      "inputs": [
        {
          "internalType": "address",
          "name": "",
          "type": "address"
        },
        {
          "internalType": "uint256",
          "name": "",
          "type": "uint256"
        }
      ],
      "name": "map",
      "outputs": [
        {
          "internalType": "uint256",
          "name": "",
          "type": "uint256"
        }
      ],
      "stateMutability": "view",
      "type": "function"
    },
    {
      "inputs": [],
      "name": "name",
      "outputs": [
        {
          "internalType": "string",
          "name": "",
          "type": "string"
        }
      ],
      "stateMutability": "view",
      "type": "function"
    },
    {
      "inputs": [],
      "name": "nftContractAddress",
      "outputs": [
        {
          "internalType": "address",
          "name": "",
          "type": "address"
        }
      ],
      "stateMutability": "view",
      "type": "function"
    },
    {
      "inputs": [],
      "name": "symbol",
      "outputs": [
        {
          "internalType": "string",
          "name": "",
          "type": "string"
        }
      ],
      "stateMutability": "view",
      "type": "function"
    },
    {
      "inputs": [],
      "name": "tokensPerNFT",
      "outputs": [
        {
          "internalType": "uint256",
          "name": "",
          "type": "uint256"
        }
      ],
      "stateMutability": "view",
      "type": "function"
    },
    {
      "inputs": [],
      "name": "totalSupply",
      "outputs": [
        {
          "internalType": "uint256",
          "name": "",
          "type": "uint256"
        }
      ],
      "stateMutability": "view",
      "type": "function"
    },
    {
      "inputs": [
        {
          "internalType": "address",
          "name": "to",
          "type": "address"
        },
        {
          "internalType": "uint256",
          "name": "amount",
          "type": "uint256"
        }
      ],
      "name": "transfer",
      "outputs": [
        {
          "internalType": "bool",
          "name": "",
          "type": "bool"
        }
      ],
      "stateMutability": "nonpayable",
      "type": "function"
    },
    {
      "inputs": [
        {
          "internalType": "address",
          "name": "from",
          "type": "address"
        },
        {
          "internalType": "address",
          "name": "to",
          "type": "address"
        },
        {
          "internalType": "uint256",
          "name": "amount",
          "type": "uint256"
        }
      ],
      "name": "transferFrom",
      "outputs": [
        {
          "internalType": "bool",
          "name": "",
          "type": "bool"
        }
      ],
      "stateMutability": "nonpayable",
      "type": "function"
    },
    {
      "inputs": [
        {
          "internalType": "address",
          "name": "user",
          "type": "address"
        },
        {
          "internalType": "uint256",
          "name": "amount",
          "type": "uint256"
        }
      ],
      "name": "airdrop",
      "outputs": [],
      "stateMutability": "nonpayable",
      "type": "function"
    },
    {
      "inputs": [
        {
          "internalType": "uint256[]",
          "name": "tokenIds",
          "type": "uint256[]"
        }
      ],
      "name": "claimTokens",
      "outputs": [],
      "stateMutability": "nonpayable",
      "type": "function"
    },
    {
      "inputs": [
        {
          "internalType": "uint256",
          "name": "tokenId",
          "type": "uint256"
        }
      ],
      "name": "calculateTokensToClaim",
      "outputs": [
        {
          "internalType": "uint256",
          "name": "",
          "type": "uint256"
        }
      ],
      "stateMutability": "view",
      "type": "function"
    }
  ],
  "bytecode": "0x60806040523480156200001157600080fd5b506040516200252a3803806200252a833981810160405281019062000037919062000423565b6040518060400160405280600781526020017f42656172696573000000000000000000000000000000000000000000000000008152506040518060400160405280600781526020017f42656172696573000000000000000000000000000000000000000000000000008152508160039080519060200190620000bb92919062000345565b508060049080519060200190620000d492919062000345565b50505081600560006101000a81548173ffffffffffffffffffffffffffffffffffffffff021916908373ffffffffffffffffffffffffffffffffffffffff1602179055508060068190555083600760006101000a81548173ffffffffffffffffffffffffffffffffffffffff021916908373ffffffffffffffffffffffffffffffffffffffff16021790555082600860006101000a81548173ffffffffffffffffffffffffffffffffffffffff021916908373ffffffffffffffffffffffffffffffffffffffff160217905550620001bc33683635c9adc5dea00000620001cd60201b60201c565b42600b8190555050505050620006ae565b600073ffffffffffffffffffffffffffffffffffffffff168273ffffffffffffffffffffffffffffffffffffffff16141562000240576040517f08c379a00000000000000000000000000000000000000000000000000000000081526004016200023790620004cd565b60405180910390fd5b62000254600083836200033b60201b60201c565b80600260008282546200026891906200051d565b92505081905550806000808473ffffffffffffffffffffffffffffffffffffffff1673ffffffffffffffffffffffffffffffffffffffff168152602001908152602001600020600082825401925050819055508173ffffffffffffffffffffffffffffffffffffffff16600073ffffffffffffffffffffffffffffffffffffffff167fddf252ad1be2c89b69c2b068fc378daa952ba7f163c4a11628f55a4df523b3ef836040516200031b9190620004ef565b60405180910390a362000337600083836200034060201b60201c565b5050565b505050565b505050565b8280546200035390620005b8565b90600052602060002090601f016020900481019282620003775760008555620003c3565b82601f106200039257805160ff1916838001178555620003c3565b82800160010185558215620003c3579182015b82811115620003c2578251825591602001919060010190620003a5565b5b509050620003d29190620003d6565b5090565b5b80821115620003f1576000816000905550600101620003d7565b5090565b60008151905062000406816200067a565b92915050565b6000815190506200041d8162000694565b92915050565b6000806000806080858703121562000440576200043f6200064c565b5b60006200045087828801620003f5565b94505060206200046387828801620003f5565b93505060406200047687828801620003f5565b925050606062000489878288016200040c565b91505092959194509250565b6000620004a4601f836200050c565b9150620004b18262000651565b602082019050919050565b620004c781620005ae565b82525050565b60006020820190508181036000830152620004e88162000495565b9050919050565b6000602082019050620005066000830184620004bc565b92915050565b600082825260208201905092915050565b60006200052a82620005ae565b91506200053783620005ae565b9250827fffffffffffffffffffffffffffffffffffffffffffffffffffffffffffffffff038211156200056f576200056e620005ee565b5b828201905092915050565b600062000587826200058e565b9050919050565b600073ffffffffffffffffffffffffffffffffffffffff82169050919050565b6000819050919050565b60006002820490506001821680620005d157607f821691505b60208210811415620005e857620005e76200061d565b5b50919050565b7f4e487b7100000000000000000000000000000000000000000000000000000000600052601160045260246000fd5b7f4e487b7100000000000000000000000000000000000000000000000000000000600052602260045260246000fd5b600080fd5b7f45524332303a206d696e7420746f20746865207a65726f206164647265737300600082015250565b62000685816200057a565b81146200069157600080fd5b50565b6200069f81620005ae565b8114620006ab57600080fd5b50565b611e6c80620006be6000396000f3fe608060405234801561001057600080fd5b50600436106101215760003560e01c80635afcc2f5116100ad578063a457c2d711610071578063a457c2d714610332578063a9059cbb14610362578063aae282e114610392578063dd62ed3e146103b0578063e2e51bf1146103e057610121565b80635afcc2f51461027a57806370a08231146102985780638ba4cc3c146102c857806395d89b41146102e45780639dfb94ba1461030257610121565b806323b872dd116100f457806323b872dd146101b05780632d08265a146101e0578063313ce567146101fc578063395093511461021a5780633d3728b51461024a57610121565b806306fdde0314610126578063095ea7b3146101445780630e0281b61461017457806318160ddd14610192575b600080fd5b61012e610410565b60405161013b9190611651565b60405180910390f35b61015e60048036038101906101599190611338565b6104a2565b60405161016b9190611636565b60405180910390f35b61017c6104c5565b60405161018991906117d3565b60405180910390f35b61019a6104ca565b6040516101a791906117d3565b60405180910390f35b6101ca60048036038101906101c591906112e5565b6104d4565b6040516101d79190611636565b60405180910390f35b6101fa60048036038101906101f59190611378565b610503565b005b610204610742565b60405161021191906117ee565b60405180910390f35b610234600480360381019061022f9190611338565b61074b565b6040516102419190611636565b60405180910390f35b610264600480360381019061025f91906113c1565b610782565b60405161027191906117d3565b60405180910390f35b61028261079a565b60405161028f91906117d3565b60405180910390f35b6102b260048036038101906102ad919061124b565b6107a0565b6040516102bf91906117d3565b60405180910390f35b6102e260048036038101906102dd9190611338565b6107e8565b005b6102ec6108de565b6040516102f99190611651565b60405180910390f35b61031c60048036038101906103179190611338565b610970565b60405161032991906117d3565b60405180910390f35b61034c60048036038101906103479190611338565b610995565b6040516103599190611636565b60405180910390f35b61037c60048036038101906103779190611338565b610a0c565b6040516103899190611636565b60405180910390f35b61039a610a2f565b6040516103a791906115e4565b60405180910390f35b6103ca60048036038101906103c591906112a5565b610a55565b6040516103d791906117d3565b60405180910390f35b6103fa60048036038101906103f591906113c1565b610adc565b60405161040791906117d3565b60405180910390f35b60606003805461041f90611988565b80601f016020809104026020016040519081016040528092919081815260200182805461044b90611988565b80156104985780601f1061046d57610100808354040283529160200191610498565b820191906000526020600020905b81548152906001019060200180831161047b57829003601f168201915b5050505050905090565b6000806104ad610b36565b90506104ba818585610b3e565b600191505092915050565b600a81565b6000600254905090565b6000806104df610b36565b90506104ec858285610d09565b6104f7858585610d95565b60019150509392505050565b600080600090505b82518210156106f057600083838151811061052957610528611a92565b5b602002602001015190503373ffffffffffffffffffffffffffffffffffffffff16600560009054906101000a900473ffffffffffffffffffffffffffffffffffffffff1673ffffffffffffffffffffffffffffffffffffffff16636352211e836040518263ffffffff1660e01b81526004016105a591906117d3565b60206040518083038186803b1580156105bd57600080fd5b505afa1580156105d1573d6000803e3d6000fd5b505050506040513d601f19601f820116820180604052508101906105f59190611278565b73ffffffffffffffffffffffffffffffffffffffff161461064b576040517f08c379a000000000000000000000000000000000000000000000000000000000815260040161064290611753565b60405180910390fd5b600061065682610adc565b905080836106649190611876565b925042600a6000848152602001908152602001600020819055507f34fcbac0073d7c3d388e51312faf357774904998eeb8fca628b9e6f65ee1cbf7600560009054906101000a900473ffffffffffffffffffffffffffffffffffffffff1683426040516106d3939291906115ff565b60405180910390a1505081806106e8906119eb565b92505061050b565b60008111610733576040517f08c379a000000000000000000000000000000000000000000000000000000000815260040161072a90611693565b60405180910390fd5b61073d338261100d565b505050565b60006012905090565b600080610756610b36565b90506107778185856107688589610a55565b6107729190611876565b610b3e565b600191505092915050565b600a6020528060005260406000206000915090505481565b60065481565b60008060008373ffffffffffffffffffffffffffffffffffffffff1673ffffffffffffffffffffffffffffffffffffffff168152602001908152602001600020549050919050565b600760009054906101000a900473ffffffffffffffffffffffffffffffffffffffff1673ffffffffffffffffffffffffffffffffffffffff163373ffffffffffffffffffffffffffffffffffffffff1614806108915750600860009054906101000a900473ffffffffffffffffffffffffffffffffffffffff1673ffffffffffffffffffffffffffffffffffffffff163373ffffffffffffffffffffffffffffffffffffffff16145b6108d0576040517f08c379a00000000000000000000000000000000000000000000000000000000081526004016108c790611713565b60405180910390fd5b6108da828261100d565b5050565b6060600480546108ed90611988565b80601f016020809104026020016040519081016040528092919081815260200182805461091990611988565b80156109665780601f1061093b57610100808354040283529160200191610966565b820191906000526020600020905b81548152906001019060200180831161094957829003601f168201915b5050505050905090565b6009602052816000526040600020602052806000526040600020600091509150505481565b6000806109a0610b36565b905060006109ae8286610a55565b9050838110156109f3576040517f08c379a00000000000000000000000000000000000000000000000000000000081526004016109ea90611793565b60405180910390fd5b610a008286868403610b3e565b60019250505092915050565b600080610a17610b36565b9050610a24818585610d95565b600191505092915050565b600560009054906101000a900473ffffffffffffffffffffffffffffffffffffffff1681565b6000600160008473ffffffffffffffffffffffffffffffffffffffff1673ffffffffffffffffffffffffffffffffffffffff16815260200190815260200160002060008373ffffffffffffffffffffffffffffffffffffffff1673ffffffffffffffffffffffffffffffffffffffff16815260200190815260200160002054905092915050565b6000806000600a6000858152602001908152602001600020541415610b0557600b549050610b1c565b600a60008481526020019081526020016000205490505b60008142610b2a91906118cc565b90508092505050919050565b600033905090565b600073ffffffffffffffffffffffffffffffffffffffff168373ffffffffffffffffffffffffffffffffffffffff161415610bae576040517f08c379a0000000000000000000000000000000000000000000000000000000008152600401610ba590611773565b60405180910390fd5b600073ffffffffffffffffffffffffffffffffffffffff168273ffffffffffffffffffffffffffffffffffffffff161415610c1e576040517f08c379a0000000000000000000000000000000000000000000000000000000008152600401610c15906116b3565b60405180910390fd5b80600160008573ffffffffffffffffffffffffffffffffffffffff1673ffffffffffffffffffffffffffffffffffffffff16815260200190815260200160002060008473ffffffffffffffffffffffffffffffffffffffff1673ffffffffffffffffffffffffffffffffffffffff168152602001908152602001600020819055508173ffffffffffffffffffffffffffffffffffffffff168373ffffffffffffffffffffffffffffffffffffffff167f8c5be1e5ebec7d5bd14f71427d1e84f3dd0314c0f7b2291e5b200ac8c7c3b92583604051610cfc91906117d3565b60405180910390a3505050565b6000610d158484610a55565b90507fffffffffffffffffffffffffffffffffffffffffffffffffffffffffffffffff8114610d8f5781811015610d81576040517f08c379a0000000000000000000000000000000000000000000000000000000008152600401610d78906116d3565b60405180910390fd5b610d8e8484848403610b3e565b5b50505050565b600073ffffffffffffffffffffffffffffffffffffffff168373ffffffffffffffffffffffffffffffffffffffff161415610e05576040517f08c379a0000000000000000000000000000000000000000000000000000000008152600401610dfc90611733565b60405180910390fd5b600073ffffffffffffffffffffffffffffffffffffffff168273ffffffffffffffffffffffffffffffffffffffff161415610e75576040517f08c379a0000000000000000000000000000000000000000000000000000000008152600401610e6c90611673565b60405180910390fd5b610e80838383611164565b60008060008573ffffffffffffffffffffffffffffffffffffffff1673ffffffffffffffffffffffffffffffffffffffff16815260200190815260200160002054905081811015610f06576040517f08c379a0000000000000000000000000000000000000000000000000000000008152600401610efd906116f3565b60405180910390fd5b8181036000808673ffffffffffffffffffffffffffffffffffffffff1673ffffffffffffffffffffffffffffffffffffffff16815260200190815260200160002081905550816000808573ffffffffffffffffffffffffffffffffffffffff1673ffffffffffffffffffffffffffffffffffffffff168152602001908152602001600020600082825401925050819055508273ffffffffffffffffffffffffffffffffffffffff168473ffffffffffffffffffffffffffffffffffffffff167fddf252ad1be2c89b69c2b068fc378daa952ba7f163c4a11628f55a4df523b3ef84604051610ff491906117d3565b60405180910390a3611007848484611169565b50505050565b600073ffffffffffffffffffffffffffffffffffffffff168273ffffffffffffffffffffffffffffffffffffffff16141561107d576040517f08c379a0000000000000000000000000000000000000000000000000000000008152600401611074906117b3565b60405180910390fd5b61108960008383611164565b806002600082825461109b9190611876565b92505081905550806000808473ffffffffffffffffffffffffffffffffffffffff1673ffffffffffffffffffffffffffffffffffffffff168152602001908152602001600020600082825401925050819055508173ffffffffffffffffffffffffffffffffffffffff16600073ffffffffffffffffffffffffffffffffffffffff167fddf252ad1be2c89b69c2b068fc378daa952ba7f163c4a11628f55a4df523b3ef8360405161114c91906117d3565b60405180910390a361116060008383611169565b5050565b505050565b505050565b600061118161117c8461182e565b611809565b905080838252602082019050828560208602820111156111a4576111a3611af5565b5b60005b858110156111d457816111ba8882611236565b8452602084019350602083019250506001810190506111a7565b5050509392505050565b6000813590506111ed81611e08565b92915050565b60008151905061120281611e08565b92915050565b600082601f83011261121d5761121c611af0565b5b813561122d84826020860161116e565b91505092915050565b60008135905061124581611e1f565b92915050565b60006020828403121561126157611260611aff565b5b600061126f848285016111de565b91505092915050565b60006020828403121561128e5761128d611aff565b5b600061129c848285016111f3565b91505092915050565b600080604083850312156112bc576112bb611aff565b5b60006112ca858286016111de565b92505060206112db858286016111de565b9150509250929050565b6000806000606084860312156112fe576112fd611aff565b5b600061130c868287016111de565b935050602061131d868287016111de565b925050604061132e86828701611236565b9150509250925092565b6000806040838503121561134f5761134e611aff565b5b600061135d858286016111de565b925050602061136e85828601611236565b9150509250929050565b60006020828403121561138e5761138d611aff565b5b600082013567ffffffffffffffff8111156113ac576113ab611afa565b5b6113b884828501611208565b91505092915050565b6000602082840312156113d7576113d6611aff565b5b60006113e584828501611236565b91505092915050565b6113f781611900565b82525050565b61140681611912565b82525050565b60006114178261185a565b6114218185611865565b9350611431818560208601611955565b61143a81611b04565b840191505092915050565b6000611452602383611865565b915061145d82611b15565b604082019050919050565b6000611475601283611865565b915061148082611b64565b602082019050919050565b6000611498602283611865565b91506114a382611b8d565b604082019050919050565b60006114bb601d83611865565b91506114c682611bdc565b602082019050919050565b60006114de602683611865565b91506114e982611c05565b604082019050919050565b6000611501602383611865565b915061150c82611c54565b604082019050919050565b6000611524602583611865565b915061152f82611ca3565b604082019050919050565b6000611547602283611865565b915061155282611cf2565b604082019050919050565b600061156a602483611865565b915061157582611d41565b604082019050919050565b600061158d602583611865565b915061159882611d90565b604082019050919050565b60006115b0601f83611865565b91506115bb82611ddf565b602082019050919050565b6115cf8161193e565b82525050565b6115de81611948565b82525050565b60006020820190506115f960008301846113ee565b92915050565b600060608201905061161460008301866113ee565b61162160208301856115c6565b61162e60408301846115c6565b949350505050565b600060208201905061164b60008301846113fd565b92915050565b6000602082019050818103600083015261166b818461140c565b905092915050565b6000602082019050818103600083015261168c81611445565b9050919050565b600060208201905081810360008301526116ac81611468565b9050919050565b600060208201905081810360008301526116cc8161148b565b9050919050565b600060208201905081810360008301526116ec816114ae565b9050919050565b6000602082019050818103600083015261170c816114d1565b9050919050565b6000602082019050818103600083015261172c816114f4565b9050919050565b6000602082019050818103600083015261174c81611517565b9050919050565b6000602082019050818103600083015261176c8161153a565b9050919050565b6000602082019050818103600083015261178c8161155d565b9050919050565b600060208201905081810360008301526117ac81611580565b9050919050565b600060208201905081810360008301526117cc816115a3565b9050919050565b60006020820190506117e860008301846115c6565b92915050565b600060208201905061180360008301846115d5565b92915050565b6000611813611824565b905061181f82826119ba565b919050565b6000604051905090565b600067ffffffffffffffff82111561184957611848611ac1565b5b602082029050602081019050919050565b600081519050919050565b600082825260208201905092915050565b60006118818261193e565b915061188c8361193e565b9250827fffffffffffffffffffffffffffffffffffffffffffffffffffffffffffffffff038211156118c1576118c0611a34565b5b828201905092915050565b60006118d78261193e565b91506118e28361193e565b9250828210156118f5576118f4611a34565b5b828203905092915050565b600061190b8261191e565b9050919050565b60008115159050919050565b600073ffffffffffffffffffffffffffffffffffffffff82169050919050565b6000819050919050565b600060ff82169050919050565b60005b83811015611973578082015181840152602081019050611958565b83811115611982576000848401525b50505050565b600060028204905060018216806119a057607f821691505b602082108114156119b4576119b3611a63565b5b50919050565b6119c382611b04565b810181811067ffffffffffffffff821117156119e2576119e1611ac1565b5b80604052505050565b60006119f68261193e565b91507fffffffffffffffffffffffffffffffffffffffffffffffffffffffffffffffff821415611a2957611a28611a34565b5b600182019050919050565b7f4e487b7100000000000000000000000000000000000000000000000000000000600052601160045260246000fd5b7f4e487b7100000000000000000000000000000000000000000000000000000000600052602260045260246000fd5b7f4e487b7100000000000000000000000000000000000000000000000000000000600052603260045260246000fd5b7f4e487b7100000000000000000000000000000000000000000000000000000000600052604160045260246000fd5b600080fd5b600080fd5b600080fd5b600080fd5b6000601f19601f8301169050919050565b7f45524332303a207472616e7366657220746f20746865207a65726f206164647260008201527f6573730000000000000000000000000000000000000000000000000000000000602082015250565b7f4e6f20746f6b656e7320746f20636c61696d0000000000000000000000000000600082015250565b7f45524332303a20617070726f766520746f20746865207a65726f20616464726560008201527f7373000000000000000000000000000000000000000000000000000000000000602082015250565b7f45524332303a20696e73756666696369656e7420616c6c6f77616e6365000000600082015250565b7f45524332303a207472616e7366657220616d6f756e742065786365656473206260008201527f616c616e63650000000000000000000000000000000000000000000000000000602082015250565b7f4f6e6c792041646d696e206f7220506c6174666f726d2063616e20616972647260008201527f6f702e0000000000000000000000000000000000000000000000000000000000602082015250565b7f45524332303a207472616e736665722066726f6d20746865207a65726f20616460008201527f6472657373000000000000000000000000000000000000000000000000000000602082015250565b7f43616c6c6572206973206e6f7420746865206f776e6572206f6620746865204e60008201527f4654000000000000000000000000000000000000000000000000000000000000602082015250565b7f45524332303a20617070726f76652066726f6d20746865207a65726f2061646460008201527f7265737300000000000000000000000000000000000000000000000000000000602082015250565b7f45524332303a2064656372656173656420616c6c6f77616e63652062656c6f7760008201527f207a65726f000000000000000000000000000000000000000000000000000000602082015250565b7f45524332303a206d696e7420746f20746865207a65726f206164647265737300600082015250565b611e1181611900565b8114611e1c57600080fd5b50565b611e288161193e565b8114611e3357600080fd5b5056fea2646970667358221220f45163b2eb88172e4560095336ba590e62590e0f0bab47498f9da7d6f1b6d84864736f6c63430008070033",
  "immutableReferences": {},
  "source": "// SPDX-License-Identifier: MIT\r\npragma solidity ^0.8.0;\r\n\r\nimport \"@openzeppelin/contracts/token/ERC20/ERC20.sol\";\r\nimport \"@openzeppelin/contracts/token/ERC721/IERC721.sol\";\r\n\r\ncontract Bearies is ERC20 {\r\n    address public nftContractAddress;\r\n    uint256 public tokensPerNFT;\r\n    uint256 public constant DAILY_REWARD_DURATION = 10; // 24 hours * 60 minutes * 60 seconds\r\n    address private admin;\r\n    address platformAddress;\r\n    mapping(address=>mapping(uint=>uint)) public map;\r\n    mapping(uint256 => uint256) public lastClaim;\r\n    event Claim(address contractAddress, uint tokenId, uint timestamp);\r\n    uint contractCreationTimestamp;\r\n\r\n    constructor(\r\n        address Admin,\r\n        address _platformAddress,\r\n        address _nftContractAddress,\r\n        uint256 _tokensPerNFT\r\n    ) ERC20(\"Bearies\", \"Bearies\") {\r\n        nftContractAddress = _nftContractAddress;\r\n        tokensPerNFT = _tokensPerNFT;\r\n        admin = Admin;\r\n        platformAddress = _platformAddress;\r\n        _mint(msg.sender, 1000 * (10 ** 18));\r\n        contractCreationTimestamp=block.timestamp;\r\n    }\r\n\r\n    function airdrop(address user, uint amount) public {\r\n        require(\r\n            msg.sender == admin || msg.sender == platformAddress,\r\n            \"Only Admin or Platform can airdrop.\"\r\n        );\r\n        _mint(user, amount);\r\n    }\r\n\r\n    function claimTokens(uint256[] memory tokenIds) external {\r\n        uint i;\r\n        uint totalTokensToClaim = 0;\r\n\r\n        for (; i < tokenIds.length; i++) {\r\n            uint tokenId = tokenIds[i];\r\n            require(\r\n                IERC721(nftContractAddress).ownerOf(tokenId) == msg.sender,\r\n                \"Caller is not the owner of the NFT\"\r\n            );\r\n\r\n            uint256 tokensToClaim = calculateTokensToClaim(tokenId);\r\n            totalTokensToClaim += tokensToClaim;\r\n            lastClaim[tokenId] = block.timestamp;\r\n            emit Claim(nftContractAddress, tokenId, block.timestamp);\r\n        }\r\n\r\n        require(totalTokensToClaim > 0, \"No tokens to claim\");\r\n        _mint(msg.sender, totalTokensToClaim);\r\n    }\r\n\r\n    function calculateTokensToClaim(uint256 tokenId) public view returns (uint256) {\r\n        uint256 lastClaimed;\r\n        if(lastClaim[tokenId]==0){\r\n            lastClaimed=contractCreationTimestamp;\r\n        }\r\n        else{\r\n            lastClaimed=lastClaim[tokenId];\r\n        }\r\n\r\n        uint256 timeSinceLastClaim = block.timestamp - lastClaimed;\r\n        return timeSinceLastClaim;\r\n        // uint256 numDaysSinceLastClaim = timeSinceLastClaim / DAILY_REWARD_DURATION;\r\n        // uint256 tokensToClaim = numDaysSinceLastClaim * tokensPerNFT;\r\n\r\n        // return tokensToClaim;\r\n\r\n    }\r\n}\r\n",
  "sourcePath": "E:\\Umar Khatab\\Projects\\connective_nft_ice\\backend\\contracts\\Bearries.sol",
  "compiler": {
    "name": "solc",
    "version": "0.8.7+commit.e28d00a7.Emscripten.clang"
  },
  "schemaVersion": "3.4.12",
  "updatedAt": "2023-03-27T12:20:58.324Z",
  "devdoc": {
    "kind": "dev",
    "methods": {
      "allowance(address,address)": {
        "details": "See {IERC20-allowance}."
      },
      "approve(address,uint256)": {
        "details": "See {IERC20-approve}. NOTE: If `amount` is the maximum `uint256`, the allowance is not updated on `transferFrom`. This is semantically equivalent to an infinite approval. Requirements: - `spender` cannot be the zero address."
      },
      "balanceOf(address)": {
        "details": "See {IERC20-balanceOf}."
      },
      "decimals()": {
        "details": "Returns the number of decimals used to get its user representation. For example, if `decimals` equals `2`, a balance of `505` tokens should be displayed to a user as `5.05` (`505 / 10 ** 2`). Tokens usually opt for a value of 18, imitating the relationship between Ether and Wei. This is the value {ERC20} uses, unless this function is overridden; NOTE: This information is only used for _display_ purposes: it in no way affects any of the arithmetic of the contract, including {IERC20-balanceOf} and {IERC20-transfer}."
      },
      "decreaseAllowance(address,uint256)": {
        "details": "Atomically decreases the allowance granted to `spender` by the caller. This is an alternative to {approve} that can be used as a mitigation for problems described in {IERC20-approve}. Emits an {Approval} event indicating the updated allowance. Requirements: - `spender` cannot be the zero address. - `spender` must have allowance for the caller of at least `subtractedValue`."
      },
      "increaseAllowance(address,uint256)": {
        "details": "Atomically increases the allowance granted to `spender` by the caller. This is an alternative to {approve} that can be used as a mitigation for problems described in {IERC20-approve}. Emits an {Approval} event indicating the updated allowance. Requirements: - `spender` cannot be the zero address."
      },
      "name()": {
        "details": "Returns the name of the token."
      },
      "symbol()": {
        "details": "Returns the symbol of the token, usually a shorter version of the name."
      },
      "totalSupply()": {
        "details": "See {IERC20-totalSupply}."
      },
      "transfer(address,uint256)": {
        "details": "See {IERC20-transfer}. Requirements: - `to` cannot be the zero address. - the caller must have a balance of at least `amount`."
      },
      "transferFrom(address,address,uint256)": {
        "details": "See {IERC20-transferFrom}. Emits an {Approval} event indicating the updated allowance. This is not required by the EIP. See the note at the beginning of {ERC20}. NOTE: Does not update the allowance if the current allowance is the maximum `uint256`. Requirements: - `from` and `to` cannot be the zero address. - `from` must have a balance of at least `amount`. - the caller must have allowance for ``from``'s tokens of at least `amount`."
      }
    },
    "version": 1
  },
  "userdoc": {
    "kind": "user",
    "methods": {},
    "version": 1
  }
}