{
  "contractName": "Bearscat",
  "abi": [
    {
      "inputs": [
        {
          "internalType": "address",
          "name": "Admin",
          "type": "address"
        },
        {
          "internalType": "address",
          "name": "_platformAddress",
          "type": "address"
        },
        {
          "internalType": "address",
          "name": "nftContractAddress",
          "type": "address"
        },
        {
          "internalType": "uint256",
          "name": "_tokensPerNFT",
          "type": "uint256"
        }
      ],
      "stateMutability": "nonpayable",
      "type": "constructor"
    },
    {
      "anonymous": false,
      "inputs": [
        {
          "indexed": true,
          "internalType": "address",
          "name": "owner",
          "type": "address"
        },
        {
          "indexed": true,
          "internalType": "address",
          "name": "spender",
          "type": "address"
        },
        {
          "indexed": false,
          "internalType": "uint256",
          "name": "value",
          "type": "uint256"
        }
      ],
      "name": "Approval",
      "type": "event"
    },
    {
      "anonymous": false,
      "inputs": [
        {
          "indexed": true,
          "internalType": "address",
          "name": "from",
          "type": "address"
        },
        {
          "indexed": true,
          "internalType": "address",
          "name": "to",
          "type": "address"
        },
        {
          "indexed": false,
          "internalType": "uint256",
          "name": "value",
          "type": "uint256"
        }
      ],
      "name": "Transfer",
      "type": "event"
    },
    {
      "inputs": [],
      "name": "DAILY_REWARD_DURATION",
      "outputs": [
        {
          "internalType": "uint256",
          "name": "",
          "type": "uint256"
        }
      ],
      "stateMutability": "view",
      "type": "function"
    },
    {
      "inputs": [
        {
          "internalType": "address",
          "name": "owner",
          "type": "address"
        },
        {
          "internalType": "address",
          "name": "spender",
          "type": "address"
        }
      ],
      "name": "allowance",
      "outputs": [
        {
          "internalType": "uint256",
          "name": "",
          "type": "uint256"
        }
      ],
      "stateMutability": "view",
      "type": "function"
    },
    {
      "inputs": [
        {
          "internalType": "address",
          "name": "spender",
          "type": "address"
        },
        {
          "internalType": "uint256",
          "name": "amount",
          "type": "uint256"
        }
      ],
      "name": "approve",
      "outputs": [
        {
          "internalType": "bool",
          "name": "",
          "type": "bool"
        }
      ],
      "stateMutability": "nonpayable",
      "type": "function"
    },
    {
      "inputs": [
        {
          "internalType": "address",
          "name": "account",
          "type": "address"
        }
      ],
      "name": "balanceOf",
      "outputs": [
        {
          "internalType": "uint256",
          "name": "",
          "type": "uint256"
        }
      ],
      "stateMutability": "view",
      "type": "function"
    },
    {
      "inputs": [],
      "name": "decimals",
      "outputs": [
        {
          "internalType": "uint8",
          "name": "",
          "type": "uint8"
        }
      ],
      "stateMutability": "view",
      "type": "function"
    },
    {
      "inputs": [
        {
          "internalType": "address",
          "name": "spender",
          "type": "address"
        },
        {
          "internalType": "uint256",
          "name": "subtractedValue",
          "type": "uint256"
        }
      ],
      "name": "decreaseAllowance",
      "outputs": [
        {
          "internalType": "bool",
          "name": "",
          "type": "bool"
        }
      ],
      "stateMutability": "nonpayable",
      "type": "function"
    },
    {
      "inputs": [
        {
          "internalType": "address",
          "name": "spender",
          "type": "address"
        },
        {
          "internalType": "uint256",
          "name": "addedValue",
          "type": "uint256"
        }
      ],
      "name": "increaseAllowance",
      "outputs": [
        {
          "internalType": "bool",
          "name": "",
          "type": "bool"
        }
      ],
      "stateMutability": "nonpayable",
      "type": "function"
    },
    {
      "inputs": [],
      "name": "name",
      "outputs": [
        {
          "internalType": "string",
          "name": "",
          "type": "string"
        }
      ],
      "stateMutability": "view",
      "type": "function"
    },
    {
      "inputs": [],
      "name": "nftContract",
      "outputs": [
        {
          "internalType": "address",
          "name": "",
          "type": "address"
        }
      ],
      "stateMutability": "view",
      "type": "function"
    },
    {
      "inputs": [],
      "name": "symbol",
      "outputs": [
        {
          "internalType": "string",
          "name": "",
          "type": "string"
        }
      ],
      "stateMutability": "view",
      "type": "function"
    },
    {
      "inputs": [],
      "name": "tokensPerNFT",
      "outputs": [
        {
          "internalType": "uint256",
          "name": "",
          "type": "uint256"
        }
      ],
      "stateMutability": "view",
      "type": "function"
    },
    {
      "inputs": [],
      "name": "totalSupply",
      "outputs": [
        {
          "internalType": "uint256",
          "name": "",
          "type": "uint256"
        }
      ],
      "stateMutability": "view",
      "type": "function"
    },
    {
      "inputs": [
        {
          "internalType": "address",
          "name": "to",
          "type": "address"
        },
        {
          "internalType": "uint256",
          "name": "amount",
          "type": "uint256"
        }
      ],
      "name": "transfer",
      "outputs": [
        {
          "internalType": "bool",
          "name": "",
          "type": "bool"
        }
      ],
      "stateMutability": "nonpayable",
      "type": "function"
    },
    {
      "inputs": [
        {
          "internalType": "address",
          "name": "from",
          "type": "address"
        },
        {
          "internalType": "address",
          "name": "to",
          "type": "address"
        },
        {
          "internalType": "uint256",
          "name": "amount",
          "type": "uint256"
        }
      ],
      "name": "transferFrom",
      "outputs": [
        {
          "internalType": "bool",
          "name": "",
          "type": "bool"
        }
      ],
      "stateMutability": "nonpayable",
      "type": "function"
    },
    {
      "inputs": [
        {
          "internalType": "address",
          "name": "user",
          "type": "address"
        },
        {
          "internalType": "uint256",
          "name": "amount",
          "type": "uint256"
        }
      ],
      "name": "airdrop",
      "outputs": [],
      "stateMutability": "nonpayable",
      "type": "function"
    },
    {
      "inputs": [
        {
          "internalType": "uint256[]",
          "name": "tokenIds",
          "type": "uint256[]"
        }
      ],
      "name": "claimTokens",
      "outputs": [],
      "stateMutability": "nonpayable",
      "type": "function"
    }
  ],
  "bytecode": "0x60806040523480156200001157600080fd5b50604051620023153803806200231583398181016040528101906200003791906200041c565b6040518060400160405280600781526020017f42656172696573000000000000000000000000000000000000000000000000008152506040518060400160405280600781526020017f42656172696573000000000000000000000000000000000000000000000000008152508160039080519060200190620000bb9291906200033e565b508060049080519060200190620000d49291906200033e565b50505081600560006101000a81548173ffffffffffffffffffffffffffffffffffffffff021916908373ffffffffffffffffffffffffffffffffffffffff1602179055508060068190555083600760006101000a81548173ffffffffffffffffffffffffffffffffffffffff021916908373ffffffffffffffffffffffffffffffffffffffff16021790555082600860006101000a81548173ffffffffffffffffffffffffffffffffffffffff021916908373ffffffffffffffffffffffffffffffffffffffff160217905550620001bc33683635c9adc5dea00000620001c660201b60201c565b50505050620006a7565b600073ffffffffffffffffffffffffffffffffffffffff168273ffffffffffffffffffffffffffffffffffffffff16141562000239576040517f08c379a00000000000000000000000000000000000000000000000000000000081526004016200023090620004c6565b60405180910390fd5b6200024d600083836200033460201b60201c565b806002600082825462000261919062000516565b92505081905550806000808473ffffffffffffffffffffffffffffffffffffffff1673ffffffffffffffffffffffffffffffffffffffff168152602001908152602001600020600082825401925050819055508173ffffffffffffffffffffffffffffffffffffffff16600073ffffffffffffffffffffffffffffffffffffffff167fddf252ad1be2c89b69c2b068fc378daa952ba7f163c4a11628f55a4df523b3ef83604051620003149190620004e8565b60405180910390a362000330600083836200033960201b60201c565b5050565b505050565b505050565b8280546200034c90620005b1565b90600052602060002090601f016020900481019282620003705760008555620003bc565b82601f106200038b57805160ff1916838001178555620003bc565b82800160010185558215620003bc579182015b82811115620003bb5782518255916020019190600101906200039e565b5b509050620003cb9190620003cf565b5090565b5b80821115620003ea576000816000905550600101620003d0565b5090565b600081519050620003ff8162000673565b92915050565b60008151905062000416816200068d565b92915050565b6000806000806080858703121562000439576200043862000645565b5b60006200044987828801620003ee565b94505060206200045c87828801620003ee565b93505060406200046f87828801620003ee565b9250506060620004828782880162000405565b91505092959194509250565b60006200049d601f8362000505565b9150620004aa826200064a565b602082019050919050565b620004c081620005a7565b82525050565b60006020820190508181036000830152620004e1816200048e565b9050919050565b6000602082019050620004ff6000830184620004b5565b92915050565b600082825260208201905092915050565b60006200052382620005a7565b91506200053083620005a7565b9250827fffffffffffffffffffffffffffffffffffffffffffffffffffffffffffffffff03821115620005685762000567620005e7565b5b828201905092915050565b6000620005808262000587565b9050919050565b600073ffffffffffffffffffffffffffffffffffffffff82169050919050565b6000819050919050565b60006002820490506001821680620005ca57607f821691505b60208210811415620005e157620005e062000616565b5b50919050565b7f4e487b7100000000000000000000000000000000000000000000000000000000600052601160045260246000fd5b7f4e487b7100000000000000000000000000000000000000000000000000000000600052602260045260246000fd5b600080fd5b7f45524332303a206d696e7420746f20746865207a65726f206164647265737300600082015250565b6200067e8162000573565b81146200068a57600080fd5b50565b6200069881620005a7565b8114620006a457600080fd5b50565b611c5e80620006b76000396000f3fe608060405234801561001057600080fd5b50600436106101005760003560e01c80635afcc2f511610097578063a457c2d711610066578063a457c2d7146102b1578063a9059cbb146102e1578063d56d229d14610311578063dd62ed3e1461032f57610100565b80635afcc2f51461022957806370a08231146102475780638ba4cc3c1461027757806395d89b411461029357610100565b806323b872dd116100d357806323b872dd1461018f5780632d08265a146101bf578063313ce567146101db57806339509351146101f957610100565b806306fdde0314610105578063095ea7b3146101235780630e0281b61461015357806318160ddd14610171575b600080fd5b61010d61035f565b60405161011a9190611477565b60405180910390f35b61013d600480360381019061013891906111c2565b6103f1565b60405161014a919061145c565b60405180910390f35b61015b610414565b60405161016891906115f9565b60405180910390f35b61017961041b565b60405161018691906115f9565b60405180910390f35b6101a960048036038101906101a4919061116f565b610425565b6040516101b6919061145c565b60405180910390f35b6101d960048036038101906101d49190611202565b610454565b005b6101e3610663565b6040516101f09190611614565b60405180910390f35b610213600480360381019061020e91906111c2565b61066c565b604051610220919061145c565b60405180910390f35b6102316106a3565b60405161023e91906115f9565b60405180910390f35b610261600480360381019061025c91906110d5565b6106a9565b60405161026e91906115f9565b60405180910390f35b610291600480360381019061028c91906111c2565b6106f1565b005b61029b6107e7565b6040516102a89190611477565b60405180910390f35b6102cb60048036038101906102c691906111c2565b610879565b6040516102d8919061145c565b60405180910390f35b6102fb60048036038101906102f691906111c2565b6108f0565b604051610308919061145c565b60405180910390f35b610319610913565b6040516103269190611441565b60405180910390f35b6103496004803603810190610344919061112f565b610939565b60405161035691906115f9565b60405180910390f35b60606003805461036e9061177a565b80601f016020809104026020016040519081016040528092919081815260200182805461039a9061177a565b80156103e75780601f106103bc576101008083540402835291602001916103e7565b820191906000526020600020905b8154815290600101906020018083116103ca57829003601f168201915b5050505050905090565b6000806103fc6109c0565b90506104098185856109c8565b600191505092915050565b6201518081565b6000600254905090565b6000806104306109c0565b905061043d858285610b93565b610448858585610c1f565b60019150509392505050565b60005b815181101561065f57600082828151811061047557610474611884565b5b602002602001015190503373ffffffffffffffffffffffffffffffffffffffff16600560009054906101000a900473ffffffffffffffffffffffffffffffffffffffff1673ffffffffffffffffffffffffffffffffffffffff16636352211e836040518263ffffffff1660e01b81526004016104f191906115f9565b60206040518083038186803b15801561050957600080fd5b505afa15801561051d573d6000803e3d6000fd5b505050506040513d601f19601f820116820180604052508101906105419190611102565b73ffffffffffffffffffffffffffffffffffffffff1614610597576040517f08c379a000000000000000000000000000000000000000000000000000000000815260040161058e90611559565b60405180910390fd5b62015180600a6000838152602001908152602001600020546105b9919061169c565b4210156105fb576040517f08c379a00000000000000000000000000000000000000000000000000000000081526004016105f290611599565b60405180910390fd5b60016009600083815260200190815260200160002060006101000a81548160ff02191690831515021790555061063333600654610e97565b42600a600083815260200190815260200160002081905550508080610657906117dd565b915050610457565b5050565b60006012905090565b6000806106776109c0565b90506106988185856106898589610939565b610693919061169c565b6109c8565b600191505092915050565b60065481565b60008060008373ffffffffffffffffffffffffffffffffffffffff1673ffffffffffffffffffffffffffffffffffffffff168152602001908152602001600020549050919050565b600760009054906101000a900473ffffffffffffffffffffffffffffffffffffffff1673ffffffffffffffffffffffffffffffffffffffff163373ffffffffffffffffffffffffffffffffffffffff16148061079a5750600860009054906101000a900473ffffffffffffffffffffffffffffffffffffffff1673ffffffffffffffffffffffffffffffffffffffff163373ffffffffffffffffffffffffffffffffffffffff16145b6107d9576040517f08c379a00000000000000000000000000000000000000000000000000000000081526004016107d090611519565b60405180910390fd5b6107e38282610e97565b5050565b6060600480546107f69061177a565b80601f01602080910402602001604051908101604052809291908181526020018280546108229061177a565b801561086f5780601f106108445761010080835404028352916020019161086f565b820191906000526020600020905b81548152906001019060200180831161085257829003601f168201915b5050505050905090565b6000806108846109c0565b905060006108928286610939565b9050838110156108d7576040517f08c379a00000000000000000000000000000000000000000000000000000000081526004016108ce906115b9565b60405180910390fd5b6108e482868684036109c8565b60019250505092915050565b6000806108fb6109c0565b9050610908818585610c1f565b600191505092915050565b600560009054906101000a900473ffffffffffffffffffffffffffffffffffffffff1681565b6000600160008473ffffffffffffffffffffffffffffffffffffffff1673ffffffffffffffffffffffffffffffffffffffff16815260200190815260200160002060008373ffffffffffffffffffffffffffffffffffffffff1673ffffffffffffffffffffffffffffffffffffffff16815260200190815260200160002054905092915050565b600033905090565b600073ffffffffffffffffffffffffffffffffffffffff168373ffffffffffffffffffffffffffffffffffffffff161415610a38576040517f08c379a0000000000000000000000000000000000000000000000000000000008152600401610a2f90611579565b60405180910390fd5b600073ffffffffffffffffffffffffffffffffffffffff168273ffffffffffffffffffffffffffffffffffffffff161415610aa8576040517f08c379a0000000000000000000000000000000000000000000000000000000008152600401610a9f906114b9565b60405180910390fd5b80600160008573ffffffffffffffffffffffffffffffffffffffff1673ffffffffffffffffffffffffffffffffffffffff16815260200190815260200160002060008473ffffffffffffffffffffffffffffffffffffffff1673ffffffffffffffffffffffffffffffffffffffff168152602001908152602001600020819055508173ffffffffffffffffffffffffffffffffffffffff168373ffffffffffffffffffffffffffffffffffffffff167f8c5be1e5ebec7d5bd14f71427d1e84f3dd0314c0f7b2291e5b200ac8c7c3b92583604051610b8691906115f9565b60405180910390a3505050565b6000610b9f8484610939565b90507fffffffffffffffffffffffffffffffffffffffffffffffffffffffffffffffff8114610c195781811015610c0b576040517f08c379a0000000000000000000000000000000000000000000000000000000008152600401610c02906114d9565b60405180910390fd5b610c1884848484036109c8565b5b50505050565b600073ffffffffffffffffffffffffffffffffffffffff168373ffffffffffffffffffffffffffffffffffffffff161415610c8f576040517f08c379a0000000000000000000000000000000000000000000000000000000008152600401610c8690611539565b60405180910390fd5b600073ffffffffffffffffffffffffffffffffffffffff168273ffffffffffffffffffffffffffffffffffffffff161415610cff576040517f08c379a0000000000000000000000000000000000000000000000000000000008152600401610cf690611499565b60405180910390fd5b610d0a838383610fee565b60008060008573ffffffffffffffffffffffffffffffffffffffff1673ffffffffffffffffffffffffffffffffffffffff16815260200190815260200160002054905081811015610d90576040517f08c379a0000000000000000000000000000000000000000000000000000000008152600401610d87906114f9565b60405180910390fd5b8181036000808673ffffffffffffffffffffffffffffffffffffffff1673ffffffffffffffffffffffffffffffffffffffff16815260200190815260200160002081905550816000808573ffffffffffffffffffffffffffffffffffffffff1673ffffffffffffffffffffffffffffffffffffffff168152602001908152602001600020600082825401925050819055508273ffffffffffffffffffffffffffffffffffffffff168473ffffffffffffffffffffffffffffffffffffffff167fddf252ad1be2c89b69c2b068fc378daa952ba7f163c4a11628f55a4df523b3ef84604051610e7e91906115f9565b60405180910390a3610e91848484610ff3565b50505050565b600073ffffffffffffffffffffffffffffffffffffffff168273ffffffffffffffffffffffffffffffffffffffff161415610f07576040517f08c379a0000000000000000000000000000000000000000000000000000000008152600401610efe906115d9565b60405180910390fd5b610f1360008383610fee565b8060026000828254610f25919061169c565b92505081905550806000808473ffffffffffffffffffffffffffffffffffffffff1673ffffffffffffffffffffffffffffffffffffffff168152602001908152602001600020600082825401925050819055508173ffffffffffffffffffffffffffffffffffffffff16600073ffffffffffffffffffffffffffffffffffffffff167fddf252ad1be2c89b69c2b068fc378daa952ba7f163c4a11628f55a4df523b3ef83604051610fd691906115f9565b60405180910390a3610fea60008383610ff3565b5050565b505050565b505050565b600061100b61100684611654565b61162f565b9050808382526020820190508285602086028201111561102e5761102d6118e7565b5b60005b8581101561105e578161104488826110c0565b845260208401935060208301925050600181019050611031565b5050509392505050565b60008135905061107781611bfa565b92915050565b60008151905061108c81611bfa565b92915050565b600082601f8301126110a7576110a66118e2565b5b81356110b7848260208601610ff8565b91505092915050565b6000813590506110cf81611c11565b92915050565b6000602082840312156110eb576110ea6118f1565b5b60006110f984828501611068565b91505092915050565b600060208284031215611118576111176118f1565b5b60006111268482850161107d565b91505092915050565b60008060408385031215611146576111456118f1565b5b600061115485828601611068565b925050602061116585828601611068565b9150509250929050565b600080600060608486031215611188576111876118f1565b5b600061119686828701611068565b93505060206111a786828701611068565b92505060406111b8868287016110c0565b9150509250925092565b600080604083850312156111d9576111d86118f1565b5b60006111e785828601611068565b92505060206111f8858286016110c0565b9150509250929050565b600060208284031215611218576112176118f1565b5b600082013567ffffffffffffffff811115611236576112356118ec565b5b61124284828501611092565b91505092915050565b611254816116f2565b82525050565b61126381611704565b82525050565b600061127482611680565b61127e818561168b565b935061128e818560208601611747565b611297816118f6565b840191505092915050565b60006112af60238361168b565b91506112ba82611907565b604082019050919050565b60006112d260228361168b565b91506112dd82611956565b604082019050919050565b60006112f5601d8361168b565b9150611300826119a5565b602082019050919050565b600061131860268361168b565b9150611323826119ce565b604082019050919050565b600061133b60238361168b565b915061134682611a1d565b604082019050919050565b600061135e60258361168b565b915061136982611a6c565b604082019050919050565b600061138160228361168b565b915061138c82611abb565b604082019050919050565b60006113a460248361168b565b91506113af82611b0a565b604082019050919050565b60006113c7601c8361168b565b91506113d282611b59565b602082019050919050565b60006113ea60258361168b565b91506113f582611b82565b604082019050919050565b600061140d601f8361168b565b915061141882611bd1565b602082019050919050565b61142c81611730565b82525050565b61143b8161173a565b82525050565b6000602082019050611456600083018461124b565b92915050565b6000602082019050611471600083018461125a565b92915050565b600060208201905081810360008301526114918184611269565b905092915050565b600060208201905081810360008301526114b2816112a2565b9050919050565b600060208201905081810360008301526114d2816112c5565b9050919050565b600060208201905081810360008301526114f2816112e8565b9050919050565b600060208201905081810360008301526115128161130b565b9050919050565b600060208201905081810360008301526115328161132e565b9050919050565b6000602082019050818103600083015261155281611351565b9050919050565b6000602082019050818103600083015261157281611374565b9050919050565b6000602082019050818103600083015261159281611397565b9050919050565b600060208201905081810360008301526115b2816113ba565b9050919050565b600060208201905081810360008301526115d2816113dd565b9050919050565b600060208201905081810360008301526115f281611400565b9050919050565b600060208201905061160e6000830184611423565b92915050565b60006020820190506116296000830184611432565b92915050565b600061163961164a565b905061164582826117ac565b919050565b6000604051905090565b600067ffffffffffffffff82111561166f5761166e6118b3565b5b602082029050602081019050919050565b600081519050919050565b600082825260208201905092915050565b60006116a782611730565b91506116b283611730565b9250827fffffffffffffffffffffffffffffffffffffffffffffffffffffffffffffffff038211156116e7576116e6611826565b5b828201905092915050565b60006116fd82611710565b9050919050565b60008115159050919050565b600073ffffffffffffffffffffffffffffffffffffffff82169050919050565b6000819050919050565b600060ff82169050919050565b60005b8381101561176557808201518184015260208101905061174a565b83811115611774576000848401525b50505050565b6000600282049050600182168061179257607f821691505b602082108114156117a6576117a5611855565b5b50919050565b6117b5826118f6565b810181811067ffffffffffffffff821117156117d4576117d36118b3565b5b80604052505050565b60006117e882611730565b91507fffffffffffffffffffffffffffffffffffffffffffffffffffffffffffffffff82141561181b5761181a611826565b5b600182019050919050565b7f4e487b7100000000000000000000000000000000000000000000000000000000600052601160045260246000fd5b7f4e487b7100000000000000000000000000000000000000000000000000000000600052602260045260246000fd5b7f4e487b7100000000000000000000000000000000000000000000000000000000600052603260045260246000fd5b7f4e487b7100000000000000000000000000000000000000000000000000000000600052604160045260246000fd5b600080fd5b600080fd5b600080fd5b600080fd5b6000601f19601f8301169050919050565b7f45524332303a207472616e7366657220746f20746865207a65726f206164647260008201527f6573730000000000000000000000000000000000000000000000000000000000602082015250565b7f45524332303a20617070726f766520746f20746865207a65726f20616464726560008201527f7373000000000000000000000000000000000000000000000000000000000000602082015250565b7f45524332303a20696e73756666696369656e7420616c6c6f77616e6365000000600082015250565b7f45524332303a207472616e7366657220616d6f756e742065786365656473206260008201527f616c616e63650000000000000000000000000000000000000000000000000000602082015250565b7f4f6e6c792041646d696e206f7220506c6174666f726d2063616e20616972647260008201527f6f702e0000000000000000000000000000000000000000000000000000000000602082015250565b7f45524332303a207472616e736665722066726f6d20746865207a65726f20616460008201527f6472657373000000000000000000000000000000000000000000000000000000602082015250565b7f43616c6c6572206973206e6f7420746865206f776e6572206f6620746865204e60008201527f4654000000000000000000000000000000000000000000000000000000000000602082015250565b7f45524332303a20617070726f76652066726f6d20746865207a65726f2061646460008201527f7265737300000000000000000000000000000000000000000000000000000000602082015250565b7f4461696c792072657761726420616c726561647920636c61696d656400000000600082015250565b7f45524332303a2064656372656173656420616c6c6f77616e63652062656c6f7760008201527f207a65726f000000000000000000000000000000000000000000000000000000602082015250565b7f45524332303a206d696e7420746f20746865207a65726f206164647265737300600082015250565b611c03816116f2565b8114611c0e57600080fd5b50565b611c1a81611730565b8114611c2557600080fd5b5056fea2646970667358221220301ba5428a5808a558d3efd91dbbe08da428cb0ead152312a08b71a8b00f01a664736f6c63430008070033",
  "immutableReferences": {},
  "source": "// SPDX-License-Identifier: MIT\r\npragma solidity ^0.8.0;\r\n\r\nimport \"@openzeppelin/contracts/token/ERC20/ERC20.sol\";\r\nimport \"@openzeppelin/contracts/token/ERC721/IERC721.sol\";\r\n\r\ncontract Bearscat is ERC20 {\r\n    address public nftContract;\r\n    uint256 public tokensPerNFT;\r\n    uint256 public constant DAILY_REWARD_DURATION = 86400; // 24 hours * 60 minutes * 60 seconds\r\n    address private admin;\r\n    address platformAddress;\r\n    mapping(uint256 => bool) private _claimed;\r\n    mapping(uint256 => uint256) private _lastClaim;\r\n\r\n    constructor(\r\n        address Admin,\r\n        address _platformAddress,\r\n        address nftContractAddress,\r\n        uint256 _tokensPerNFT\r\n    ) ERC20(\"Bearies\", \"Bearies\") {\r\n        nftContract = nftContractAddress;\r\n        tokensPerNFT = _tokensPerNFT;\r\n        admin = Admin;\r\n        platformAddress = _platformAddress;\r\n        _mint(msg.sender, 1000 * (10 ** 18));\r\n    }\r\n\r\n    function airdrop(address user, uint amount) public {\r\n        require(\r\n            msg.sender == admin || msg.sender == platformAddress,\r\n            \"Only Admin or Platform can airdrop.\"\r\n        );\r\n        _mint(user, amount);\r\n    }\r\n\r\n    function claimTokens(uint256[] memory tokenIds) external {\r\n        uint i;\r\n\r\n        for (; i < tokenIds.length; i++) {\r\n            uint tokenId = tokenIds[i];\r\n            require(\r\n                IERC721(nftContract).ownerOf(tokenId) == msg.sender,\r\n                \"Caller is not the owner of the NFT\"\r\n            );\r\n            require(\r\n                block.timestamp >= _lastClaim[tokenId] + DAILY_REWARD_DURATION,\r\n                \"Daily reward already claimed\"\r\n            );\r\n\r\n            _claimed[tokenId] = true;\r\n            _mint(msg.sender, tokensPerNFT);\r\n            _lastClaim[tokenId] = block.timestamp;\r\n        }\r\n    }\r\n}\r\n",
  "sourcePath": "E:\\Umar Khatab\\Projects\\connective_nft_ice\\backend\\contracts\\Bearries.sol",
  "compiler": {
    "name": "solc",
    "version": "0.8.7+commit.e28d00a7.Emscripten.clang"
  },
  "schemaVersion": "3.4.12",
  "updatedAt": "2023-03-23T12:13:06.009Z",
  "devdoc": {
    "kind": "dev",
    "methods": {
      "allowance(address,address)": {
        "details": "See {IERC20-allowance}."
      },
      "approve(address,uint256)": {
        "details": "See {IERC20-approve}. NOTE: If `amount` is the maximum `uint256`, the allowance is not updated on `transferFrom`. This is semantically equivalent to an infinite approval. Requirements: - `spender` cannot be the zero address."
      },
      "balanceOf(address)": {
        "details": "See {IERC20-balanceOf}."
      },
      "decimals()": {
        "details": "Returns the number of decimals used to get its user representation. For example, if `decimals` equals `2`, a balance of `505` tokens should be displayed to a user as `5.05` (`505 / 10 ** 2`). Tokens usually opt for a value of 18, imitating the relationship between Ether and Wei. This is the value {ERC20} uses, unless this function is overridden; NOTE: This information is only used for _display_ purposes: it in no way affects any of the arithmetic of the contract, including {IERC20-balanceOf} and {IERC20-transfer}."
      },
      "decreaseAllowance(address,uint256)": {
        "details": "Atomically decreases the allowance granted to `spender` by the caller. This is an alternative to {approve} that can be used as a mitigation for problems described in {IERC20-approve}. Emits an {Approval} event indicating the updated allowance. Requirements: - `spender` cannot be the zero address. - `spender` must have allowance for the caller of at least `subtractedValue`."
      },
      "increaseAllowance(address,uint256)": {
        "details": "Atomically increases the allowance granted to `spender` by the caller. This is an alternative to {approve} that can be used as a mitigation for problems described in {IERC20-approve}. Emits an {Approval} event indicating the updated allowance. Requirements: - `spender` cannot be the zero address."
      },
      "name()": {
        "details": "Returns the name of the token."
      },
      "symbol()": {
        "details": "Returns the symbol of the token, usually a shorter version of the name."
      },
      "totalSupply()": {
        "details": "See {IERC20-totalSupply}."
      },
      "transfer(address,uint256)": {
        "details": "See {IERC20-transfer}. Requirements: - `to` cannot be the zero address. - the caller must have a balance of at least `amount`."
      },
      "transferFrom(address,address,uint256)": {
        "details": "See {IERC20-transferFrom}. Emits an {Approval} event indicating the updated allowance. This is not required by the EIP. See the note at the beginning of {ERC20}. NOTE: Does not update the allowance if the current allowance is the maximum `uint256`. Requirements: - `from` and `to` cannot be the zero address. - `from` must have a balance of at least `amount`. - the caller must have allowance for ``from``'s tokens of at least `amount`."
      }
    },
    "version": 1
  },
  "userdoc": {
    "kind": "user",
    "methods": {},
    "version": 1
  }
}