{
  "contractName": "GameItems",
  "abi": [
    {
      "inputs": [],
      "stateMutability": "nonpayable",
      "type": "constructor"
    },
    {
      "anonymous": false,
      "inputs": [
        {
          "indexed": true,
          "internalType": "address",
          "name": "account",
          "type": "address"
        },
        {
          "indexed": true,
          "internalType": "address",
          "name": "operator",
          "type": "address"
        },
        {
          "indexed": false,
          "internalType": "bool",
          "name": "approved",
          "type": "bool"
        }
      ],
      "name": "ApprovalForAll",
      "type": "event"
    },
    {
      "anonymous": false,
      "inputs": [
        {
          "indexed": true,
          "internalType": "address",
          "name": "operator",
          "type": "address"
        },
        {
          "indexed": true,
          "internalType": "address",
          "name": "from",
          "type": "address"
        },
        {
          "indexed": true,
          "internalType": "address",
          "name": "to",
          "type": "address"
        },
        {
          "indexed": false,
          "internalType": "uint256[]",
          "name": "ids",
          "type": "uint256[]"
        },
        {
          "indexed": false,
          "internalType": "uint256[]",
          "name": "values",
          "type": "uint256[]"
        }
      ],
      "name": "TransferBatch",
      "type": "event"
    },
    {
      "anonymous": false,
      "inputs": [
        {
          "indexed": true,
          "internalType": "address",
          "name": "operator",
          "type": "address"
        },
        {
          "indexed": true,
          "internalType": "address",
          "name": "from",
          "type": "address"
        },
        {
          "indexed": true,
          "internalType": "address",
          "name": "to",
          "type": "address"
        },
        {
          "indexed": false,
          "internalType": "uint256",
          "name": "id",
          "type": "uint256"
        },
        {
          "indexed": false,
          "internalType": "uint256",
          "name": "value",
          "type": "uint256"
        }
      ],
      "name": "TransferSingle",
      "type": "event"
    },
    {
      "anonymous": false,
      "inputs": [
        {
          "indexed": false,
          "internalType": "string",
          "name": "value",
          "type": "string"
        },
        {
          "indexed": true,
          "internalType": "uint256",
          "name": "id",
          "type": "uint256"
        }
      ],
      "name": "URI",
      "type": "event"
    },
    {
      "inputs": [],
      "name": "GOLD",
      "outputs": [
        {
          "internalType": "uint256",
          "name": "",
          "type": "uint256"
        }
      ],
      "stateMutability": "view",
      "type": "function"
    },
    {
      "inputs": [],
      "name": "SHIELD",
      "outputs": [
        {
          "internalType": "uint256",
          "name": "",
          "type": "uint256"
        }
      ],
      "stateMutability": "view",
      "type": "function"
    },
    {
      "inputs": [],
      "name": "SILVER",
      "outputs": [
        {
          "internalType": "uint256",
          "name": "",
          "type": "uint256"
        }
      ],
      "stateMutability": "view",
      "type": "function"
    },
    {
      "inputs": [],
      "name": "SWORD",
      "outputs": [
        {
          "internalType": "uint256",
          "name": "",
          "type": "uint256"
        }
      ],
      "stateMutability": "view",
      "type": "function"
    },
    {
      "inputs": [],
      "name": "THORS_HAMMER",
      "outputs": [
        {
          "internalType": "uint256",
          "name": "",
          "type": "uint256"
        }
      ],
      "stateMutability": "view",
      "type": "function"
    },
    {
      "inputs": [
        {
          "internalType": "address",
          "name": "account",
          "type": "address"
        },
        {
          "internalType": "uint256",
          "name": "id",
          "type": "uint256"
        }
      ],
      "name": "balanceOf",
      "outputs": [
        {
          "internalType": "uint256",
          "name": "",
          "type": "uint256"
        }
      ],
      "stateMutability": "view",
      "type": "function"
    },
    {
      "inputs": [
        {
          "internalType": "address[]",
          "name": "accounts",
          "type": "address[]"
        },
        {
          "internalType": "uint256[]",
          "name": "ids",
          "type": "uint256[]"
        }
      ],
      "name": "balanceOfBatch",
      "outputs": [
        {
          "internalType": "uint256[]",
          "name": "",
          "type": "uint256[]"
        }
      ],
      "stateMutability": "view",
      "type": "function"
    },
    {
      "inputs": [
        {
          "internalType": "address",
          "name": "account",
          "type": "address"
        },
        {
          "internalType": "address",
          "name": "operator",
          "type": "address"
        }
      ],
      "name": "isApprovedForAll",
      "outputs": [
        {
          "internalType": "bool",
          "name": "",
          "type": "bool"
        }
      ],
      "stateMutability": "view",
      "type": "function"
    },
    {
      "inputs": [
        {
          "internalType": "address",
          "name": "from",
          "type": "address"
        },
        {
          "internalType": "address",
          "name": "to",
          "type": "address"
        },
        {
          "internalType": "uint256[]",
          "name": "ids",
          "type": "uint256[]"
        },
        {
          "internalType": "uint256[]",
          "name": "amounts",
          "type": "uint256[]"
        },
        {
          "internalType": "bytes",
          "name": "data",
          "type": "bytes"
        }
      ],
      "name": "safeBatchTransferFrom",
      "outputs": [],
      "stateMutability": "nonpayable",
      "type": "function"
    },
    {
      "inputs": [
        {
          "internalType": "address",
          "name": "from",
          "type": "address"
        },
        {
          "internalType": "address",
          "name": "to",
          "type": "address"
        },
        {
          "internalType": "uint256",
          "name": "id",
          "type": "uint256"
        },
        {
          "internalType": "uint256",
          "name": "amount",
          "type": "uint256"
        },
        {
          "internalType": "bytes",
          "name": "data",
          "type": "bytes"
        }
      ],
      "name": "safeTransferFrom",
      "outputs": [],
      "stateMutability": "nonpayable",
      "type": "function"
    },
    {
      "inputs": [
        {
          "internalType": "address",
          "name": "operator",
          "type": "address"
        },
        {
          "internalType": "bool",
          "name": "approved",
          "type": "bool"
        }
      ],
      "name": "setApprovalForAll",
      "outputs": [],
      "stateMutability": "nonpayable",
      "type": "function"
    },
    {
      "inputs": [
        {
          "internalType": "bytes4",
          "name": "interfaceId",
          "type": "bytes4"
        }
      ],
      "name": "supportsInterface",
      "outputs": [
        {
          "internalType": "bool",
          "name": "",
          "type": "bool"
        }
      ],
      "stateMutability": "view",
      "type": "function"
    },
    {
      "inputs": [
        {
          "internalType": "uint256",
          "name": "",
          "type": "uint256"
        }
      ],
      "name": "uri",
      "outputs": [
        {
          "internalType": "string",
          "name": "",
          "type": "string"
        }
      ],
      "stateMutability": "view",
      "type": "function"
    },
    {
      "inputs": [
        {
          "internalType": "uint256",
          "name": "collectionId",
          "type": "uint256"
        },
        {
          "internalType": "uint256",
          "name": "tokenAmount",
          "type": "uint256"
        }
      ],
      "name": "mint",
      "outputs": [],
      "stateMutability": "nonpayable",
      "type": "function"
    }
  ],
  "bytecode": "0x60806040523480156200001157600080fd5b5060405180606001604052806027815260200162003686602791396200003d81620000fc60201b60201c565b50620000633360006001604051806020016040528060008152506200011860201b60201c565b6200008733600180604051806020016040528060008152506200011860201b60201c565b620000ac3360026001604051806020016040528060008152506200011860201b60201c565b620000d13360036001604051806020016040528060008152506200011860201b60201c565b620000f63360046001604051806020016040528060008152506200011860201b60201c565b62000d4b565b806002908051906020019062000114929190620005c6565b5050565b600073ffffffffffffffffffffffffffffffffffffffff168473ffffffffffffffffffffffffffffffffffffffff1614156200018b576040517f08c379a0000000000000000000000000000000000000000000000000000000008152600401620001829062000882565b60405180910390fd5b60006200019d6200030060201b60201c565b90506000620001b2856200030860201b60201c565b90506000620001c7856200030860201b60201c565b9050620001e0836000898585896200038960201b60201c565b8460008088815260200190815260200160002060008973ffffffffffffffffffffffffffffffffffffffff1673ffffffffffffffffffffffffffffffffffffffff168152602001908152602001600020600082825462000241919062000935565b925050819055508673ffffffffffffffffffffffffffffffffffffffff16600073ffffffffffffffffffffffffffffffffffffffff168473ffffffffffffffffffffffffffffffffffffffff167fc3d58168c5ae7397731d063d5bbf3d657854427343f4c083240f7aacaa2d0f628989604051620002c1929190620008c6565b60405180910390a4620002e0836000898585896200039160201b60201c565b620002f7836000898989896200039960201b60201c565b50505050505050565b600033905090565b60606000600167ffffffffffffffff8111156200032a576200032962000b2b565b5b604051908082528060200260200182016040528015620003595781602001602082028036833780820191505090505b509050828160008151811062000374576200037362000afc565b5b60200260200101818152505080915050919050565b505050505050565b505050505050565b620003c58473ffffffffffffffffffffffffffffffffffffffff16620005a360201b620008601760201c565b156200059b578373ffffffffffffffffffffffffffffffffffffffff1663f23a6e6187878686866040518663ffffffff1660e01b81526004016200040e959493929190620007d8565b602060405180830381600087803b1580156200042957600080fd5b505af19250505080156200045d57506040513d601f19601f820116820180604052508101906200045a91906200068d565b60015b6200050f576200046c62000b5a565b806308c379a01415620004d057506200048462000c8f565b80620004915750620004d2565b806040517f08c379a0000000000000000000000000000000000000000000000000000000008152600401620004c791906200083c565b60405180910390fd5b505b6040517f08c379a00000000000000000000000000000000000000000000000000000000081526004016200050690620008a4565b60405180910390fd5b63f23a6e6160e01b7bffffffffffffffffffffffffffffffffffffffffffffffffffffffff1916817bffffffffffffffffffffffffffffffffffffffffffffffffffffffff19161462000599576040517f08c379a0000000000000000000000000000000000000000000000000000000008152600401620005909062000860565b60405180910390fd5b505b505050505050565b6000808273ffffffffffffffffffffffffffffffffffffffff163b119050919050565b828054620005d49062000a32565b90600052602060002090601f016020900481019282620005f8576000855562000644565b82601f106200061357805160ff191683800117855562000644565b8280016001018555821562000644579182015b828111156200064357825182559160200191906001019062000626565b5b50905062000653919062000657565b5090565b5b808211156200067257600081600090555060010162000658565b5090565b600081519050620006878162000d31565b92915050565b600060208284031215620006a657620006a562000b7f565b5b6000620006b68482850162000676565b91505092915050565b620006ca8162000992565b82525050565b6000620006dd82620008fd565b620006e9818562000913565b9350620006fb818560208601620009fc565b620007068162000b84565b840191505092915050565b60006200071e8262000908565b6200072a818562000924565b93506200073c818560208601620009fc565b620007478162000b84565b840191505092915050565b60006200076160288362000924565b91506200076e8262000ba2565b604082019050919050565b60006200078860218362000924565b9150620007958262000bf1565b604082019050919050565b6000620007af60348362000924565b9150620007bc8262000c40565b604082019050919050565b620007d281620009f2565b82525050565b600060a082019050620007ef6000830188620006bf565b620007fe6020830187620006bf565b6200080d6040830186620007c7565b6200081c6060830185620007c7565b8181036080830152620008308184620006d0565b90509695505050505050565b6000602082019050818103600083015262000858818462000711565b905092915050565b600060208201905081810360008301526200087b8162000752565b9050919050565b600060208201905081810360008301526200089d8162000779565b9050919050565b60006020820190508181036000830152620008bf81620007a0565b9050919050565b6000604082019050620008dd6000830185620007c7565b620008ec6020830184620007c7565b9392505050565b6000604051905090565b600081519050919050565b600081519050919050565b600082825260208201905092915050565b600082825260208201905092915050565b60006200094282620009f2565b91506200094f83620009f2565b9250827fffffffffffffffffffffffffffffffffffffffffffffffffffffffffffffffff0382111562000987576200098662000a9e565b5b828201905092915050565b60006200099f82620009d2565b9050919050565b60007fffffffff0000000000000000000000000000000000000000000000000000000082169050919050565b600073ffffffffffffffffffffffffffffffffffffffff82169050919050565b6000819050919050565b60005b8381101562000a1c578082015181840152602081019050620009ff565b8381111562000a2c576000848401525b50505050565b6000600282049050600182168062000a4b57607f821691505b6020821081141562000a625762000a6162000acd565b5b50919050565b62000a738262000b84565b810181811067ffffffffffffffff8211171562000a955762000a9462000b2b565b5b80604052505050565b7f4e487b7100000000000000000000000000000000000000000000000000000000600052601160045260246000fd5b7f4e487b7100000000000000000000000000000000000000000000000000000000600052602260045260246000fd5b7f4e487b7100000000000000000000000000000000000000000000000000000000600052603260045260246000fd5b7f4e487b7100000000000000000000000000000000000000000000000000000000600052604160045260246000fd5b600060033d111562000b7c5760046000803e62000b7960005162000b95565b90505b90565b600080fd5b6000601f19601f8301169050919050565b60008160e01c9050919050565b7f455243313135353a204552433131353552656365697665722072656a6563746560008201527f6420746f6b656e73000000000000000000000000000000000000000000000000602082015250565b7f455243313135353a206d696e7420746f20746865207a65726f2061646472657360008201527f7300000000000000000000000000000000000000000000000000000000000000602082015250565b7f455243313135353a207472616e7366657220746f206e6f6e2d4552433131353560008201527f526563656976657220696d706c656d656e746572000000000000000000000000602082015250565b600060443d101562000ca15762000d2e565b62000cab620008f3565b60043d036004823e80513d602482011167ffffffffffffffff8211171562000cd557505062000d2e565b808201805167ffffffffffffffff81111562000cf5575050505062000d2e565b80602083010160043d03850181111562000d1457505050505062000d2e565b62000d258260200185018662000a68565b82955050505050505b90565b62000d3c81620009a6565b811462000d4857600080fd5b50565b61292b8062000d5b6000396000f3fe608060405234801561001057600080fd5b50600436106100e95760003560e01c80634e1273f41161008c578063d562e20411610066578063d562e2041461025c578063e3e55f081461027a578063e985e9c514610298578063f242432a146102c8576100e9565b80634e1273f4146101f25780635b2725ed14610222578063a22cb46514610240576100e9565b806313dc989f116100c857806313dc989f1461017e5780631b2ef1ca1461019c5780632eb2c2d6146101b85780633e4bee38146101d4576100e9565b8062fdd58e146100ee57806301ffc9a71461011e5780630e89341c1461014e575b600080fd5b61010860048036038101906101039190611a24565b6102e4565b60405161011591906120bd565b60405180910390f35b61013860048036038101906101339190611adc565b6103ad565b6040516101459190611f40565b60405180910390f35b61016860048036038101906101639190611b36565b61048f565b6040516101759190611f5b565b60405180910390f35b610186610523565b60405161019391906120bd565b60405180910390f35b6101b660048036038101906101b19190611b63565b610528565b005b6101d260048036038101906101cd919061187e565b610547565b005b6101dc6105e8565b6040516101e991906120bd565b60405180910390f35b61020c60048036038101906102079190611a64565b6105ed565b6040516102199190611ee7565b60405180910390f35b61022a610706565b60405161023791906120bd565b60405180910390f35b61025a600480360381019061025591906119e4565b61070b565b005b610264610721565b60405161027191906120bd565b60405180910390f35b610282610726565b60405161028f91906120bd565b60405180910390f35b6102b260048036038101906102ad919061183e565b61072b565b6040516102bf9190611f40565b60405180910390f35b6102e260048036038101906102dd919061194d565b6107bf565b005b60008073ffffffffffffffffffffffffffffffffffffffff168373ffffffffffffffffffffffffffffffffffffffff161415610355576040517f08c379a000000000000000000000000000000000000000000000000000000000815260040161034c90611f9d565b60405180910390fd5b60008083815260200190815260200160002060008473ffffffffffffffffffffffffffffffffffffffff1673ffffffffffffffffffffffffffffffffffffffff16815260200190815260200160002054905092915050565b60007fd9b67a26000000000000000000000000000000000000000000000000000000007bffffffffffffffffffffffffffffffffffffffffffffffffffffffff1916827bffffffffffffffffffffffffffffffffffffffffffffffffffffffff1916148061047857507f0e89341c000000000000000000000000000000000000000000000000000000007bffffffffffffffffffffffffffffffffffffffffffffffffffffffff1916827bffffffffffffffffffffffffffffffffffffffffffffffffffffffff1916145b80610488575061048782610883565b5b9050919050565b60606002805461049e9061232c565b80601f01602080910402602001604051908101604052809291908181526020018280546104ca9061232c565b80156105175780601f106104ec57610100808354040283529160200191610517565b820191906000526020600020905b8154815290600101906020018083116104fa57829003601f168201915b50505050509050919050565b600381565b610543338383604051806020016040528060008152506108ed565b5050565b61054f610a9e565b73ffffffffffffffffffffffffffffffffffffffff168573ffffffffffffffffffffffffffffffffffffffff16148061059557506105948561058f610a9e565b61072b565b5b6105d4576040517f08c379a00000000000000000000000000000000000000000000000000000000081526004016105cb90611fbd565b60405180910390fd5b6105e18585858585610aa6565b5050505050565b600081565b60608151835114610633576040517f08c379a000000000000000000000000000000000000000000000000000000000815260040161062a9061203d565b60405180910390fd5b6000835167ffffffffffffffff8111156106505761064f612465565b5b60405190808252806020026020018201604052801561067e5781602001602082028036833780820191505090505b50905060005b84518110156106fb576106cb8582815181106106a3576106a2612436565b5b60200260200101518583815181106106be576106bd612436565b5b60200260200101516102e4565b8282815181106106de576106dd612436565b5b602002602001018181525050806106f49061238f565b9050610684565b508091505092915050565b600481565b61071d610716610a9e565b8383610dc8565b5050565b600281565b600181565b6000600160008473ffffffffffffffffffffffffffffffffffffffff1673ffffffffffffffffffffffffffffffffffffffff16815260200190815260200160002060008373ffffffffffffffffffffffffffffffffffffffff1673ffffffffffffffffffffffffffffffffffffffff16815260200190815260200160002060009054906101000a900460ff16905092915050565b6107c7610a9e565b73ffffffffffffffffffffffffffffffffffffffff168573ffffffffffffffffffffffffffffffffffffffff16148061080d575061080c85610807610a9e565b61072b565b5b61084c576040517f08c379a000000000000000000000000000000000000000000000000000000000815260040161084390611fbd565b60405180910390fd5b6108598585858585610f35565b5050505050565b6000808273ffffffffffffffffffffffffffffffffffffffff163b119050919050565b60007f01ffc9a7000000000000000000000000000000000000000000000000000000007bffffffffffffffffffffffffffffffffffffffffffffffffffffffff1916827bffffffffffffffffffffffffffffffffffffffffffffffffffffffff1916149050919050565b600073ffffffffffffffffffffffffffffffffffffffff168473ffffffffffffffffffffffffffffffffffffffff16141561095d576040517f08c379a00000000000000000000000000000000000000000000000000000000081526004016109549061207d565b60405180910390fd5b6000610967610a9e565b90506000610974856111d1565b90506000610981856111d1565b90506109928360008985858961124b565b8460008088815260200190815260200160002060008973ffffffffffffffffffffffffffffffffffffffff1673ffffffffffffffffffffffffffffffffffffffff16815260200190815260200160002060008282546109f19190612220565b925050819055508673ffffffffffffffffffffffffffffffffffffffff16600073ffffffffffffffffffffffffffffffffffffffff168473ffffffffffffffffffffffffffffffffffffffff167fc3d58168c5ae7397731d063d5bbf3d657854427343f4c083240f7aacaa2d0f628989604051610a6f9291906120d8565b60405180910390a4610a8683600089858589611253565b610a958360008989898961125b565b50505050505050565b600033905090565b8151835114610aea576040517f08c379a0000000000000000000000000000000000000000000000000000000008152600401610ae19061205d565b60405180910390fd5b600073ffffffffffffffffffffffffffffffffffffffff168473ffffffffffffffffffffffffffffffffffffffff161415610b5a576040517f08c379a0000000000000000000000000000000000000000000000000000000008152600401610b5190611fdd565b60405180910390fd5b6000610b64610a9e565b9050610b7481878787878761124b565b60005b8451811015610d25576000858281518110610b9557610b94612436565b5b602002602001015190506000858381518110610bb457610bb3612436565b5b60200260200101519050600080600084815260200190815260200160002060008b73ffffffffffffffffffffffffffffffffffffffff1673ffffffffffffffffffffffffffffffffffffffff16815260200190815260200160002054905081811015610c55576040517f08c379a0000000000000000000000000000000000000000000000000000000008152600401610c4c90611ffd565b60405180910390fd5b81810360008085815260200190815260200160002060008c73ffffffffffffffffffffffffffffffffffffffff1673ffffffffffffffffffffffffffffffffffffffff168152602001908152602001600020819055508160008085815260200190815260200160002060008b73ffffffffffffffffffffffffffffffffffffffff1673ffffffffffffffffffffffffffffffffffffffff1681526020019081526020016000206000828254610d0a9190612220565b9250508190555050505080610d1e9061238f565b9050610b77565b508473ffffffffffffffffffffffffffffffffffffffff168673ffffffffffffffffffffffffffffffffffffffff168273ffffffffffffffffffffffffffffffffffffffff167f4a39dc06d4c0dbc64b70af90fd698a233a518aa5d07e595d983b8c0526c8f7fb8787604051610d9c929190611f09565b60405180910390a4610db2818787878787611253565b610dc0818787878787611442565b505050505050565b8173ffffffffffffffffffffffffffffffffffffffff168373ffffffffffffffffffffffffffffffffffffffff161415610e37576040517f08c379a0000000000000000000000000000000000000000000000000000000008152600401610e2e9061201d565b60405180910390fd5b80600160008573ffffffffffffffffffffffffffffffffffffffff1673ffffffffffffffffffffffffffffffffffffffff16815260200190815260200160002060008473ffffffffffffffffffffffffffffffffffffffff1673ffffffffffffffffffffffffffffffffffffffff16815260200190815260200160002060006101000a81548160ff0219169083151502179055508173ffffffffffffffffffffffffffffffffffffffff168373ffffffffffffffffffffffffffffffffffffffff167f17307eab39ab6107e8899845ad3d59bd9653f200f220920489ca2b5937696c3183604051610f289190611f40565b60405180910390a3505050565b600073ffffffffffffffffffffffffffffffffffffffff168473ffffffffffffffffffffffffffffffffffffffff161415610fa5576040517f08c379a0000000000000000000000000000000000000000000000000000000008152600401610f9c90611fdd565b60405180910390fd5b6000610faf610a9e565b90506000610fbc856111d1565b90506000610fc9856111d1565b9050610fd983898985858961124b565b600080600088815260200190815260200160002060008a73ffffffffffffffffffffffffffffffffffffffff1673ffffffffffffffffffffffffffffffffffffffff16815260200190815260200160002054905085811015611070576040517f08c379a000000000000000000000000000000000000000000000000000000000815260040161106790611ffd565b60405180910390fd5b85810360008089815260200190815260200160002060008b73ffffffffffffffffffffffffffffffffffffffff1673ffffffffffffffffffffffffffffffffffffffff168152602001908152602001600020819055508560008089815260200190815260200160002060008a73ffffffffffffffffffffffffffffffffffffffff1673ffffffffffffffffffffffffffffffffffffffff16815260200190815260200160002060008282546111259190612220565b925050819055508773ffffffffffffffffffffffffffffffffffffffff168973ffffffffffffffffffffffffffffffffffffffff168573ffffffffffffffffffffffffffffffffffffffff167fc3d58168c5ae7397731d063d5bbf3d657854427343f4c083240f7aacaa2d0f628a8a6040516111a29291906120d8565b60405180910390a46111b8848a8a86868a611253565b6111c6848a8a8a8a8a61125b565b505050505050505050565b60606000600167ffffffffffffffff8111156111f0576111ef612465565b5b60405190808252806020026020018201604052801561121e5781602001602082028036833780820191505090505b509050828160008151811061123657611235612436565b5b60200260200101818152505080915050919050565b505050505050565b505050505050565b61127a8473ffffffffffffffffffffffffffffffffffffffff16610860565b1561143a578373ffffffffffffffffffffffffffffffffffffffff1663f23a6e6187878686866040518663ffffffff1660e01b81526004016112c0959493929190611e8d565b602060405180830381600087803b1580156112da57600080fd5b505af192505050801561130b57506040513d601f19601f820116820180604052508101906113089190611b09565b60015b6113b157611317612494565b806308c379a01415611374575061132c612803565b806113375750611376565b806040517f08c379a000000000000000000000000000000000000000000000000000000000815260040161136b9190611f5b565b60405180910390fd5b505b6040517f08c379a00000000000000000000000000000000000000000000000000000000081526004016113a89061209d565b60405180910390fd5b63f23a6e6160e01b7bffffffffffffffffffffffffffffffffffffffffffffffffffffffff1916817bffffffffffffffffffffffffffffffffffffffffffffffffffffffff191614611438576040517f08c379a000000000000000000000000000000000000000000000000000000000815260040161142f90611f7d565b60405180910390fd5b505b505050505050565b6114618473ffffffffffffffffffffffffffffffffffffffff16610860565b15611621578373ffffffffffffffffffffffffffffffffffffffff1663bc197c8187878686866040518663ffffffff1660e01b81526004016114a7959493929190611e25565b602060405180830381600087803b1580156114c157600080fd5b505af19250505080156114f257506040513d601f19601f820116820180604052508101906114ef9190611b09565b60015b611598576114fe612494565b806308c379a0141561155b5750611513612803565b8061151e575061155d565b806040517f08c379a00000000000000000000000000000000000000000000000000000000081526004016115529190611f5b565b60405180910390fd5b505b6040517f08c379a000000000000000000000000000000000000000000000000000000000815260040161158f9061209d565b60405180910390fd5b63bc197c8160e01b7bffffffffffffffffffffffffffffffffffffffffffffffffffffffff1916817bffffffffffffffffffffffffffffffffffffffffffffffffffffffff19161461161f576040517f08c379a000000000000000000000000000000000000000000000000000000000815260040161161690611f7d565b60405180910390fd5b505b505050505050565b600061163c61163784612126565b612101565b9050808382526020820190508285602086028201111561165f5761165e6124bb565b5b60005b8581101561168f5781611675888261174b565b845260208401935060208301925050600181019050611662565b5050509392505050565b60006116ac6116a784612152565b612101565b905080838252602082019050828560208602820111156116cf576116ce6124bb565b5b60005b858110156116ff57816116e58882611829565b8452602084019350602083019250506001810190506116d2565b5050509392505050565b600061171c6117178461217e565b612101565b905082815260208101848484011115611738576117376124c0565b5b6117438482856122ea565b509392505050565b60008135905061175a81612899565b92915050565b600082601f830112611775576117746124b6565b5b8135611785848260208601611629565b91505092915050565b600082601f8301126117a3576117a26124b6565b5b81356117b3848260208601611699565b91505092915050565b6000813590506117cb816128b0565b92915050565b6000813590506117e0816128c7565b92915050565b6000815190506117f5816128c7565b92915050565b600082601f8301126118105761180f6124b6565b5b8135611820848260208601611709565b91505092915050565b600081359050611838816128de565b92915050565b60008060408385031215611855576118546124ca565b5b60006118638582860161174b565b92505060206118748582860161174b565b9150509250929050565b600080600080600060a0868803121561189a576118996124ca565b5b60006118a88882890161174b565b95505060206118b98882890161174b565b945050604086013567ffffffffffffffff8111156118da576118d96124c5565b5b6118e68882890161178e565b935050606086013567ffffffffffffffff811115611907576119066124c5565b5b6119138882890161178e565b925050608086013567ffffffffffffffff811115611934576119336124c5565b5b611940888289016117fb565b9150509295509295909350565b600080600080600060a08688031215611969576119686124ca565b5b60006119778882890161174b565b95505060206119888882890161174b565b945050604061199988828901611829565b93505060606119aa88828901611829565b925050608086013567ffffffffffffffff8111156119cb576119ca6124c5565b5b6119d7888289016117fb565b9150509295509295909350565b600080604083850312156119fb576119fa6124ca565b5b6000611a098582860161174b565b9250506020611a1a858286016117bc565b9150509250929050565b60008060408385031215611a3b57611a3a6124ca565b5b6000611a498582860161174b565b9250506020611a5a85828601611829565b9150509250929050565b60008060408385031215611a7b57611a7a6124ca565b5b600083013567ffffffffffffffff811115611a9957611a986124c5565b5b611aa585828601611760565b925050602083013567ffffffffffffffff811115611ac657611ac56124c5565b5b611ad28582860161178e565b9150509250929050565b600060208284031215611af257611af16124ca565b5b6000611b00848285016117d1565b91505092915050565b600060208284031215611b1f57611b1e6124ca565b5b6000611b2d848285016117e6565b91505092915050565b600060208284031215611b4c57611b4b6124ca565b5b6000611b5a84828501611829565b91505092915050565b60008060408385031215611b7a57611b796124ca565b5b6000611b8885828601611829565b9250506020611b9985828601611829565b9150509250929050565b6000611baf8383611e07565b60208301905092915050565b611bc481612276565b82525050565b6000611bd5826121bf565b611bdf81856121ed565b9350611bea836121af565b8060005b83811015611c1b578151611c028882611ba3565b9750611c0d836121e0565b925050600181019050611bee565b5085935050505092915050565b611c3181612288565b82525050565b6000611c42826121ca565b611c4c81856121fe565b9350611c5c8185602086016122f9565b611c65816124cf565b840191505092915050565b6000611c7b826121d5565b611c85818561220f565b9350611c958185602086016122f9565b611c9e816124cf565b840191505092915050565b6000611cb660288361220f565b9150611cc1826124ed565b604082019050919050565b6000611cd9602a8361220f565b9150611ce48261253c565b604082019050919050565b6000611cfc602e8361220f565b9150611d078261258b565b604082019050919050565b6000611d1f60258361220f565b9150611d2a826125da565b604082019050919050565b6000611d42602a8361220f565b9150611d4d82612629565b604082019050919050565b6000611d6560298361220f565b9150611d7082612678565b604082019050919050565b6000611d8860298361220f565b9150611d93826126c7565b604082019050919050565b6000611dab60288361220f565b9150611db682612716565b604082019050919050565b6000611dce60218361220f565b9150611dd982612765565b604082019050919050565b6000611df160348361220f565b9150611dfc826127b4565b604082019050919050565b611e10816122e0565b82525050565b611e1f816122e0565b82525050565b600060a082019050611e3a6000830188611bbb565b611e476020830187611bbb565b8181036040830152611e598186611bca565b90508181036060830152611e6d8185611bca565b90508181036080830152611e818184611c37565b90509695505050505050565b600060a082019050611ea26000830188611bbb565b611eaf6020830187611bbb565b611ebc6040830186611e16565b611ec96060830185611e16565b8181036080830152611edb8184611c37565b90509695505050505050565b60006020820190508181036000830152611f018184611bca565b905092915050565b60006040820190508181036000830152611f238185611bca565b90508181036020830152611f378184611bca565b90509392505050565b6000602082019050611f556000830184611c28565b92915050565b60006020820190508181036000830152611f758184611c70565b905092915050565b60006020820190508181036000830152611f9681611ca9565b9050919050565b60006020820190508181036000830152611fb681611ccc565b9050919050565b60006020820190508181036000830152611fd681611cef565b9050919050565b60006020820190508181036000830152611ff681611d12565b9050919050565b6000602082019050818103600083015261201681611d35565b9050919050565b6000602082019050818103600083015261203681611d58565b9050919050565b6000602082019050818103600083015261205681611d7b565b9050919050565b6000602082019050818103600083015261207681611d9e565b9050919050565b6000602082019050818103600083015261209681611dc1565b9050919050565b600060208201905081810360008301526120b681611de4565b9050919050565b60006020820190506120d26000830184611e16565b92915050565b60006040820190506120ed6000830185611e16565b6120fa6020830184611e16565b9392505050565b600061210b61211c565b9050612117828261235e565b919050565b6000604051905090565b600067ffffffffffffffff82111561214157612140612465565b5b602082029050602081019050919050565b600067ffffffffffffffff82111561216d5761216c612465565b5b602082029050602081019050919050565b600067ffffffffffffffff82111561219957612198612465565b5b6121a2826124cf565b9050602081019050919050565b6000819050602082019050919050565b600081519050919050565b600081519050919050565b600081519050919050565b6000602082019050919050565b600082825260208201905092915050565b600082825260208201905092915050565b600082825260208201905092915050565b600061222b826122e0565b9150612236836122e0565b9250827fffffffffffffffffffffffffffffffffffffffffffffffffffffffffffffffff0382111561226b5761226a6123d8565b5b828201905092915050565b6000612281826122c0565b9050919050565b60008115159050919050565b60007fffffffff0000000000000000000000000000000000000000000000000000000082169050919050565b600073ffffffffffffffffffffffffffffffffffffffff82169050919050565b6000819050919050565b82818337600083830152505050565b60005b838110156123175780820151818401526020810190506122fc565b83811115612326576000848401525b50505050565b6000600282049050600182168061234457607f821691505b6020821081141561235857612357612407565b5b50919050565b612367826124cf565b810181811067ffffffffffffffff8211171561238657612385612465565b5b80604052505050565b600061239a826122e0565b91507fffffffffffffffffffffffffffffffffffffffffffffffffffffffffffffffff8214156123cd576123cc6123d8565b5b600182019050919050565b7f4e487b7100000000000000000000000000000000000000000000000000000000600052601160045260246000fd5b7f4e487b7100000000000000000000000000000000000000000000000000000000600052602260045260246000fd5b7f4e487b7100000000000000000000000000000000000000000000000000000000600052603260045260246000fd5b7f4e487b7100000000000000000000000000000000000000000000000000000000600052604160045260246000fd5b600060033d11156124b35760046000803e6124b06000516124e0565b90505b90565b600080fd5b600080fd5b600080fd5b600080fd5b600080fd5b6000601f19601f8301169050919050565b60008160e01c9050919050565b7f455243313135353a204552433131353552656365697665722072656a6563746560008201527f6420746f6b656e73000000000000000000000000000000000000000000000000602082015250565b7f455243313135353a2061646472657373207a65726f206973206e6f742061207660008201527f616c6964206f776e657200000000000000000000000000000000000000000000602082015250565b7f455243313135353a2063616c6c6572206973206e6f7420746f6b656e206f776e60008201527f6572206f7220617070726f766564000000000000000000000000000000000000602082015250565b7f455243313135353a207472616e7366657220746f20746865207a65726f20616460008201527f6472657373000000000000000000000000000000000000000000000000000000602082015250565b7f455243313135353a20696e73756666696369656e742062616c616e636520666f60008201527f72207472616e7366657200000000000000000000000000000000000000000000602082015250565b7f455243313135353a2073657474696e6720617070726f76616c2073746174757360008201527f20666f722073656c660000000000000000000000000000000000000000000000602082015250565b7f455243313135353a206163636f756e747320616e6420696473206c656e67746860008201527f206d69736d617463680000000000000000000000000000000000000000000000602082015250565b7f455243313135353a2069647320616e6420616d6f756e7473206c656e6774682060008201527f6d69736d61746368000000000000000000000000000000000000000000000000602082015250565b7f455243313135353a206d696e7420746f20746865207a65726f2061646472657360008201527f7300000000000000000000000000000000000000000000000000000000000000602082015250565b7f455243313135353a207472616e7366657220746f206e6f6e2d4552433131353560008201527f526563656976657220696d706c656d656e746572000000000000000000000000602082015250565b600060443d101561281357612896565b61281b61211c565b60043d036004823e80513d602482011167ffffffffffffffff82111715612843575050612896565b808201805167ffffffffffffffff8111156128615750505050612896565b80602083010160043d03850181111561287e575050505050612896565b61288d8260200185018661235e565b82955050505050505b90565b6128a281612276565b81146128ad57600080fd5b50565b6128b981612288565b81146128c457600080fd5b50565b6128d081612294565b81146128db57600080fd5b50565b6128e7816122e0565b81146128f257600080fd5b5056fea26469706673582212207846d580695c149cefd55ffa743cdb37236a6848a020cfa6ec42d6def6c9d52164736f6c6343000807003368747470733a2f2f67616d652e6578616d706c652f6170692f6974656d2f7b69647d2e6a736f6e",
  "immutableReferences": {},
  "source": "// contracts/GameItems.sol\r\n// SPDX-License-Identifier: MIT\r\npragma solidity ^0.8.0;\r\n\r\nimport \"@openzeppelin/contracts/token/ERC1155/ERC1155.sol\";\r\n\r\ncontract GameItems is ERC1155 {\r\n    uint256 public constant GOLD = 0;\r\n    uint256 public constant SILVER = 1;\r\n    uint256 public constant THORS_HAMMER = 2;\r\n    uint256 public constant SWORD = 3;\r\n    uint256 public constant SHIELD = 4;\r\n\r\n    constructor() public ERC1155(\"https://game.example/api/item/{id}.json\") {\r\n        _mint(msg.sender, GOLD, 1, \"\");\r\n        _mint(msg.sender, SILVER, 1, \"\");\r\n        _mint(msg.sender, THORS_HAMMER, 1, \"\");\r\n        _mint(msg.sender, SWORD, 1, \"\");\r\n        _mint(msg.sender, SHIELD, 1, \"\");\r\n    }\r\n    function mint(uint collectionId,uint tokenAmount)public {\r\n        _mint(msg.sender,collectionId,tokenAmount,\"\");\r\n    }\r\n}",
  "sourcePath": "E:\\Umar Khatab\\Projects\\connective_nft_ice\\backend\\contracts\\GameItems.sol",
  "compiler": {
    "name": "solc",
    "version": "0.8.7+commit.e28d00a7.Emscripten.clang"
  },
  "schemaVersion": "3.4.12",
  "updatedAt": "2023-03-27T12:20:58.364Z",
  "devdoc": {
    "kind": "dev",
    "methods": {
      "balanceOf(address,uint256)": {
        "details": "See {IERC1155-balanceOf}. Requirements: - `account` cannot be the zero address."
      },
      "balanceOfBatch(address[],uint256[])": {
        "details": "See {IERC1155-balanceOfBatch}. Requirements: - `accounts` and `ids` must have the same length."
      },
      "isApprovedForAll(address,address)": {
        "details": "See {IERC1155-isApprovedForAll}."
      },
      "safeBatchTransferFrom(address,address,uint256[],uint256[],bytes)": {
        "details": "See {IERC1155-safeBatchTransferFrom}."
      },
      "safeTransferFrom(address,address,uint256,uint256,bytes)": {
        "details": "See {IERC1155-safeTransferFrom}."
      },
      "setApprovalForAll(address,bool)": {
        "details": "See {IERC1155-setApprovalForAll}."
      },
      "supportsInterface(bytes4)": {
        "details": "See {IERC165-supportsInterface}."
      },
      "uri(uint256)": {
        "details": "See {IERC1155MetadataURI-uri}. This implementation returns the same URI for *all* token types. It relies on the token type ID substitution mechanism https://eips.ethereum.org/EIPS/eip-1155#metadata[defined in the EIP]. Clients calling this function must replace the `\\{id\\}` substring with the actual token type ID."
      }
    },
    "version": 1
  },
  "userdoc": {
    "kind": "user",
    "methods": {},
    "version": 1
  }
}