{
  "contractName": "MyToken",
  "abi": [
    {
      "inputs": [],
      "stateMutability": "nonpayable",
      "type": "constructor"
    },
    {
      "anonymous": false,
      "inputs": [
        {
          "indexed": true,
          "internalType": "address",
          "name": "owner",
          "type": "address"
        },
        {
          "indexed": true,
          "internalType": "address",
          "name": "approved",
          "type": "address"
        },
        {
          "indexed": true,
          "internalType": "uint256",
          "name": "tokenId",
          "type": "uint256"
        }
      ],
      "name": "Approval",
      "type": "event"
    },
    {
      "anonymous": false,
      "inputs": [
        {
          "indexed": true,
          "internalType": "address",
          "name": "owner",
          "type": "address"
        },
        {
          "indexed": true,
          "internalType": "address",
          "name": "operator",
          "type": "address"
        },
        {
          "indexed": false,
          "internalType": "bool",
          "name": "approved",
          "type": "bool"
        }
      ],
      "name": "ApprovalForAll",
      "type": "event"
    },
    {
      "anonymous": false,
      "inputs": [
        {
          "indexed": true,
          "internalType": "address",
          "name": "from",
          "type": "address"
        },
        {
          "indexed": true,
          "internalType": "address",
          "name": "to",
          "type": "address"
        },
        {
          "indexed": true,
          "internalType": "uint256",
          "name": "tokenId",
          "type": "uint256"
        }
      ],
      "name": "Transfer",
      "type": "event"
    },
    {
      "inputs": [
        {
          "internalType": "address",
          "name": "to",
          "type": "address"
        },
        {
          "internalType": "uint256",
          "name": "tokenId",
          "type": "uint256"
        }
      ],
      "name": "approve",
      "outputs": [],
      "stateMutability": "nonpayable",
      "type": "function"
    },
    {
      "inputs": [
        {
          "internalType": "address",
          "name": "owner",
          "type": "address"
        }
      ],
      "name": "balanceOf",
      "outputs": [
        {
          "internalType": "uint256",
          "name": "",
          "type": "uint256"
        }
      ],
      "stateMutability": "view",
      "type": "function"
    },
    {
      "inputs": [
        {
          "internalType": "uint256",
          "name": "tokenId",
          "type": "uint256"
        }
      ],
      "name": "getApproved",
      "outputs": [
        {
          "internalType": "address",
          "name": "",
          "type": "address"
        }
      ],
      "stateMutability": "view",
      "type": "function"
    },
    {
      "inputs": [
        {
          "internalType": "address",
          "name": "owner",
          "type": "address"
        },
        {
          "internalType": "address",
          "name": "operator",
          "type": "address"
        }
      ],
      "name": "isApprovedForAll",
      "outputs": [
        {
          "internalType": "bool",
          "name": "",
          "type": "bool"
        }
      ],
      "stateMutability": "view",
      "type": "function"
    },
    {
      "inputs": [],
      "name": "name",
      "outputs": [
        {
          "internalType": "string",
          "name": "",
          "type": "string"
        }
      ],
      "stateMutability": "view",
      "type": "function"
    },
    {
      "inputs": [
        {
          "internalType": "uint256",
          "name": "tokenId",
          "type": "uint256"
        }
      ],
      "name": "ownerOf",
      "outputs": [
        {
          "internalType": "address",
          "name": "",
          "type": "address"
        }
      ],
      "stateMutability": "view",
      "type": "function"
    },
    {
      "inputs": [
        {
          "internalType": "address",
          "name": "from",
          "type": "address"
        },
        {
          "internalType": "address",
          "name": "to",
          "type": "address"
        },
        {
          "internalType": "uint256",
          "name": "tokenId",
          "type": "uint256"
        }
      ],
      "name": "safeTransferFrom",
      "outputs": [],
      "stateMutability": "nonpayable",
      "type": "function"
    },
    {
      "inputs": [
        {
          "internalType": "address",
          "name": "from",
          "type": "address"
        },
        {
          "internalType": "address",
          "name": "to",
          "type": "address"
        },
        {
          "internalType": "uint256",
          "name": "tokenId",
          "type": "uint256"
        },
        {
          "internalType": "bytes",
          "name": "data",
          "type": "bytes"
        }
      ],
      "name": "safeTransferFrom",
      "outputs": [],
      "stateMutability": "nonpayable",
      "type": "function"
    },
    {
      "inputs": [
        {
          "internalType": "address",
          "name": "operator",
          "type": "address"
        },
        {
          "internalType": "bool",
          "name": "approved",
          "type": "bool"
        }
      ],
      "name": "setApprovalForAll",
      "outputs": [],
      "stateMutability": "nonpayable",
      "type": "function"
    },
    {
      "inputs": [
        {
          "internalType": "bytes4",
          "name": "interfaceId",
          "type": "bytes4"
        }
      ],
      "name": "supportsInterface",
      "outputs": [
        {
          "internalType": "bool",
          "name": "",
          "type": "bool"
        }
      ],
      "stateMutability": "view",
      "type": "function"
    },
    {
      "inputs": [],
      "name": "symbol",
      "outputs": [
        {
          "internalType": "string",
          "name": "",
          "type": "string"
        }
      ],
      "stateMutability": "view",
      "type": "function"
    },
    {
      "inputs": [
        {
          "internalType": "uint256",
          "name": "tokenId",
          "type": "uint256"
        }
      ],
      "name": "tokenURI",
      "outputs": [
        {
          "internalType": "string",
          "name": "",
          "type": "string"
        }
      ],
      "stateMutability": "view",
      "type": "function"
    },
    {
      "inputs": [
        {
          "internalType": "address",
          "name": "from",
          "type": "address"
        },
        {
          "internalType": "address",
          "name": "to",
          "type": "address"
        },
        {
          "internalType": "uint256",
          "name": "tokenId",
          "type": "uint256"
        }
      ],
      "name": "transferFrom",
      "outputs": [],
      "stateMutability": "nonpayable",
      "type": "function"
    },
    {
      "inputs": [
        {
          "internalType": "address",
          "name": "to",
          "type": "address"
        },
        {
          "internalType": "uint256",
          "name": "tokenId",
          "type": "uint256"
        }
      ],
      "name": "mint",
      "outputs": [],
      "stateMutability": "nonpayable",
      "type": "function"
    }
  ],
  "bytecode": "0x60806040523480156200001157600080fd5b506040518060400160405280600781526020017f4d79546f6b656e000000000000000000000000000000000000000000000000008152506040518060400160405280600381526020017f4d544b0000000000000000000000000000000000000000000000000000000000815250816000908051906020019062000096929190620000b8565b508060019080519060200190620000af929190620000b8565b505050620001cd565b828054620000c69062000168565b90600052602060002090601f016020900481019282620000ea576000855562000136565b82601f106200010557805160ff191683800117855562000136565b8280016001018555821562000136579182015b828111156200013557825182559160200191906001019062000118565b5b50905062000145919062000149565b5090565b5b80821115620001645760008160009055506001016200014a565b5090565b600060028204905060018216806200018157607f821691505b602082108114156200019857620001976200019e565b5b50919050565b7f4e487b7100000000000000000000000000000000000000000000000000000000600052602260045260246000fd5b61248480620001dd6000396000f3fe608060405234801561001057600080fd5b50600436106100ea5760003560e01c80636352211e1161008c578063a22cb46511610066578063a22cb4651461025b578063b88d4fde14610277578063c87b56dd14610293578063e985e9c5146102c3576100ea565b80636352211e146101dd57806370a082311461020d57806395d89b411461023d576100ea565b8063095ea7b3116100c8578063095ea7b31461016d57806323b872dd1461018957806340c10f19146101a557806342842e0e146101c1576100ea565b806301ffc9a7146100ef57806306fdde031461011f578063081812fc1461013d575b600080fd5b610109600480360381019061010491906119a6565b6102f3565b6040516101169190611d09565b60405180910390f35b6101276103d5565b6040516101349190611d24565b60405180910390f35b61015760048036038101906101529190611a00565b610467565b6040516101649190611ca2565b60405180910390f35b61018760048036038101906101829190611966565b6104ad565b005b6101a3600480360381019061019e9190611850565b6105c5565b005b6101bf60048036038101906101ba9190611966565b610625565b005b6101db60048036038101906101d69190611850565b610633565b005b6101f760048036038101906101f29190611a00565b610653565b6040516102049190611ca2565b60405180910390f35b610227600480360381019061022291906117e3565b6106da565b6040516102349190611ea6565b60405180910390f35b610245610792565b6040516102529190611d24565b60405180910390f35b61027560048036038101906102709190611926565b610824565b005b610291600480360381019061028c91906118a3565b61083a565b005b6102ad60048036038101906102a89190611a00565b61089c565b6040516102ba9190611d24565b60405180910390f35b6102dd60048036038101906102d89190611810565b610904565b6040516102ea9190611d09565b60405180910390f35b60007f80ac58cd000000000000000000000000000000000000000000000000000000007bffffffffffffffffffffffffffffffffffffffffffffffffffffffff1916827bffffffffffffffffffffffffffffffffffffffffffffffffffffffff191614806103be57507f5b5e139f000000000000000000000000000000000000000000000000000000007bffffffffffffffffffffffffffffffffffffffffffffffffffffffff1916827bffffffffffffffffffffffffffffffffffffffffffffffffffffffff1916145b806103ce57506103cd82610998565b5b9050919050565b6060600080546103e490612010565b80601f016020809104026020016040519081016040528092919081815260200182805461041090612010565b801561045d5780601f106104325761010080835404028352916020019161045d565b820191906000526020600020905b81548152906001019060200180831161044057829003601f168201915b5050505050905090565b600061047282610a02565b6004600083815260200190815260200160002060009054906101000a900473ffffffffffffffffffffffffffffffffffffffff169050919050565b60006104b882610653565b90508073ffffffffffffffffffffffffffffffffffffffff168373ffffffffffffffffffffffffffffffffffffffff161415610529576040517f08c379a000000000000000000000000000000000000000000000000000000000815260040161052090611e66565b60405180910390fd5b8073ffffffffffffffffffffffffffffffffffffffff16610548610a4d565b73ffffffffffffffffffffffffffffffffffffffff161480610577575061057681610571610a4d565b610904565b5b6105b6576040517f08c379a00000000000000000000000000000000000000000000000000000000081526004016105ad90611e86565b60405180910390fd5b6105c08383610a55565b505050565b6105d66105d0610a4d565b82610b0e565b610615576040517f08c379a000000000000000000000000000000000000000000000000000000000815260040161060c90611d46565b60405180910390fd5b610620838383610ba3565b505050565b61062f8282610e9d565b5050565b61064e8383836040518060200160405280600081525061083a565b505050565b60008061065f836110bb565b9050600073ffffffffffffffffffffffffffffffffffffffff168173ffffffffffffffffffffffffffffffffffffffff1614156106d1576040517f08c379a00000000000000000000000000000000000000000000000000000000081526004016106c890611e46565b60405180910390fd5b80915050919050565b60008073ffffffffffffffffffffffffffffffffffffffff168273ffffffffffffffffffffffffffffffffffffffff16141561074b576040517f08c379a000000000000000000000000000000000000000000000000000000000815260040161074290611e06565b60405180910390fd5b600360008373ffffffffffffffffffffffffffffffffffffffff1673ffffffffffffffffffffffffffffffffffffffff168152602001908152602001600020549050919050565b6060600180546107a190612010565b80601f01602080910402602001604051908101604052809291908181526020018280546107cd90612010565b801561081a5780601f106107ef5761010080835404028352916020019161081a565b820191906000526020600020905b8154815290600101906020018083116107fd57829003601f168201915b5050505050905090565b61083661082f610a4d565b83836110f8565b5050565b61084b610845610a4d565b83610b0e565b61088a576040517f08c379a000000000000000000000000000000000000000000000000000000000815260040161088190611d46565b60405180910390fd5b61089684848484611265565b50505050565b60606108a782610a02565b60006108b16112c1565b905060008151116108d157604051806020016040528060008152506108fc565b806108db846112d8565b6040516020016108ec929190611c7e565b6040516020818303038152906040525b915050919050565b6000600560008473ffffffffffffffffffffffffffffffffffffffff1673ffffffffffffffffffffffffffffffffffffffff16815260200190815260200160002060008373ffffffffffffffffffffffffffffffffffffffff1673ffffffffffffffffffffffffffffffffffffffff16815260200190815260200160002060009054906101000a900460ff16905092915050565b60007f01ffc9a7000000000000000000000000000000000000000000000000000000007bffffffffffffffffffffffffffffffffffffffffffffffffffffffff1916827bffffffffffffffffffffffffffffffffffffffffffffffffffffffff1916149050919050565b610a0b816113b0565b610a4a576040517f08c379a0000000000000000000000000000000000000000000000000000000008152600401610a4190611e46565b60405180910390fd5b50565b600033905090565b816004600083815260200190815260200160002060006101000a81548173ffffffffffffffffffffffffffffffffffffffff021916908373ffffffffffffffffffffffffffffffffffffffff160217905550808273ffffffffffffffffffffffffffffffffffffffff16610ac883610653565b73ffffffffffffffffffffffffffffffffffffffff167f8c5be1e5ebec7d5bd14f71427d1e84f3dd0314c0f7b2291e5b200ac8c7c3b92560405160405180910390a45050565b600080610b1a83610653565b90508073ffffffffffffffffffffffffffffffffffffffff168473ffffffffffffffffffffffffffffffffffffffff161480610b5c5750610b5b8185610904565b5b80610b9a57508373ffffffffffffffffffffffffffffffffffffffff16610b8284610467565b73ffffffffffffffffffffffffffffffffffffffff16145b91505092915050565b8273ffffffffffffffffffffffffffffffffffffffff16610bc382610653565b73ffffffffffffffffffffffffffffffffffffffff1614610c19576040517f08c379a0000000000000000000000000000000000000000000000000000000008152600401610c1090611d86565b60405180910390fd5b600073ffffffffffffffffffffffffffffffffffffffff168273ffffffffffffffffffffffffffffffffffffffff161415610c89576040517f08c379a0000000000000000000000000000000000000000000000000000000008152600401610c8090611dc6565b60405180910390fd5b610c9683838360016113f1565b8273ffffffffffffffffffffffffffffffffffffffff16610cb682610653565b73ffffffffffffffffffffffffffffffffffffffff1614610d0c576040517f08c379a0000000000000000000000000000000000000000000000000000000008152600401610d0390611d86565b60405180910390fd5b6004600082815260200190815260200160002060006101000a81549073ffffffffffffffffffffffffffffffffffffffff02191690556001600360008573ffffffffffffffffffffffffffffffffffffffff1673ffffffffffffffffffffffffffffffffffffffff168152602001908152602001600020600082825403925050819055506001600360008473ffffffffffffffffffffffffffffffffffffffff1673ffffffffffffffffffffffffffffffffffffffff16815260200190815260200160002060008282540192505081905550816002600083815260200190815260200160002060006101000a81548173ffffffffffffffffffffffffffffffffffffffff021916908373ffffffffffffffffffffffffffffffffffffffff160217905550808273ffffffffffffffffffffffffffffffffffffffff168473ffffffffffffffffffffffffffffffffffffffff167fddf252ad1be2c89b69c2b068fc378daa952ba7f163c4a11628f55a4df523b3ef60405160405180910390a4610e9883838360016113f7565b505050565b600073ffffffffffffffffffffffffffffffffffffffff168273ffffffffffffffffffffffffffffffffffffffff161415610f0d576040517f08c379a0000000000000000000000000000000000000000000000000000000008152600401610f0490611e26565b60405180910390fd5b610f16816113b0565b15610f56576040517f08c379a0000000000000000000000000000000000000000000000000000000008152600401610f4d90611da6565b60405180910390fd5b610f646000838360016113f1565b610f6d816113b0565b15610fad576040517f08c379a0000000000000000000000000000000000000000000000000000000008152600401610fa490611da6565b60405180910390fd5b6001600360008473ffffffffffffffffffffffffffffffffffffffff1673ffffffffffffffffffffffffffffffffffffffff16815260200190815260200160002060008282540192505081905550816002600083815260200190815260200160002060006101000a81548173ffffffffffffffffffffffffffffffffffffffff021916908373ffffffffffffffffffffffffffffffffffffffff160217905550808273ffffffffffffffffffffffffffffffffffffffff16600073ffffffffffffffffffffffffffffffffffffffff167fddf252ad1be2c89b69c2b068fc378daa952ba7f163c4a11628f55a4df523b3ef60405160405180910390a46110b76000838360016113f7565b5050565b60006002600083815260200190815260200160002060009054906101000a900473ffffffffffffffffffffffffffffffffffffffff169050919050565b8173ffffffffffffffffffffffffffffffffffffffff168373ffffffffffffffffffffffffffffffffffffffff161415611167576040517f08c379a000000000000000000000000000000000000000000000000000000000815260040161115e90611de6565b60405180910390fd5b80600560008573ffffffffffffffffffffffffffffffffffffffff1673ffffffffffffffffffffffffffffffffffffffff16815260200190815260200160002060008473ffffffffffffffffffffffffffffffffffffffff1673ffffffffffffffffffffffffffffffffffffffff16815260200190815260200160002060006101000a81548160ff0219169083151502179055508173ffffffffffffffffffffffffffffffffffffffff168373ffffffffffffffffffffffffffffffffffffffff167f17307eab39ab6107e8899845ad3d59bd9653f200f220920489ca2b5937696c31836040516112589190611d09565b60405180910390a3505050565b611270848484610ba3565b61127c848484846113fd565b6112bb576040517f08c379a00000000000000000000000000000000000000000000000000000000081526004016112b290611d66565b60405180910390fd5b50505050565b606060405180602001604052806000815250905090565b6060600060016112e784611594565b01905060008167ffffffffffffffff811115611306576113056120d1565b5b6040519080825280601f01601f1916602001820160405280156113385781602001600182028036833780820191505090505b509050600082602001820190505b6001156113a5578080600190039150507f3031323334353637383961626364656600000000000000000000000000000000600a86061a8153600a858161138f5761138e612073565b5b04945060008514156113a0576113a5565b611346565b819350505050919050565b60008073ffffffffffffffffffffffffffffffffffffffff166113d2836110bb565b73ffffffffffffffffffffffffffffffffffffffff1614159050919050565b50505050565b50505050565b600061141e8473ffffffffffffffffffffffffffffffffffffffff166116e7565b15611587578373ffffffffffffffffffffffffffffffffffffffff1663150b7a02611447610a4d565b8786866040518563ffffffff1660e01b81526004016114699493929190611cbd565b602060405180830381600087803b15801561148357600080fd5b505af19250505080156114b457506040513d601f19601f820116820180604052508101906114b191906119d3565b60015b611537573d80600081146114e4576040519150601f19603f3d011682016040523d82523d6000602084013e6114e9565b606091505b5060008151141561152f576040517f08c379a000000000000000000000000000000000000000000000000000000000815260040161152690611d66565b60405180910390fd5b805181602001fd5b63150b7a0260e01b7bffffffffffffffffffffffffffffffffffffffffffffffffffffffff1916817bffffffffffffffffffffffffffffffffffffffffffffffffffffffff19161491505061158c565b600190505b949350505050565b600080600090507a184f03e93ff9f4daa797ed6e38ed64bf6a1f01000000000000000083106115f2577a184f03e93ff9f4daa797ed6e38ed64bf6a1f01000000000000000083816115e8576115e7612073565b5b0492506040810190505b6d04ee2d6d415b85acef8100000000831061162f576d04ee2d6d415b85acef8100000000838161162557611624612073565b5b0492506020810190505b662386f26fc10000831061165e57662386f26fc10000838161165457611653612073565b5b0492506010810190505b6305f5e1008310611687576305f5e100838161167d5761167c612073565b5b0492506008810190505b61271083106116ac5761271083816116a2576116a1612073565b5b0492506004810190505b606483106116cf57606483816116c5576116c4612073565b5b0492506002810190505b600a83106116de576001810190505b80915050919050565b6000808273ffffffffffffffffffffffffffffffffffffffff163b119050919050565b600061171d61171884611ee6565b611ec1565b90508281526020810184848401111561173957611738612105565b5b611744848285611fce565b509392505050565b60008135905061175b816123f2565b92915050565b60008135905061177081612409565b92915050565b60008135905061178581612420565b92915050565b60008151905061179a81612420565b92915050565b600082601f8301126117b5576117b4612100565b5b81356117c584826020860161170a565b91505092915050565b6000813590506117dd81612437565b92915050565b6000602082840312156117f9576117f861210f565b5b60006118078482850161174c565b91505092915050565b600080604083850312156118275761182661210f565b5b60006118358582860161174c565b92505060206118468582860161174c565b9150509250929050565b6000806000606084860312156118695761186861210f565b5b60006118778682870161174c565b93505060206118888682870161174c565b9250506040611899868287016117ce565b9150509250925092565b600080600080608085870312156118bd576118bc61210f565b5b60006118cb8782880161174c565b94505060206118dc8782880161174c565b93505060406118ed878288016117ce565b925050606085013567ffffffffffffffff81111561190e5761190d61210a565b5b61191a878288016117a0565b91505092959194509250565b6000806040838503121561193d5761193c61210f565b5b600061194b8582860161174c565b925050602061195c85828601611761565b9150509250929050565b6000806040838503121561197d5761197c61210f565b5b600061198b8582860161174c565b925050602061199c858286016117ce565b9150509250929050565b6000602082840312156119bc576119bb61210f565b5b60006119ca84828501611776565b91505092915050565b6000602082840312156119e9576119e861210f565b5b60006119f78482850161178b565b91505092915050565b600060208284031215611a1657611a1561210f565b5b6000611a24848285016117ce565b91505092915050565b611a3681611f5a565b82525050565b611a4581611f6c565b82525050565b6000611a5682611f17565b611a608185611f2d565b9350611a70818560208601611fdd565b611a7981612114565b840191505092915050565b6000611a8f82611f22565b611a998185611f3e565b9350611aa9818560208601611fdd565b611ab281612114565b840191505092915050565b6000611ac882611f22565b611ad28185611f4f565b9350611ae2818560208601611fdd565b80840191505092915050565b6000611afb602d83611f3e565b9150611b0682612125565b604082019050919050565b6000611b1e603283611f3e565b9150611b2982612174565b604082019050919050565b6000611b41602583611f3e565b9150611b4c826121c3565b604082019050919050565b6000611b64601c83611f3e565b9150611b6f82612212565b602082019050919050565b6000611b87602483611f3e565b9150611b928261223b565b604082019050919050565b6000611baa601983611f3e565b9150611bb58261228a565b602082019050919050565b6000611bcd602983611f3e565b9150611bd8826122b3565b604082019050919050565b6000611bf0602083611f3e565b9150611bfb82612302565b602082019050919050565b6000611c13601883611f3e565b9150611c1e8261232b565b602082019050919050565b6000611c36602183611f3e565b9150611c4182612354565b604082019050919050565b6000611c59603d83611f3e565b9150611c64826123a3565b604082019050919050565b611c7881611fc4565b82525050565b6000611c8a8285611abd565b9150611c968284611abd565b91508190509392505050565b6000602082019050611cb76000830184611a2d565b92915050565b6000608082019050611cd26000830187611a2d565b611cdf6020830186611a2d565b611cec6040830185611c6f565b8181036060830152611cfe8184611a4b565b905095945050505050565b6000602082019050611d1e6000830184611a3c565b92915050565b60006020820190508181036000830152611d3e8184611a84565b905092915050565b60006020820190508181036000830152611d5f81611aee565b9050919050565b60006020820190508181036000830152611d7f81611b11565b9050919050565b60006020820190508181036000830152611d9f81611b34565b9050919050565b60006020820190508181036000830152611dbf81611b57565b9050919050565b60006020820190508181036000830152611ddf81611b7a565b9050919050565b60006020820190508181036000830152611dff81611b9d565b9050919050565b60006020820190508181036000830152611e1f81611bc0565b9050919050565b60006020820190508181036000830152611e3f81611be3565b9050919050565b60006020820190508181036000830152611e5f81611c06565b9050919050565b60006020820190508181036000830152611e7f81611c29565b9050919050565b60006020820190508181036000830152611e9f81611c4c565b9050919050565b6000602082019050611ebb6000830184611c6f565b92915050565b6000611ecb611edc565b9050611ed78282612042565b919050565b6000604051905090565b600067ffffffffffffffff821115611f0157611f006120d1565b5b611f0a82612114565b9050602081019050919050565b600081519050919050565b600081519050919050565b600082825260208201905092915050565b600082825260208201905092915050565b600081905092915050565b6000611f6582611fa4565b9050919050565b60008115159050919050565b60007fffffffff0000000000000000000000000000000000000000000000000000000082169050919050565b600073ffffffffffffffffffffffffffffffffffffffff82169050919050565b6000819050919050565b82818337600083830152505050565b60005b83811015611ffb578082015181840152602081019050611fe0565b8381111561200a576000848401525b50505050565b6000600282049050600182168061202857607f821691505b6020821081141561203c5761203b6120a2565b5b50919050565b61204b82612114565b810181811067ffffffffffffffff8211171561206a576120696120d1565b5b80604052505050565b7f4e487b7100000000000000000000000000000000000000000000000000000000600052601260045260246000fd5b7f4e487b7100000000000000000000000000000000000000000000000000000000600052602260045260246000fd5b7f4e487b7100000000000000000000000000000000000000000000000000000000600052604160045260246000fd5b600080fd5b600080fd5b600080fd5b600080fd5b6000601f19601f8301169050919050565b7f4552433732313a2063616c6c6572206973206e6f7420746f6b656e206f776e6560008201527f72206f7220617070726f76656400000000000000000000000000000000000000602082015250565b7f4552433732313a207472616e7366657220746f206e6f6e20455243373231526560008201527f63656976657220696d706c656d656e7465720000000000000000000000000000602082015250565b7f4552433732313a207472616e736665722066726f6d20696e636f72726563742060008201527f6f776e6572000000000000000000000000000000000000000000000000000000602082015250565b7f4552433732313a20746f6b656e20616c7265616479206d696e74656400000000600082015250565b7f4552433732313a207472616e7366657220746f20746865207a65726f2061646460008201527f7265737300000000000000000000000000000000000000000000000000000000602082015250565b7f4552433732313a20617070726f766520746f2063616c6c657200000000000000600082015250565b7f4552433732313a2061646472657373207a65726f206973206e6f74206120766160008201527f6c6964206f776e65720000000000000000000000000000000000000000000000602082015250565b7f4552433732313a206d696e7420746f20746865207a65726f2061646472657373600082015250565b7f4552433732313a20696e76616c696420746f6b656e2049440000000000000000600082015250565b7f4552433732313a20617070726f76616c20746f2063757272656e74206f776e6560008201527f7200000000000000000000000000000000000000000000000000000000000000602082015250565b7f4552433732313a20617070726f76652063616c6c6572206973206e6f7420746f60008201527f6b656e206f776e6572206f7220617070726f76656420666f7220616c6c000000602082015250565b6123fb81611f5a565b811461240657600080fd5b50565b61241281611f6c565b811461241d57600080fd5b50565b61242981611f78565b811461243457600080fd5b50565b61244081611fc4565b811461244b57600080fd5b5056fea2646970667358221220a7853452b130b4434e1501b9171a30fcde985f6ba5eb810f0f156dca1a3ceedd64736f6c63430008070033",
  "immutableReferences": {},
  "source": "// SPDX-License-Identifier: MIT\r\npragma solidity ^0.8.0;\r\nimport \"@openzeppelin/contracts/token/ERC721/ERC721.sol\";\r\n\r\ncontract MyToken is ERC721 {\r\n\r\n    constructor() ERC721(\"MyToken\",\"MTK\"){\r\n        \r\n    }\r\n    function mint(address to ,uint tokenId)public {\r\n        _mint(to,tokenId);\r\n\r\n    }\r\n\r\n}\r\n",
  "sourcePath": "E:\\Umar Khatab\\Projects\\connective_nft_ice\\backend\\contracts\\MyToken.sol",
  "compiler": {
    "name": "solc",
    "version": "0.8.7+commit.e28d00a7.Emscripten.clang"
  },
  "schemaVersion": "3.4.12",
  "updatedAt": "2023-03-22T10:28:28.558Z",
  "devdoc": {
    "kind": "dev",
    "methods": {
      "approve(address,uint256)": {
        "details": "See {IERC721-approve}."
      },
      "balanceOf(address)": {
        "details": "See {IERC721-balanceOf}."
      },
      "getApproved(uint256)": {
        "details": "See {IERC721-getApproved}."
      },
      "isApprovedForAll(address,address)": {
        "details": "See {IERC721-isApprovedForAll}."
      },
      "name()": {
        "details": "See {IERC721Metadata-name}."
      },
      "ownerOf(uint256)": {
        "details": "See {IERC721-ownerOf}."
      },
      "safeTransferFrom(address,address,uint256)": {
        "details": "See {IERC721-safeTransferFrom}."
      },
      "safeTransferFrom(address,address,uint256,bytes)": {
        "details": "See {IERC721-safeTransferFrom}."
      },
      "setApprovalForAll(address,bool)": {
        "details": "See {IERC721-setApprovalForAll}."
      },
      "supportsInterface(bytes4)": {
        "details": "See {IERC165-supportsInterface}."
      },
      "symbol()": {
        "details": "See {IERC721Metadata-symbol}."
      },
      "tokenURI(uint256)": {
        "details": "See {IERC721Metadata-tokenURI}."
      },
      "transferFrom(address,address,uint256)": {
        "details": "See {IERC721-transferFrom}."
      }
    },
    "version": 1
  },
  "userdoc": {
    "kind": "user",
    "methods": {},
    "version": 1
  }
}