{
  "contractName": "NFT_ice",
  "abi": [
    {
      "inputs": [
        {
          "internalType": "address",
          "name": "owner_",
          "type": "address"
        }
      ],
      "stateMutability": "payable",
      "type": "constructor"
    },
    {
      "anonymous": false,
      "inputs": [
        {
          "indexed": true,
          "internalType": "uint256",
          "name": "newFee",
          "type": "uint256"
        }
      ],
      "name": "FeeUpdate",
      "type": "event"
    },
    {
      "anonymous": false,
      "inputs": [
        {
          "indexed": true,
          "internalType": "address",
          "name": "staker",
          "type": "address"
        },
        {
          "indexed": true,
          "internalType": "string",
          "name": "discordId",
          "type": "string"
        },
        {
          "indexed": true,
          "internalType": "address",
          "name": "tokenAddress",
          "type": "address"
        },
        {
          "indexed": false,
          "internalType": "uint256",
          "name": "collectionId",
          "type": "uint256"
        }
      ],
      "name": "StakedERC1155",
      "type": "event"
    },
    {
      "anonymous": false,
      "inputs": [
        {
          "indexed": true,
          "internalType": "address",
          "name": "staker",
          "type": "address"
        },
        {
          "indexed": true,
          "internalType": "string",
          "name": "discordId",
          "type": "string"
        },
        {
          "indexed": true,
          "internalType": "address",
          "name": "tokenAddress",
          "type": "address"
        },
        {
          "indexed": false,
          "internalType": "uint256",
          "name": "tokenId",
          "type": "uint256"
        }
      ],
      "name": "StakedERC721",
      "type": "event"
    },
    {
      "anonymous": false,
      "inputs": [
        {
          "indexed": true,
          "internalType": "address",
          "name": "staker",
          "type": "address"
        },
        {
          "indexed": true,
          "internalType": "string",
          "name": "discordId",
          "type": "string"
        },
        {
          "indexed": true,
          "internalType": "address",
          "name": "tokenAddress",
          "type": "address"
        },
        {
          "indexed": false,
          "internalType": "uint256",
          "name": "collectionId",
          "type": "uint256"
        }
      ],
      "name": "UnstakedERC1155",
      "type": "event"
    },
    {
      "anonymous": false,
      "inputs": [
        {
          "indexed": true,
          "internalType": "address",
          "name": "staker",
          "type": "address"
        },
        {
          "indexed": true,
          "internalType": "string",
          "name": "discordId",
          "type": "string"
        },
        {
          "indexed": true,
          "internalType": "address",
          "name": "tokenAddress",
          "type": "address"
        },
        {
          "indexed": false,
          "internalType": "uint256",
          "name": "tokenId",
          "type": "uint256"
        }
      ],
      "name": "UnstakedERC721",
      "type": "event"
    },
    {
      "inputs": [
        {
          "internalType": "address",
          "name": "",
          "type": "address"
        },
        {
          "internalType": "string",
          "name": "",
          "type": "string"
        },
        {
          "internalType": "uint256",
          "name": "",
          "type": "uint256"
        }
      ],
      "name": "nftStakes1155",
      "outputs": [
        {
          "internalType": "uint256",
          "name": "",
          "type": "uint256"
        }
      ],
      "stateMutability": "view",
      "type": "function"
    },
    {
      "inputs": [
        {
          "internalType": "address",
          "name": "",
          "type": "address"
        },
        {
          "internalType": "string",
          "name": "",
          "type": "string"
        },
        {
          "internalType": "address",
          "name": "",
          "type": "address"
        }
      ],
      "name": "nftStakes721",
      "outputs": [
        {
          "internalType": "uint256",
          "name": "",
          "type": "uint256"
        }
      ],
      "stateMutability": "view",
      "type": "function"
    },
    {
      "inputs": [
        {
          "internalType": "address",
          "name": "",
          "type": "address"
        },
        {
          "internalType": "address",
          "name": "",
          "type": "address"
        },
        {
          "internalType": "uint256[]",
          "name": "",
          "type": "uint256[]"
        },
        {
          "internalType": "uint256[]",
          "name": "",
          "type": "uint256[]"
        },
        {
          "internalType": "bytes",
          "name": "",
          "type": "bytes"
        }
      ],
      "name": "onERC1155BatchReceived",
      "outputs": [
        {
          "internalType": "bytes4",
          "name": "",
          "type": "bytes4"
        }
      ],
      "stateMutability": "nonpayable",
      "type": "function"
    },
    {
      "inputs": [
        {
          "internalType": "address",
          "name": "",
          "type": "address"
        },
        {
          "internalType": "address",
          "name": "",
          "type": "address"
        },
        {
          "internalType": "uint256",
          "name": "",
          "type": "uint256"
        },
        {
          "internalType": "uint256",
          "name": "",
          "type": "uint256"
        },
        {
          "internalType": "bytes",
          "name": "",
          "type": "bytes"
        }
      ],
      "name": "onERC1155Received",
      "outputs": [
        {
          "internalType": "bytes4",
          "name": "",
          "type": "bytes4"
        }
      ],
      "stateMutability": "nonpayable",
      "type": "function"
    },
    {
      "inputs": [],
      "name": "owner",
      "outputs": [
        {
          "internalType": "address payable",
          "name": "",
          "type": "address"
        }
      ],
      "stateMutability": "view",
      "type": "function"
    },
    {
      "inputs": [],
      "name": "perNFTStakingFee",
      "outputs": [
        {
          "internalType": "uint256",
          "name": "",
          "type": "uint256"
        }
      ],
      "stateMutability": "view",
      "type": "function"
    },
    {
      "inputs": [
        {
          "internalType": "bytes4",
          "name": "interfaceId",
          "type": "bytes4"
        }
      ],
      "name": "supportsInterface",
      "outputs": [
        {
          "internalType": "bool",
          "name": "",
          "type": "bool"
        }
      ],
      "stateMutability": "view",
      "type": "function"
    },
    {
      "inputs": [
        {
          "components": [
            {
              "internalType": "address",
              "name": "the_staker",
              "type": "address"
            },
            {
              "internalType": "address[]",
              "name": "erc721Contracts",
              "type": "address[]"
            },
            {
              "internalType": "uint256[]",
              "name": "erc721TokenIds",
              "type": "uint256[]"
            },
            {
              "internalType": "address[]",
              "name": "erc1155Contracts",
              "type": "address[]"
            },
            {
              "internalType": "uint256[]",
              "name": "erc1155CollectionIds",
              "type": "uint256[]"
            },
            {
              "internalType": "uint256",
              "name": "nonce",
              "type": "uint256"
            },
            {
              "internalType": "bytes",
              "name": "personSignature",
              "type": "bytes"
            },
            {
              "internalType": "bytes",
              "name": "platformSignature",
              "type": "bytes"
            },
            {
              "internalType": "uint256",
              "name": "discount",
              "type": "uint256"
            },
            {
              "internalType": "string",
              "name": "discordId",
              "type": "string"
            }
          ],
          "internalType": "struct NFT_ice.UserTransaction",
          "name": "transaction",
          "type": "tuple"
        }
      ],
      "name": "getDiscountFee",
      "outputs": [
        {
          "internalType": "uint256",
          "name": "",
          "type": "uint256"
        }
      ],
      "stateMutability": "view",
      "type": "function"
    },
    {
      "inputs": [
        {
          "components": [
            {
              "internalType": "address",
              "name": "the_staker",
              "type": "address"
            },
            {
              "internalType": "address[]",
              "name": "erc721Contracts",
              "type": "address[]"
            },
            {
              "internalType": "uint256[]",
              "name": "erc721TokenIds",
              "type": "uint256[]"
            },
            {
              "internalType": "address[]",
              "name": "erc1155Contracts",
              "type": "address[]"
            },
            {
              "internalType": "uint256[]",
              "name": "erc1155CollectionIds",
              "type": "uint256[]"
            },
            {
              "internalType": "uint256",
              "name": "nonce",
              "type": "uint256"
            },
            {
              "internalType": "bytes",
              "name": "personSignature",
              "type": "bytes"
            },
            {
              "internalType": "bytes",
              "name": "platformSignature",
              "type": "bytes"
            },
            {
              "internalType": "uint256",
              "name": "discount",
              "type": "uint256"
            },
            {
              "internalType": "string",
              "name": "discordId",
              "type": "string"
            }
          ],
          "internalType": "struct NFT_ice.UserTransaction",
          "name": "transaction",
          "type": "tuple"
        }
      ],
      "name": "stakeNFTs",
      "outputs": [],
      "stateMutability": "payable",
      "type": "function"
    },
    {
      "inputs": [
        {
          "components": [
            {
              "internalType": "address",
              "name": "the_staker",
              "type": "address"
            },
            {
              "internalType": "address[]",
              "name": "erc721Contracts",
              "type": "address[]"
            },
            {
              "internalType": "uint256[]",
              "name": "erc721TokenIds",
              "type": "uint256[]"
            },
            {
              "internalType": "address[]",
              "name": "erc1155Contracts",
              "type": "address[]"
            },
            {
              "internalType": "uint256[]",
              "name": "erc1155CollectionIds",
              "type": "uint256[]"
            },
            {
              "internalType": "uint256",
              "name": "nonce",
              "type": "uint256"
            },
            {
              "internalType": "bytes",
              "name": "personSignature",
              "type": "bytes"
            },
            {
              "internalType": "bytes",
              "name": "platformSignature",
              "type": "bytes"
            },
            {
              "internalType": "uint256",
              "name": "discount",
              "type": "uint256"
            },
            {
              "internalType": "string",
              "name": "discordId",
              "type": "string"
            }
          ],
          "internalType": "struct NFT_ice.UserTransaction",
          "name": "transaction",
          "type": "tuple"
        }
      ],
      "name": "unstakeNFTs",
      "outputs": [],
      "stateMutability": "nonpayable",
      "type": "function"
    },
    {
      "inputs": [
        {
          "internalType": "uint256",
          "name": "newFee",
          "type": "uint256"
        }
      ],
      "name": "updateFee",
      "outputs": [],
      "stateMutability": "nonpayable",
      "type": "function"
    }
  ],
  "bytecode": "0x60806040526377359400600355604051620026b7380380620026b7833981810160405281019062000031919062000090565b80600260006101000a81548173ffffffffffffffffffffffffffffffffffffffff021916908373ffffffffffffffffffffffffffffffffffffffff1602179055505062000115565b6000815190506200008a81620000fb565b92915050565b600060208284031215620000a957620000a8620000f6565b5b6000620000b98482850162000079565b91505092915050565b6000620000cf82620000d6565b9050919050565b600073ffffffffffffffffffffffffffffffffffffffff82169050919050565b600080fd5b6200010681620000c2565b81146200011257600080fd5b50565b61259280620001256000396000f3fe60806040526004361061009c5760003560e01c8063c08b237f11610064578063c08b237f146101ac578063d2059326146101c8578063edc18f1114610205578063eddb032c14610242578063eedd090a1461026b578063f23a6e61146102965761009c565b806301ffc9a7146100a1578063071d06df146100de5780638da5cb5b1461011b5780639012c4a814610146578063bc197c811461016f575b600080fd5b3480156100ad57600080fd5b506100c860048036038101906100c39190611ac9565b6102d3565b6040516100d59190611e3f565b60405180910390f35b3480156100ea57600080fd5b50610105600480360381019061010091906119eb565b61034d565b6040516101129190611f3a565b60405180910390f35b34801561012757600080fd5b50610130610395565b60405161013d9190611d95565b60405180910390f35b34801561015257600080fd5b5061016d60048036038101906101689190611b3f565b6103bb565b005b34801561017b57600080fd5b5061019660048036038101906101919190611885565b610482565b6040516101a39190611e9f565b60405180910390f35b6101c660048036038101906101c19190611af6565b610497565b005b3480156101d457600080fd5b506101ef60048036038101906101ea9190611a5a565b61068c565b6040516101fc9190611f3a565b60405180910390f35b34801561021157600080fd5b5061022c60048036038101906102279190611af6565b6106d4565b6040516102399190611f3a565b60405180910390f35b34801561024e57600080fd5b5061026960048036038101906102649190611af6565b610732565b005b34801561027757600080fd5b50610280610eaa565b60405161028d9190611f3a565b60405180910390f35b3480156102a257600080fd5b506102bd60048036038101906102b89190611954565b610eb0565b6040516102ca9190611e9f565b60405180910390f35b60007f4e2312e0000000000000000000000000000000000000000000000000000000007bffffffffffffffffffffffffffffffffffffffffffffffffffffffff1916827bffffffffffffffffffffffffffffffffffffffffffffffffffffffff19161480610346575061034582610ec5565b5b9050919050565b60006020528260005260406000208280516020810182018051848252602083016020850120818352809550505050505060205280600052604060002060009250925050505481565b600260009054906101000a900473ffffffffffffffffffffffffffffffffffffffff1681565b600260009054906101000a900473ffffffffffffffffffffffffffffffffffffffff1673ffffffffffffffffffffffffffffffffffffffff163373ffffffffffffffffffffffffffffffffffffffff161461044b576040517f08c379a000000000000000000000000000000000000000000000000000000000815260040161044290611eda565b60405180910390fd5b80600381905550807f88258d7c1f0510045362f22cdeb36a2c501ef80d7a06168881189fb8480cfe2f60405160405180910390a250565b600063bc197c8160e01b905095945050505050565b80600001518160a001518260c001518360e0015160006104de85856040516020016104c3929190611d2c565b60405160208183030381529060405280519060200120610f2f565b905060006104ec8285610f5f565b90508573ffffffffffffffffffffffffffffffffffffffff168173ffffffffffffffffffffffffffffffffffffffff161461055c576040517f08c379a000000000000000000000000000000000000000000000000000000000815260040161055390611efa565b60405180910390fd5b6105668284610f5f565b9050600260009054906101000a900473ffffffffffffffffffffffffffffffffffffffff1673ffffffffffffffffffffffffffffffffffffffff168173ffffffffffffffffffffffffffffffffffffffff16146105f8576040517f08c379a00000000000000000000000000000000000000000000000000000000081526004016105ef90611f1a565b60405180910390fd5b6000610603886106d4565b905080341015610648576040517f08c379a000000000000000000000000000000000000000000000000000000000815260040161063f90611eba565b60405180910390fd5b610665886000015189602001518a604001518b6101200151610fd4565b610682886000015189606001518a608001518b6101200151611215565b5050505050505050565b60016020528260005260406000208280516020810182018051848252602083016020850120818352809550505050505060205280600052604060002060009250925050505481565b6000808260200151518360800151516106ed919061206c565b6003546106fa91906120f3565b9050600060648461010001518361071191906120f3565b61071b91906120c2565b90508082610729919061214d565b92505050919050565b80600001518160a001518260c001518360e001516000610779858560405160200161075e929190611d2c565b60405160208183030381529060405280519060200120610f2f565b905060006107878285610f5f565b90508573ffffffffffffffffffffffffffffffffffffffff168173ffffffffffffffffffffffffffffffffffffffff16146107f7576040517f08c379a00000000000000000000000000000000000000000000000000000000081526004016107ee90611efa565b60405180910390fd5b6108018284610f5f565b9050600260009054906101000a900473ffffffffffffffffffffffffffffffffffffffff1673ffffffffffffffffffffffffffffffffffffffff168173ffffffffffffffffffffffffffffffffffffffff1614610893576040517f08c379a000000000000000000000000000000000000000000000000000000000815260040161088a90611f1a565b60405180910390fd5b60005b876020015151811015610bc35760008060008a6000015173ffffffffffffffffffffffffffffffffffffffff1673ffffffffffffffffffffffffffffffffffffffff1681526020019081526020016000208961012001516040516108fa9190611d58565b908152602001604051809103902060008a60200151848151811061092157610920612382565b5b602002602001015173ffffffffffffffffffffffffffffffffffffffff1673ffffffffffffffffffffffffffffffffffffffff168152602001908152602001600020541115610bb0578760200151818151811061098157610980612382565b5b602002602001015173ffffffffffffffffffffffffffffffffffffffff166323b872dd308a600001518b6040015185815181106109c1576109c0612382565b5b60200260200101516040518463ffffffff1660e01b81526004016109e793929190611db0565b600060405180830381600087803b158015610a0157600080fd5b505af1158015610a15573d6000803e3d6000fd5b5050505060016000808a6000015173ffffffffffffffffffffffffffffffffffffffff1673ffffffffffffffffffffffffffffffffffffffff168152602001908152602001600020896101200151604051610a709190611d58565b908152602001604051809103902060008a602001518481518110610a9757610a96612382565b5b602002602001015173ffffffffffffffffffffffffffffffffffffffff1673ffffffffffffffffffffffffffffffffffffffff1681526020019081526020016000206000828254610ae8919061214d565b9250508190555087602001518181518110610b0657610b05612382565b5b602002602001015173ffffffffffffffffffffffffffffffffffffffff16886101200151604051610b379190611d58565b6040518091039020896000015173ffffffffffffffffffffffffffffffffffffffff167fc314dcbc93f3e71db0fdf0f5a93c47585b1d03c992b358923e3427133ec2194a8b604001518581518110610b9257610b91612382565b5b6020026020010151604051610ba79190611f3a565b60405180910390a45b8080610bbb906122a3565b915050610896565b5060005b876060015151811015610ea0576000600160008a6000015173ffffffffffffffffffffffffffffffffffffffff1673ffffffffffffffffffffffffffffffffffffffff168152602001908152602001600020896101200151604051610c2c9190611d58565b908152602001604051809103902060008a608001518481518110610c5357610c52612382565b5b60200260200101518152602001908152602001600020541115610e8d5787606001518181518110610c8757610c86612382565b5b602002602001015173ffffffffffffffffffffffffffffffffffffffff1663f242432a308a600001518b608001518581518110610cc757610cc6612382565b5b602002602001015160016040518563ffffffff1660e01b8152600401610cf09493929190611de7565b600060405180830381600087803b158015610d0a57600080fd5b505af1158015610d1e573d6000803e3d6000fd5b5050505060018060008a6000015173ffffffffffffffffffffffffffffffffffffffff1673ffffffffffffffffffffffffffffffffffffffff168152602001908152602001600020896101200151604051610d799190611d58565b908152602001604051809103902060008a608001518481518110610da057610d9f612382565b5b602002602001015181526020019081526020016000206000828254610dc5919061214d565b9250508190555087606001518181518110610de357610de2612382565b5b602002602001015173ffffffffffffffffffffffffffffffffffffffff16886101200151604051610e149190611d58565b6040518091039020896000015173ffffffffffffffffffffffffffffffffffffffff167f79d4da6a8bdaf18d94948e86f87ef7f8e89acb546021786d4c41a712c27e14a48b608001518581518110610e6f57610e6e612382565b5b6020026020010151604051610e849190611f3a565b60405180910390a45b8080610e98906122a3565b915050610bc7565b5050505050505050565b60035481565b600063f23a6e6160e01b905095945050505050565b60007f01ffc9a7000000000000000000000000000000000000000000000000000000007bffffffffffffffffffffffffffffffffffffffffffffffffffffffff1916827bffffffffffffffffffffffffffffffffffffffffffffffffffffffff1916149050919050565b600081604051602001610f429190611d6f565b604051602081830303815290604052805190602001209050919050565b600080600080610f6e8561142d565b80935081945082955050505060018684848460405160008152602001604052604051610f9d9493929190611e5a565b6020604051602081039080840390855afa158015610fbf573d6000803e3d6000fd5b50505060206040510351935050505092915050565b60005b835181101561120e57838181518110610ff357610ff2612382565b5b602002602001015173ffffffffffffffffffffffffffffffffffffffff166323b872dd863086858151811061102b5761102a612382565b5b60200260200101516040518463ffffffff1660e01b815260040161105193929190611db0565b600060405180830381600087803b15801561106b57600080fd5b505af115801561107f573d6000803e3d6000fd5b5050505060016000808773ffffffffffffffffffffffffffffffffffffffff1673ffffffffffffffffffffffffffffffffffffffff168152602001908152602001600020836040516110d19190611d58565b908152602001604051809103902060008684815181106110f4576110f3612382565b5b602002602001015173ffffffffffffffffffffffffffffffffffffffff1673ffffffffffffffffffffffffffffffffffffffff1681526020019081526020016000206000828254611145919061206c565b9250508190555083818151811061115f5761115e612382565b5b602002602001015173ffffffffffffffffffffffffffffffffffffffff168260405161118b9190611d58565b60405180910390208673ffffffffffffffffffffffffffffffffffffffff167fe6e34a3a5643532f5f606b203d9d90fce1eb1e0367c8dd2ea4eff4b1630bf7d18685815181106111de576111dd612382565b5b60200260200101516040516111f39190611f3a565b60405180910390a48080611206906122a3565b915050610fd7565b5050505050565b60005b83518110156114265783818151811061123457611233612382565b5b602002602001015173ffffffffffffffffffffffffffffffffffffffff1663f242432a863086858151811061126c5761126b612382565b5b602002602001015160016040518563ffffffff1660e01b81526004016112959493929190611de7565b600060405180830381600087803b1580156112af57600080fd5b505af11580156112c3573d6000803e3d6000fd5b5050505060018060008773ffffffffffffffffffffffffffffffffffffffff1673ffffffffffffffffffffffffffffffffffffffff168152602001908152602001600020836040516113159190611d58565b9081526020016040518091039020600085848151811061133857611337612382565b5b60200260200101518152602001908152602001600020600082825461135d919061206c565b9250508190555083818151811061137757611376612382565b5b602002602001015173ffffffffffffffffffffffffffffffffffffffff16826040516113a39190611d58565b60405180910390208673ffffffffffffffffffffffffffffffffffffffff167f2a17d21fda746ef025ef60cfbd365ac1e96e4c120e670a562e3d811ad438abd48685815181106113f6576113f5612382565b5b602002602001015160405161140b9190611f3a565b60405180910390a4808061141e906122a3565b915050611218565b5050505050565b6000806000604184511461144057600080fd5b60008060006020870151925060408701519150606087015160001a90508083839550955095505050509193909250565b600061148361147e84611f7a565b611f55565b905080838252602082019050828560208602820111156114a6576114a56123ef565b5b60005b858110156114d657816114bc88826115d4565b8452602084019350602083019250506001810190506114a9565b5050509392505050565b60006114f36114ee84611fa6565b611f55565b90508083825260208201905082856020860282011115611516576115156123ef565b5b60005b85811015611546578161152c8882611870565b845260208401935060208301925050600181019050611519565b5050509392505050565b600061156361155e84611fd2565b611f55565b90508281526020810184848401111561157f5761157e6123f4565b5b61158a848285612230565b509392505050565b60006115a56115a084612003565b611f55565b9050828152602081018484840111156115c1576115c06123f4565b5b6115cc848285612230565b509392505050565b6000813590506115e381612517565b92915050565b600082601f8301126115fe576115fd6123e0565b5b813561160e848260208601611470565b91505092915050565b600082601f83011261162c5761162b6123e0565b5b813561163c8482602086016114e0565b91505092915050565b6000813590506116548161252e565b92915050565b600082601f83011261166f5761166e6123e0565b5b813561167f848260208601611550565b91505092915050565b600082601f83011261169d5761169c6123e0565b5b81356116ad848260208601611592565b91505092915050565b600061014082840312156116cd576116cc6123e5565b5b6116d8610140611f55565b905060006116e8848285016115d4565b600083015250602082013567ffffffffffffffff81111561170c5761170b6123ea565b5b611718848285016115e9565b602083015250604082013567ffffffffffffffff81111561173c5761173b6123ea565b5b61174884828501611617565b604083015250606082013567ffffffffffffffff81111561176c5761176b6123ea565b5b611778848285016115e9565b606083015250608082013567ffffffffffffffff81111561179c5761179b6123ea565b5b6117a884828501611617565b60808301525060a06117bc84828501611870565b60a08301525060c082013567ffffffffffffffff8111156117e0576117df6123ea565b5b6117ec8482850161165a565b60c08301525060e082013567ffffffffffffffff8111156118105761180f6123ea565b5b61181c8482850161165a565b60e08301525061010061183184828501611870565b6101008301525061012082013567ffffffffffffffff811115611857576118566123ea565b5b61186384828501611688565b6101208301525092915050565b60008135905061187f81612545565b92915050565b600080600080600060a086880312156118a1576118a06123fe565b5b60006118af888289016115d4565b95505060206118c0888289016115d4565b945050604086013567ffffffffffffffff8111156118e1576118e06123f9565b5b6118ed88828901611617565b935050606086013567ffffffffffffffff81111561190e5761190d6123f9565b5b61191a88828901611617565b925050608086013567ffffffffffffffff81111561193b5761193a6123f9565b5b6119478882890161165a565b9150509295509295909350565b600080600080600060a086880312156119705761196f6123fe565b5b600061197e888289016115d4565b955050602061198f888289016115d4565b94505060406119a088828901611870565b93505060606119b188828901611870565b925050608086013567ffffffffffffffff8111156119d2576119d16123f9565b5b6119de8882890161165a565b9150509295509295909350565b600080600060608486031215611a0457611a036123fe565b5b6000611a12868287016115d4565b935050602084013567ffffffffffffffff811115611a3357611a326123f9565b5b611a3f86828701611688565b9250506040611a50868287016115d4565b9150509250925092565b600080600060608486031215611a7357611a726123fe565b5b6000611a81868287016115d4565b935050602084013567ffffffffffffffff811115611aa257611aa16123f9565b5b611aae86828701611688565b9250506040611abf86828701611870565b9150509250925092565b600060208284031215611adf57611ade6123fe565b5b6000611aed84828501611645565b91505092915050565b600060208284031215611b0c57611b0b6123fe565b5b600082013567ffffffffffffffff811115611b2a57611b296123f9565b5b611b36848285016116b6565b91505092915050565b600060208284031215611b5557611b546123fe565b5b6000611b6384828501611870565b91505092915050565b611b7581612193565b82525050565b611b8481612181565b82525050565b611b9b611b9682612181565b6122ec565b82525050565b611baa816121a5565b82525050565b611bb9816121b1565b82525050565b611bd0611bcb826121b1565b6122fe565b82525050565b611bdf816121bb565b82525050565b611bee8161221e565b82525050565b6000611bff82612034565b611c098185612061565b9350611c1981856020860161223f565b80840191505092915050565b6000611c32601c83612061565b9150611c3d82612421565b601c82019050919050565b6000611c55602383612050565b9150611c608261244a565b604082019050919050565b6000611c78601a83612050565b9150611c8382612499565b602082019050919050565b6000611c9b601683612050565b9150611ca6826124c2565b602082019050919050565b6000611cbe601a83612050565b9150611cc9826124eb565b602082019050919050565b6000611ce160008361203f565b9150611cec82612514565b600082019050919050565b611d0081612207565b82525050565b611d17611d1282612207565b61231a565b82525050565b611d2681612211565b82525050565b6000611d388285611b8a565b601482019150611d488284611d06565b6020820191508190509392505050565b6000611d648284611bf4565b915081905092915050565b6000611d7a82611c25565b9150611d868284611bbf565b60208201915081905092915050565b6000602082019050611daa6000830184611b6c565b92915050565b6000606082019050611dc56000830186611b7b565b611dd26020830185611b7b565b611ddf6040830184611cf7565b949350505050565b600060a082019050611dfc6000830187611b7b565b611e096020830186611b7b565b611e166040830185611cf7565b611e236060830184611be5565b8181036080830152611e3481611cd4565b905095945050505050565b6000602082019050611e546000830184611ba1565b92915050565b6000608082019050611e6f6000830187611bb0565b611e7c6020830186611d1d565b611e896040830185611bb0565b611e966060830184611bb0565b95945050505050565b6000602082019050611eb46000830184611bd6565b92915050565b60006020820190508181036000830152611ed381611c48565b9050919050565b60006020820190508181036000830152611ef381611c6b565b9050919050565b60006020820190508181036000830152611f1381611c8e565b9050919050565b60006020820190508181036000830152611f3381611cb1565b9050919050565b6000602082019050611f4f6000830184611cf7565b92915050565b6000611f5f611f70565b9050611f6b8282612272565b919050565b6000604051905090565b600067ffffffffffffffff821115611f9557611f946123b1565b5b602082029050602081019050919050565b600067ffffffffffffffff821115611fc157611fc06123b1565b5b602082029050602081019050919050565b600067ffffffffffffffff821115611fed57611fec6123b1565b5b611ff682612403565b9050602081019050919050565b600067ffffffffffffffff82111561201e5761201d6123b1565b5b61202782612403565b9050602081019050919050565b600081519050919050565b600082825260208201905092915050565b600082825260208201905092915050565b600081905092915050565b600061207782612207565b915061208283612207565b9250827fffffffffffffffffffffffffffffffffffffffffffffffffffffffffffffffff038211156120b7576120b6612324565b5b828201905092915050565b60006120cd82612207565b91506120d883612207565b9250826120e8576120e7612353565b5b828204905092915050565b60006120fe82612207565b915061210983612207565b9250817fffffffffffffffffffffffffffffffffffffffffffffffffffffffffffffffff048311821515161561214257612141612324565b5b828202905092915050565b600061215882612207565b915061216383612207565b92508282101561217657612175612324565b5b828203905092915050565b600061218c826121e7565b9050919050565b600061219e826121e7565b9050919050565b60008115159050919050565b6000819050919050565b60007fffffffff0000000000000000000000000000000000000000000000000000000082169050919050565b600073ffffffffffffffffffffffffffffffffffffffff82169050919050565b6000819050919050565b600060ff82169050919050565b600061222982612207565b9050919050565b82818337600083830152505050565b60005b8381101561225d578082015181840152602081019050612242565b8381111561226c576000848401525b50505050565b61227b82612403565b810181811067ffffffffffffffff8211171561229a576122996123b1565b5b80604052505050565b60006122ae82612207565b91507fffffffffffffffffffffffffffffffffffffffffffffffffffffffffffffffff8214156122e1576122e0612324565b5b600182019050919050565b60006122f782612308565b9050919050565b6000819050919050565b600061231382612414565b9050919050565b6000819050919050565b7f4e487b7100000000000000000000000000000000000000000000000000000000600052601160045260246000fd5b7f4e487b7100000000000000000000000000000000000000000000000000000000600052601260045260246000fd5b7f4e487b7100000000000000000000000000000000000000000000000000000000600052603260045260246000fd5b7f4e487b7100000000000000000000000000000000000000000000000000000000600052604160045260246000fd5b600080fd5b600080fd5b600080fd5b600080fd5b600080fd5b600080fd5b600080fd5b6000601f19601f8301169050919050565b60008160601b9050919050565b7f19457468657265756d205369676e6564204d6573736167653a0a333200000000600082015250565b7f496e73756666696369656e74206665652073656e7420746f20706c6174666f7260008201527f6d20210000000000000000000000000000000000000000000000000000000000602082015250565b7f6f6e6c79206f776e65722063616e20757064617465206665652e000000000000600082015250565b7f496e76616c69642075736572207369676e617475726500000000000000000000600082015250565b7f496e76616c696420706c6174666f726d207369676e6174757265000000000000600082015250565b50565b61252081612181565b811461252b57600080fd5b50565b612537816121bb565b811461254257600080fd5b50565b61254e81612207565b811461255957600080fd5b5056fea26469706673582212201787713d79e111aff2356ba63f175821a53521bb8ffeda06c6fdfeb32ffab83c64736f6c63430008070033",
  "immutableReferences": {},
  "source": "// SPDX-License-Identifier: GPL-3.0\r\n\r\npragma solidity ^0.8.0;\r\nimport \"@openzeppelin/contracts/token/ERC1155/utils/ERC1155Holder.sol\";\r\n\r\n// import \"https://github.com/OpenZeppelin/openzeppelin-contracts/blob/master/contracts/token/ERC1155/IERC1155.sol\";\r\ninterface IERC721 {\r\n    function transferFrom(\r\n        address from,\r\n        address to,\r\n        uint256 tokenId\r\n    ) external;\r\n\r\n    function safeTransferFrom(\r\n        address from,\r\n        address to,\r\n        uint256 tokenId,\r\n        bytes memory _data\r\n    ) external;\r\n}\r\n\r\ninterface IERC1155 {\r\n    function safeTransferFrom(\r\n        address from,\r\n        address to,\r\n        uint256 id,\r\n        uint256 amount,\r\n        bytes calldata data\r\n    ) external;\r\n}\r\n\r\ncontract NFT_ice is ERC1155Holder {\r\n    bytes32 private constant _PREFIX = \"\\x19Ethereum Signed Message:\\n32\";\r\n    // user to discord to tokenAddress to total_tokens_staked\r\n\r\n    mapping(address => mapping(string => mapping(address => uint256)))\r\n        public nftStakes721;\r\n    mapping(address => mapping(string => mapping(uint256 => uint256)))\r\n        public nftStakes1155;\r\n\r\n    // mapping(address=>mapping(address=>uint)) public balances;\r\n    // owner\r\n    address payable public owner;\r\n    // fee\r\n    uint256 public perNFTStakingFee= 2000000000; // 2gwei fee per NFT transfer\r\n    // events\r\n    event StakedERC721(\r\n        address indexed staker,\r\n        string indexed discordId,\r\n        address indexed tokenAddress,\r\n        uint256  tokenId\r\n    );\r\n    event StakedERC1155(\r\n        address indexed staker,\r\n        string indexed discordId,\r\n        address indexed tokenAddress,\r\n        uint256  collectionId\r\n    );\r\n\r\n    event UnstakedERC721(\r\n        address indexed staker,\r\n        string indexed discordId,\r\n        address indexed tokenAddress,\r\n        uint256  tokenId\r\n    );\r\n    event UnstakedERC1155(\r\n        address indexed staker,\r\n        string indexed discordId,\r\n        address indexed tokenAddress,\r\n        uint256  collectionId\r\n    );\r\n\r\n    event FeeUpdate(uint256 indexed newFee);\r\n    // Wrapping every NFT transfer detail in a single transaction object\r\n    // to save gas and give better UX\r\n    struct UserTransaction {\r\n        address the_staker;\r\n        address[] erc721Contracts;\r\n        uint256[] erc721TokenIds;\r\n        address[] erc1155Contracts;\r\n        uint256[] erc1155CollectionIds;\r\n        uint256 nonce;\r\n        bytes personSignature;\r\n        bytes platformSignature;\r\n        uint256 discount;\r\n        string discordId;\r\n    }\r\n\r\n    constructor(address owner_) payable {\r\n        owner = payable(owner_);\r\n    }\r\n\r\n    modifier onlyOwner() {\r\n        require(\r\n            msg.sender == owner,\r\n            \"only owner is allowed to call this function\"\r\n        );\r\n        _;\r\n    }\r\n\r\n    /********************* Signature Validation **********************/\r\n\r\n    modifier validateSignatures(\r\n        address theStaker,\r\n        uint256 nonce,\r\n        bytes memory userSig,\r\n        bytes memory platformSig\r\n    ) {\r\n        bytes32 message = prefixed(\r\n            keccak256(abi.encodePacked(theStaker, nonce))\r\n        );\r\n        address signerAddress = recoverSigner(message, userSig);\r\n        require(signerAddress == theStaker, \"Invalid user signature\");\r\n\r\n        signerAddress = recoverSigner(message, platformSig);\r\n        require(signerAddress == owner, \"Invalid platform signature\");\r\n        _;\r\n    }\r\n\r\n    function prefixed(bytes32 hash) internal pure returns (bytes32) {\r\n        return\r\n            keccak256(\r\n                abi.encodePacked(\"\\x19Ethereum Signed Message:\\n32\", hash)\r\n            );\r\n    }\r\n\r\n    function recoverSigner(bytes32 message, bytes memory sig)\r\n        internal\r\n        pure\r\n        returns (address)\r\n    {\r\n        uint8 v;\r\n        bytes32 r;\r\n        bytes32 s;\r\n\r\n        (v, r, s) = splitSignature(sig);\r\n\r\n        return ecrecover(message, v, r, s);\r\n    }\r\n\r\n    function splitSignature(bytes memory sig)\r\n        internal\r\n        pure\r\n        returns (\r\n            uint8,\r\n            bytes32,\r\n            bytes32\r\n        )\r\n    {\r\n        require(sig.length == 65);\r\n\r\n        bytes32 r;\r\n        bytes32 s;\r\n        uint8 v;\r\n\r\n        assembly {\r\n            // first 32 bytes, after the length prefix\r\n            r := mload(add(sig, 32))\r\n            // second 32 bytes\r\n            s := mload(add(sig, 64))\r\n            // final byte (first byte of the next 32 bytes)\r\n            v := byte(0, mload(add(sig, 96)))\r\n        }\r\n\r\n        return (v, r, s);\r\n    }\r\n\r\n    /*******************Staking Starts here *************************/\r\n\r\n    function stakeERC721(\r\n        address the_staker,\r\n        address[] memory erc721Contracts,\r\n        uint256[] memory tokenIds,\r\n        string memory discordId\r\n    ) internal {\r\n        for (uint256 i = 0; i < erc721Contracts.length; i++) {\r\n            IERC721(erc721Contracts[i]).transferFrom(\r\n                the_staker,\r\n                address(this),\r\n                tokenIds[i]\r\n            );\r\n            nftStakes721[the_staker][discordId][erc721Contracts[i]] += 1;\r\n            emit StakedERC721(\r\n                the_staker,\r\n                discordId,\r\n                erc721Contracts[i],\r\n                tokenIds[i]\r\n            );\r\n        }\r\n    }\r\n\r\n    function stakeERC1155(\r\n        address the_staker,\r\n        address[] memory erc1155Contracts,\r\n        uint256[] memory collectionIds,\r\n        string memory discordId\r\n    ) internal {\r\n        for (uint256 i = 0; i < erc1155Contracts.length; i++) {\r\n            IERC1155(erc1155Contracts[i]).safeTransferFrom(\r\n                the_staker,\r\n                address(this),\r\n                collectionIds[i],\r\n                1,\r\n                \"\"\r\n            );\r\n            nftStakes1155[the_staker][discordId][collectionIds[i]] += 1;\r\n            emit StakedERC1155(\r\n                the_staker,\r\n                discordId,\r\n                erc1155Contracts[i],\r\n                collectionIds[i]\r\n            );\r\n        }\r\n    }\r\n\r\n    function getDiscountFee(UserTransaction memory transaction)public view returns(uint256) {\r\n                // total fee to pay in general\r\n        uint256 stakingFee = (perNFTStakingFee* (transaction.erc1155CollectionIds.length + transaction.erc721Contracts.length) );\r\n        // if we get percentage of dsicount , let's calculate\r\n        uint256 discount = (stakingFee* (transaction.discount)) / (100);\r\n        // final discounted price\r\n        return   stakingFee - discount;\r\n       \r\n    }\r\n    function stakeNFTs(UserTransaction memory transaction)\r\n        public\r\n        payable\r\n        validateSignatures(\r\n            transaction.the_staker,\r\n            transaction.nonce,\r\n            transaction.personSignature,\r\n            transaction.platformSignature\r\n        )\r\n    {\r\n        uint priceToPay=getDiscountFee(transaction);\r\n        require(msg.value >= priceToPay, \"Insufficient fee sent to platform !\");\r\n\r\n        stakeERC721(\r\n            transaction.the_staker,\r\n            transaction.erc721Contracts,\r\n            transaction.erc721TokenIds,\r\n            transaction.discordId\r\n        );\r\n        stakeERC1155(\r\n            transaction.the_staker,\r\n            transaction.erc1155Contracts,\r\n            transaction.erc1155CollectionIds,\r\n            transaction.discordId\r\n        );\r\n    }\r\n\r\n    /****************** Unstaking starts here ************************ */\r\n\r\n    function unstakeERC721(\r\n        address the_staker,\r\n        address[] memory erc721Contracts,\r\n        uint256[] memory tokenIds\r\n    ) internal {}\r\n\r\n    function unstakeERC1155(\r\n        address the_staker,\r\n        address[] memory erc1155Contracts,\r\n        uint256[] memory collectionIds\r\n    ) internal {}\r\n\r\n    function unstakeNFTs(UserTransaction memory transaction)\r\n        public\r\n        validateSignatures(\r\n            transaction.the_staker,\r\n            transaction.nonce,\r\n            transaction.personSignature,\r\n            transaction.platformSignature\r\n        )\r\n    {\r\n        for (uint256 i = 0; i < transaction.erc721Contracts.length; i++) {\r\n            if (\r\n                nftStakes721[transaction.the_staker][transaction.discordId][\r\n                    transaction.erc721Contracts[i]\r\n                ] > 0\r\n            ) // if user has staked more than one staking balance in the target contract ,\r\n            // then he potentially has staked this token too ,\r\n            // because there is no other way to modify this mapping\r\n\r\n            {\r\n                IERC721(transaction.erc721Contracts[i]).transferFrom(\r\n                    address(this),\r\n                    transaction.the_staker,\r\n                    transaction.erc721TokenIds[i]\r\n                );\r\n\r\n                nftStakes721[transaction.the_staker][transaction.discordId][\r\n                    transaction.erc721Contracts[i]\r\n                ] -= 1;\r\n\r\n                emit UnstakedERC721(\r\n                    transaction.the_staker,\r\n                     transaction.discordId,\r\n                    transaction.erc721Contracts[i],\r\n                    transaction.erc721TokenIds[i]\r\n                   \r\n                );\r\n            }\r\n        }\r\n        for (uint256 i = 0; i < transaction.erc1155Contracts.length; i++) {\r\n            if (\r\n                nftStakes1155[transaction.the_staker][transaction.discordId][\r\n                    transaction.erc1155CollectionIds[i]\r\n                ] > 0\r\n            ) {\r\n                IERC1155(transaction.erc1155Contracts[i]).safeTransferFrom(\r\n                    address(this),\r\n                    transaction.the_staker,\r\n                    transaction.erc1155CollectionIds[i],\r\n                    1,\r\n                    \"\"\r\n                );\r\n                nftStakes1155[transaction.the_staker][transaction.discordId][\r\n                    transaction.erc1155CollectionIds[i]\r\n                ] -= 1;\r\n                emit UnstakedERC1155(\r\n                    transaction.the_staker,\r\n                     transaction.discordId,\r\n                    transaction.erc1155Contracts[i],\r\n                    transaction.erc1155CollectionIds[i]\r\n                    \r\n                );\r\n            }\r\n        }\r\n    }\r\n\r\n    /***  */\r\n    function updateFee(uint256 newFee) public {\r\n        require(msg.sender == owner, \"only owner can update fee.\");\r\n        perNFTStakingFee= newFee;\r\n        emit FeeUpdate(newFee);\r\n    }\r\n}\r\n",
  "sourcePath": "E:\\Umar Khatab\\Projects\\connective_nft_ice\\backend\\contracts\\NFT_ice.sol",
  "compiler": {
    "name": "solc",
    "version": "0.8.7+commit.e28d00a7.Emscripten.clang"
  },
  "schemaVersion": "3.4.12",
  "updatedAt": "2023-03-27T12:20:58.416Z",
  "devdoc": {
    "kind": "dev",
    "methods": {
      "supportsInterface(bytes4)": {
        "details": "See {IERC165-supportsInterface}."
      }
    },
    "version": 1
  },
  "userdoc": {
    "kind": "user",
    "methods": {},
    "version": 1
  }
}